{
  "contractName": "CreditReport",
  "abi": [
    {
      "anonymous": false,
      "inputs": [
        {
          "indexed": false,
          "internalType": "address",
          "name": "addr",
          "type": "address"
        },
        {
          "indexed": false,
          "internalType": "string",
          "name": "message",
          "type": "string"
        }
      ],
      "name": "ConsumerNotified",
      "type": "event"
    },
    {
      "anonymous": false,
      "inputs": [
        {
          "indexed": false,
          "internalType": "address",
          "name": "addr",
          "type": "address"
        },
        {
          "indexed": false,
          "internalType": "string",
          "name": "message",
          "type": "string"
        }
      ],
      "name": "SubscriberAdded",
      "type": "event"
    },
    {
      "anonymous": false,
      "inputs": [
        {
          "indexed": false,
          "internalType": "address",
          "name": "addr",
          "type": "address"
        },
        {
          "indexed": false,
          "internalType": "string",
          "name": "message",
          "type": "string"
        }
      ],
      "name": "SubscriberNotified",
      "type": "event"
    },
    {
      "inputs": [],
      "name": "initialize",
      "outputs": [],
      "stateMutability": "nonpayable",
      "type": "function"
    },
    {
      "inputs": [],
      "name": "getOwner",
      "outputs": [
        {
          "internalType": "address",
          "name": "addr",
          "type": "address"
        }
      ],
      "stateMutability": "view",
      "type": "function",
      "constant": true
    },
    {
      "inputs": [],
      "name": "getUserRole",
      "outputs": [
        {
          "internalType": "string",
          "name": "",
          "type": "string"
        }
      ],
      "stateMutability": "view",
      "type": "function",
      "constant": true
    },
    {
      "inputs": [
        {
          "internalType": "address",
          "name": "addr",
          "type": "address"
        },
        {
          "internalType": "uint256",
          "name": "_type",
          "type": "uint256"
        }
      ],
      "name": "addSubscriber",
      "outputs": [],
      "stateMutability": "nonpayable",
      "type": "function"
    },
    {
      "inputs": [],
      "name": "getSubscribers",
      "outputs": [
        {
          "internalType": "address[]",
          "name": "",
          "type": "address[]"
        }
      ],
      "stateMutability": "view",
      "type": "function",
      "constant": true
    },
    {
      "inputs": [],
      "name": "getConsumers",
      "outputs": [
        {
          "internalType": "address[]",
          "name": "",
          "type": "address[]"
        }
      ],
      "stateMutability": "view",
      "type": "function",
      "constant": true
    },
    {
      "inputs": [
        {
          "internalType": "address",
          "name": "consumer",
          "type": "address"
        },
        {
          "internalType": "bytes",
          "name": "item",
          "type": "bytes"
        }
      ],
      "name": "addConsumerItem",
      "outputs": [],
      "stateMutability": "nonpayable",
      "type": "function"
    },
    {
      "inputs": [
        {
          "internalType": "address",
          "name": "consumer",
          "type": "address"
        }
      ],
      "name": "getConsumerReportTotal",
      "outputs": [
        {
          "internalType": "uint256",
          "name": "",
          "type": "uint256"
        }
      ],
      "stateMutability": "view",
      "type": "function",
      "constant": true
    },
    {
      "inputs": [
        {
          "internalType": "address",
          "name": "consumer",
          "type": "address"
        },
        {
          "internalType": "uint256",
          "name": "index",
          "type": "uint256"
        }
      ],
      "name": "getConsumerReportItem",
      "outputs": [
        {
          "internalType": "bytes",
          "name": "",
          "type": "bytes"
        }
      ],
      "stateMutability": "view",
      "type": "function",
      "constant": true
    },
    {
      "inputs": [
        {
          "internalType": "address",
          "name": "consumer",
          "type": "address"
        },
        {
          "internalType": "uint256",
          "name": "reqtime",
          "type": "uint256"
        },
        {
          "internalType": "address payable",
          "name": "to",
          "type": "address"
        }
      ],
      "name": "getConsumerReport",
      "outputs": [
        {
          "internalType": "bytes32",
          "name": "",
          "type": "bytes32"
        }
      ],
      "stateMutability": "payable",
      "type": "function",
      "payable": true
    },
    {
      "inputs": [
        {
          "internalType": "uint256",
          "name": "reqtime",
          "type": "uint256"
        }
      ],
      "name": "getCreditReport",
      "outputs": [
        {
          "internalType": "bytes32",
          "name": "",
          "type": "bytes32"
        }
      ],
      "stateMutability": "payable",
      "type": "function",
      "payable": true
    },
    {
      "inputs": [
        {
          "internalType": "address",
          "name": "consumer",
          "type": "address"
        },
        {
          "internalType": "address",
          "name": "subscriber",
          "type": "address"
        },
        {
          "internalType": "uint256",
          "name": "reqtime",
          "type": "uint256"
        }
      ],
      "name": "getFreeCreditReport",
      "outputs": [
        {
          "internalType": "bytes32",
          "name": "",
          "type": "bytes32"
        }
      ],
      "stateMutability": "payable",
      "type": "function",
      "payable": true
    },
    {
      "inputs": [],
      "name": "getInquiries",
      "outputs": [
        {
          "internalType": "string",
          "name": "",
          "type": "string"
        }
      ],
      "stateMutability": "view",
      "type": "function",
      "constant": true
    },
    {
      "inputs": [
        {
          "internalType": "address",
          "name": "consumer",
          "type": "address"
        },
        {
          "internalType": "uint256",
          "name": "index",
          "type": "uint256"
        },
        {
          "internalType": "string",
          "name": "disputeDate",
          "type": "string"
        },
        {
          "internalType": "string",
          "name": "reason",
          "type": "string"
        }
      ],
      "name": "openDispute",
      "outputs": [],
      "stateMutability": "nonpayable",
      "type": "function"
    },
    {
      "inputs": [
        {
          "internalType": "address",
          "name": "consumer",
          "type": "address"
        },
        {
          "internalType": "uint256",
          "name": "index",
          "type": "uint256"
        },
        {
          "internalType": "string",
          "name": "status",
          "type": "string"
        },
        {
          "internalType": "bool",
          "name": "purge",
          "type": "bool"
        }
      ],
      "name": "finalizeDispute",
      "outputs": [],
      "stateMutability": "nonpayable",
      "type": "function"
    },
    {
      "inputs": [
        {
          "internalType": "address",
          "name": "consumer",
          "type": "address"
        }
      ],
      "name": "getReportsByConsumer",
      "outputs": [
        {
          "internalType": "bytes32",
          "name": "",
          "type": "bytes32"
        }
      ],
      "stateMutability": "view",
      "type": "function",
      "constant": true
    },
    {
      "inputs": [],
      "name": "getBlocktime",
      "outputs": [
        {
          "internalType": "uint256",
          "name": "",
          "type": "uint256"
        }
      ],
      "stateMutability": "view",
      "type": "function",
      "constant": true
    },
    {
      "inputs": [
        {
          "internalType": "address",
          "name": "consumer",
          "type": "address"
        }
      ],
      "name": "getDisputes",
      "outputs": [
        {
          "internalType": "bytes32",
          "name": "",
          "type": "bytes32"
        }
      ],
      "stateMutability": "view",
      "type": "function",
      "constant": true
    },
    {
      "inputs": [
        {
          "internalType": "uint256",
          "name": "LastTimeStamp",
          "type": "uint256"
        },
        {
          "internalType": "uint256",
          "name": "currentTime",
          "type": "uint256"
        }
      ],
      "name": "checkExpiry",
      "outputs": [
        {
          "internalType": "bool",
          "name": "success",
          "type": "bool"
        }
      ],
      "stateMutability": "pure",
      "type": "function",
      "constant": true
    },
    {
      "inputs": [
        {
          "internalType": "address",
          "name": "consumer",
          "type": "address"
        },
        {
          "internalType": "uint256",
          "name": "index",
          "type": "uint256"
        }
      ],
      "name": "purgeDispute",
      "outputs": [],
      "stateMutability": "nonpayable",
      "type": "function"
    },
    {
      "inputs": [
        {
          "internalType": "address",
          "name": "_recipient",
          "type": "address"
        },
        {
          "internalType": "bytes32",
          "name": "_message",
          "type": "bytes32"
        }
      ],
      "name": "sendMessage",
      "outputs": [],
      "stateMutability": "nonpayable",
      "type": "function"
    },
    {
      "inputs": [],
      "name": "readMessage",
      "outputs": [
        {
          "internalType": "bytes32[]",
          "name": "",
          "type": "bytes32[]"
        }
      ],
      "stateMutability": "view",
      "type": "function",
      "constant": true
    }
  ],
  "bytecode": "0x608060405234801561001057600080fd5b506150e5806100206000396000f3fe6080604052600436106101355760003560e01c806375cb1c43116100ab578063c7068c8e1161006f578063c7068c8e146103fa578063d699978014610437578063d7fdd77014610467578063d91ed51d146104a4578063e09ee3af146104cf578063f7bddce41461050c57610135565b806375cb1c43146103345780638129fc1c1461035d578063893d20e814610374578063a264c26c1461039f578063bf04a10d146103cf57610135565b80633b729b86116100fd5780633b729b86146102145780633d5913ae1461023f57806357486eb6146102685780636138d597146102915780636df2ddd8146102ce57806370d6e7b4146102f757610135565b8063031d5d011461013a5780630501b79f1461016557806305cc61ad1461019057806318a92881146101bb57806338cf7a27146101eb575b600080fd5b34801561014657600080fd5b5061014f610535565b60405161015c91906139e3565b60405180910390f35b34801561017157600080fd5b5061017a6105ca565b6040516101879190613a1e565b60405180910390f35b34801561019c57600080fd5b506101a56105d2565b6040516101b29190613b29565b60405180910390f35b6101d560048036038101906101d09190613b8b565b6106f0565b6040516101e29190613bc7565b60405180910390f35b3480156101f757600080fd5b50610212600480360381019061020d9190613d54565b610870565b005b34801561022057600080fd5b50610229610ba6565b6040516102369190613b29565b60405180910390f35b34801561024b57600080fd5b5061026660048036038101906102619190613db0565b610cc4565b005b34801561027457600080fd5b5061028f600480360381019061028a9190613e91565b610eb5565b005b34801561029d57600080fd5b506102b860048036038101906102b39190613f30565b611404565b6040516102c59190613bc7565b60405180910390f35b3480156102da57600080fd5b506102f560048036038101906102f09190613f89565b6114a6565b005b34801561030357600080fd5b5061031e60048036038101906103199190613db0565b611510565b60405161032b9190614051565b60405180910390f35b34801561034057600080fd5b5061035b600480360381019061035691906140ab565b611524565b005b34801561036957600080fd5b50610372611d67565b005b34801561038057600080fd5b50610389611eff565b604051610396919061413d565b60405180910390f35b6103b960048036038101906103b49190614158565b611f29565b6040516103c69190613bc7565b60405180910390f35b3480156103db57600080fd5b506103e461239b565b6040516103f19190614200565b60405180910390f35b34801561040657600080fd5b50610421600480360381019061041c9190613f30565b6125e4565b60405161042e9190613a1e565b60405180910390f35b610451600480360381019061044c9190614260565b6125f6565b60405161045e9190613bc7565b60405180910390f35b34801561047357600080fd5b5061048e600480360381019061048991906142b3565b61286c565b60405161049b9190614302565b60405180910390f35b3480156104b057600080fd5b506104b9612897565b6040516104c69190614200565b60405180910390f35b3480156104db57600080fd5b506104f660048036038101906104f19190613f30565b612aa2565b6040516105039190613bc7565b60405180910390f35b34801561051857600080fd5b50610533600480360381019061052e9190613db0565b6131c8565b005b6060600960003373ffffffffffffffffffffffffffffffffffffffff1673ffffffffffffffffffffffffffffffffffffffff1681526020019081526020016000208054806020026020016040519081016040528092919081815260200182805480156105c057602002820191906000526020600020905b8154815260200190600101908083116105ac575b5050505050905090565b600042905090565b6060600b60009054906101000a900473ffffffffffffffffffffffffffffffffffffffff1673ffffffffffffffffffffffffffffffffffffffff163373ffffffffffffffffffffffffffffffffffffffff1614610664576040517f08c379a000000000000000000000000000000000000000000000000000000000815260040161065b90614369565b60405180910390fd5b60068054806020026020016040519081016040528092919081815260200182805480156106e657602002820191906000526020600020905b8160009054906101000a900473ffffffffffffffffffffffffffffffffffffffff1673ffffffffffffffffffffffffffffffffffffffff168152602001906001019080831161069c575b5050505050905090565b600080600360003373ffffffffffffffffffffffffffffffffffffffff1673ffffffffffffffffffffffffffffffffffffffff168152602001908152602001600020541415610774576040517f08c379a000000000000000000000000000000000000000000000000000000000815260040161076b906143d5565b60405180910390fd5b600060405180604001604052803373ffffffffffffffffffffffffffffffffffffffff168152602001848152509050600460003373ffffffffffffffffffffffffffffffffffffffff1673ffffffffffffffffffffffffffffffffffffffff16815260200190815260200160002081908060018154018082558091505060019003906000526020600020906002020160009091909190915060008201518160000160006101000a81548173ffffffffffffffffffffffffffffffffffffffff021916908373ffffffffffffffffffffffffffffffffffffffff16021790555060208201518160010155505061086833613490565b915050919050565b6000600260003373ffffffffffffffffffffffffffffffffffffffff1673ffffffffffffffffffffffffffffffffffffffff1681526020019081526020016000205414156108f3576040517f08c379a00000000000000000000000000000000000000000000000000000000081526004016108ea90614441565b60405180910390fd5b600073ffffffffffffffffffffffffffffffffffffffff168273ffffffffffffffffffffffffffffffffffffffff161415610963576040517f08c379a000000000000000000000000000000000000000000000000000000000815260040161095a906144ad565b60405180910390fd5b6000600360008473ffffffffffffffffffffffffffffffffffffffff1673ffffffffffffffffffffffffffffffffffffffff168152602001908152602001600020541415610a6c576001600360008473ffffffffffffffffffffffffffffffffffffffff1673ffffffffffffffffffffffffffffffffffffffff168152602001908152602001600020819055506007829080600181540180825580915050600190039060005260206000200160009091909190916101000a81548173ffffffffffffffffffffffffffffffffffffffff021916908373ffffffffffffffffffffffffffffffffffffffff16021790555060086000815480929190610a66906144fc565b91905055505b600060405180604001604052803373ffffffffffffffffffffffffffffffffffffffff168152602001838152509050600160008473ffffffffffffffffffffffffffffffffffffffff1673ffffffffffffffffffffffffffffffffffffffff16815260200190815260200160002081908060018154018082558091505060019003906000526020600020906002020160009091909190915060008201518160000160006101000a81548173ffffffffffffffffffffffffffffffffffffffff021916908373ffffffffffffffffffffffffffffffffffffffff1602179055506020820151816001019080519060200190610b67929190613772565b5050507fd87358bdb9fb3fd22dc44bf9aec10b565d35f5b8c903db24b4addfb35594895c83604051610b9991906145b7565b60405180910390a1505050565b6060600b60009054906101000a900473ffffffffffffffffffffffffffffffffffffffff1673ffffffffffffffffffffffffffffffffffffffff163373ffffffffffffffffffffffffffffffffffffffff1614610c38576040517f08c379a0000000000000000000000000000000000000000000000000000000008152600401610c2f90614369565b60405180910390fd5b6007805480602002602001604051908101604052809291908181526020018280548015610cba57602002820191906000526020600020905b8160009054906101000a900473ffffffffffffffffffffffffffffffffffffffff1673ffffffffffffffffffffffffffffffffffffffff1681526020019060010190808311610c70575b5050505050905090565b600b60009054906101000a900473ffffffffffffffffffffffffffffffffffffffff1673ffffffffffffffffffffffffffffffffffffffff163373ffffffffffffffffffffffffffffffffffffffff1614610d54576040517f08c379a0000000000000000000000000000000000000000000000000000000008152600401610d4b90614369565b60405180910390fd5b600560008373ffffffffffffffffffffffffffffffffffffffff1673ffffffffffffffffffffffffffffffffffffffff1681526020019081526020016000208181548110610da557610da46145e5565b5b90600052602060002090600802016000808201600090556001820160006101000a81549073ffffffffffffffffffffffffffffffffffffffff02191690556002820160006101000a81549073ffffffffffffffffffffffffffffffffffffffff0219169055600382016000610e1a91906137f8565b60048201600080820160006101000a81549073ffffffffffffffffffffffffffffffffffffffff0219169055600182016000610e569190613838565b5050600682016000610e6891906137f8565b600782016000610e7891906137f8565b50507fd87358bdb9fb3fd22dc44bf9aec10b565d35f5b8c903db24b4addfb35594895c82604051610ea99190614660565b60405180910390a15050565b600b60009054906101000a900473ffffffffffffffffffffffffffffffffffffffff1673ffffffffffffffffffffffffffffffffffffffff163373ffffffffffffffffffffffffffffffffffffffff1614610f45576040517f08c379a0000000000000000000000000000000000000000000000000000000008152600401610f3c90614369565b60405180910390fd5b60006040518060400160405280600160008873ffffffffffffffffffffffffffffffffffffffff1673ffffffffffffffffffffffffffffffffffffffff1681526020019081526020016000208681548110610fa357610fa26145e5565b5b906000526020600020906002020160000160009054906101000a900473ffffffffffffffffffffffffffffffffffffffff1673ffffffffffffffffffffffffffffffffffffffff168152602001600160008873ffffffffffffffffffffffffffffffffffffffff1673ffffffffffffffffffffffffffffffffffffffff1681526020019081526020016000208681548110611041576110406145e5565b5b9060005260206000209060020201600101805461105d906146bd565b80601f0160208091040260200160405190810160405280929190818152602001828054611089906146bd565b80156110d65780601f106110ab576101008083540402835291602001916110d6565b820191906000526020600020905b8154815290600101906020018083116110b957829003601f168201915b5050505050815250905060006040518060e00160405280868152602001836000015173ffffffffffffffffffffffffffffffffffffffff1681526020018773ffffffffffffffffffffffffffffffffffffffff168152602001858152602001838152602001848152602001604051806020016040528060008152508152509050600560008773ffffffffffffffffffffffffffffffffffffffff1673ffffffffffffffffffffffffffffffffffffffff1681526020019081526020016000208190806001815401808255809150506001900390600052602060002090600802016000909190919091506000820151816000015560208201518160010160006101000a81548173ffffffffffffffffffffffffffffffffffffffff021916908373ffffffffffffffffffffffffffffffffffffffff16021790555060408201518160020160006101000a81548173ffffffffffffffffffffffffffffffffffffffff021916908373ffffffffffffffffffffffffffffffffffffffff1602179055506060820151816003019080519060200190611273929190613878565b5060808201518160040160008201518160000160006101000a81548173ffffffffffffffffffffffffffffffffffffffff021916908373ffffffffffffffffffffffffffffffffffffffff16021790555060208201518160010190805190602001906112e0929190613772565b50505060a08201518160060190805190602001906112ff929190613878565b5060c082015181600701908051906020019061131c929190613878565b50505060096000836000015173ffffffffffffffffffffffffffffffffffffffff1673ffffffffffffffffffffffffffffffffffffffff16815260200190815260200160002085836000015188878660200151886040516020016113859695949392919061481c565b6040516020818303038152906040528051906020012090806001815401808255809150506001900390600052602060002001600090919091909150557fde371f040710867afadb0d380ec315de30e2cdd4edd5062dd8c82c7418784ad782600001516040516113f491906148d7565b60405180910390a1505050505050565b6000600b60009054906101000a900473ffffffffffffffffffffffffffffffffffffffff1673ffffffffffffffffffffffffffffffffffffffff163373ffffffffffffffffffffffffffffffffffffffff1614611496576040517f08c379a000000000000000000000000000000000000000000000000000000000815260040161148d90614369565b60405180910390fd5b61149f82613490565b9050919050565b600960008373ffffffffffffffffffffffffffffffffffffffff1673ffffffffffffffffffffffffffffffffffffffff1681526020019081526020016000208190806001815401808255809150506001900390600052602060002001600090919091909150555050565b606061151c838361360d565b905092915050565b6000600260003373ffffffffffffffffffffffffffffffffffffffff1673ffffffffffffffffffffffffffffffffffffffff1681526020019081526020016000205414156115a7576040517f08c379a000000000000000000000000000000000000000000000000000000000815260040161159e90614441565b60405180910390fd5b60006040518060e00160405280858152602001600560008873ffffffffffffffffffffffffffffffffffffffff1673ffffffffffffffffffffffffffffffffffffffff168152602001908152602001600020868154811061160b5761160a6145e5565b5b906000526020600020906008020160010160009054906101000a900473ffffffffffffffffffffffffffffffffffffffff1673ffffffffffffffffffffffffffffffffffffffff168152602001600560008873ffffffffffffffffffffffffffffffffffffffff1673ffffffffffffffffffffffffffffffffffffffff16815260200190815260200160002086815481106116a9576116a86145e5565b5b906000526020600020906008020160020160009054906101000a900473ffffffffffffffffffffffffffffffffffffffff1673ffffffffffffffffffffffffffffffffffffffff168152602001600560008873ffffffffffffffffffffffffffffffffffffffff1673ffffffffffffffffffffffffffffffffffffffff1681526020019081526020016000208681548110611747576117466145e5565b5b90600052602060002090600802016003018054611763906146bd565b80601f016020809104026020016040519081016040528092919081815260200182805461178f906146bd565b80156117dc5780601f106117b1576101008083540402835291602001916117dc565b820191906000526020600020905b8154815290600101906020018083116117bf57829003601f168201915b50505050508152602001600560008873ffffffffffffffffffffffffffffffffffffffff1673ffffffffffffffffffffffffffffffffffffffff1681526020019081526020016000208681548110611837576118366145e5565b5b90600052602060002090600802016004016040518060400160405290816000820160009054906101000a900473ffffffffffffffffffffffffffffffffffffffff1673ffffffffffffffffffffffffffffffffffffffff1673ffffffffffffffffffffffffffffffffffffffff1681526020016001820180546118b9906146bd565b80601f01602080910402602001604051908101604052809291908181526020018280546118e5906146bd565b80156119325780601f1061190757610100808354040283529160200191611932565b820191906000526020600020905b81548152906001019060200180831161191557829003601f168201915b5050505050815250508152602001600560008873ffffffffffffffffffffffffffffffffffffffff1673ffffffffffffffffffffffffffffffffffffffff1681526020019081526020016000208681548110611991576119906145e5565b5b906000526020600020906008020160060180546119ad906146bd565b80601f01602080910402602001604051908101604052809291908181526020018280546119d9906146bd565b8015611a265780601f106119fb57610100808354040283529160200191611a26565b820191906000526020600020905b815481529060010190602001808311611a0957829003601f168201915b505050505081526020018481525090508115611b6757600560008673ffffffffffffffffffffffffffffffffffffffff1673ffffffffffffffffffffffffffffffffffffffff1681526020019081526020016000208481548110611a8d57611a8c6145e5565b5b90600052602060002090600802016000808201600090556001820160006101000a81549073ffffffffffffffffffffffffffffffffffffffff02191690556002820160006101000a81549073ffffffffffffffffffffffffffffffffffffffff0219169055600382016000611b0291906137f8565b60048201600080820160006101000a81549073ffffffffffffffffffffffffffffffffffffffff0219169055600182016000611b3e9190613838565b5050600682016000611b5091906137f8565b600782016000611b6091906137f8565b5050611d29565b80600560008773ffffffffffffffffffffffffffffffffffffffff1673ffffffffffffffffffffffffffffffffffffffff1681526020019081526020016000208581548110611bb957611bb86145e5565b5b90600052602060002090600802016000820151816000015560208201518160010160006101000a81548173ffffffffffffffffffffffffffffffffffffffff021916908373ffffffffffffffffffffffffffffffffffffffff16021790555060408201518160020160006101000a81548173ffffffffffffffffffffffffffffffffffffffff021916908373ffffffffffffffffffffffffffffffffffffffff1602179055506060820151816003019080519060200190611c7b929190613878565b5060808201518160040160008201518160000160006101000a81548173ffffffffffffffffffffffffffffffffffffffff021916908373ffffffffffffffffffffffffffffffffffffffff1602179055506020820151816001019080519060200190611ce8929190613772565b50505060a0820151816006019080519060200190611d07929190613878565b5060c0820151816007019080519060200190611d24929190613878565b509050505b7fd87358bdb9fb3fd22dc44bf9aec10b565d35f5b8c903db24b4addfb35594895c85604051611d589190614951565b60405180910390a15050505050565b600060019054906101000a900460ff16611d8f5760008054906101000a900460ff1615611d98565b611d97613702565b5b611dd7576040517f08c379a0000000000000000000000000000000000000000000000000000000008152600401611dce906149f1565b60405180910390fd5b60008060019054906101000a900460ff161590508015611e27576001600060016101000a81548160ff02191690831515021790555060016000806101000a81548160ff0219169083151502179055505b600b60149054906101000a900460ff1615611e77576040517f08c379a0000000000000000000000000000000000000000000000000000000008152600401611e6e90614a83565b60405180910390fd5b33600b60006101000a81548173ffffffffffffffffffffffffffffffffffffffff021916908373ffffffffffffffffffffffffffffffffffffffff1602179055506001600b60146101000a81548160ff02191690831515021790555060006008819055508015611efc5760008060016101000a81548160ff0219169083151502179055505b50565b6000600b60009054906101000a900473ffffffffffffffffffffffffffffffffffffffff16905090565b6000600b60009054906101000a900473ffffffffffffffffffffffffffffffffffffffff1673ffffffffffffffffffffffffffffffffffffffff163373ffffffffffffffffffffffffffffffffffffffff1614611fbb576040517f08c379a0000000000000000000000000000000000000000000000000000000008152600401611fb290614369565b60405180910390fd5b8383836000808290506000600460008773ffffffffffffffffffffffffffffffffffffffff1673ffffffffffffffffffffffffffffffffffffffff1681526020019081526020016000208054905090505b600081111561216757821580156120e55750600060026000600460008a73ffffffffffffffffffffffffffffffffffffffff1673ffffffffffffffffffffffffffffffffffffffff1681526020019081526020016000208481548110612075576120746145e5565b5b906000526020600020906002020160000160009054906101000a900473ffffffffffffffffffffffffffffffffffffffff1673ffffffffffffffffffffffffffffffffffffffff1673ffffffffffffffffffffffffffffffffffffffff1681526020019081526020016000205414155b1561215457600460008773ffffffffffffffffffffffffffffffffffffffff1673ffffffffffffffffffffffffffffffffffffffff168152602001908152602001600020818154811061213b5761213a6145e5565b5b9060005260206000209060020201600101549150600192505b808061215f90614aa3565b91505061200c565b5060006001600460008873ffffffffffffffffffffffffffffffffffffffff1673ffffffffffffffffffffffffffffffffffffffff168152602001908152602001600020805490506121b99190614acd565b90506000600460008873ffffffffffffffffffffffffffffffffffffffff1673ffffffffffffffffffffffffffffffffffffffff168152602001908152602001600020828154811061220e5761220d6145e5565b5b9060005260206000209060020201600101549050600081148061223f5750846301dfe2008261223d9190614b01565b115b806122575750846276a700846122559190614b01565b105b612296576040517f08c379a000000000000000000000000000000000000000000000000000000000815260040161228d90614ba3565b60405180910390fd5b600060405180604001604052808d73ffffffffffffffffffffffffffffffffffffffff1681526020018b8152509050600460008d73ffffffffffffffffffffffffffffffffffffffff1673ffffffffffffffffffffffffffffffffffffffff16815260200190815260200160002081908060018154018082558091505060019003906000526020600020906002020160009091909190915060008201518160000160006101000a81548173ffffffffffffffffffffffffffffffffffffffff021916908373ffffffffffffffffffffffffffffffffffffffff16021790555060208201518160010155505061238a8c613490565b985050505050505050509392505050565b6060600073ffffffffffffffffffffffffffffffffffffffff163373ffffffffffffffffffffffffffffffffffffffff16141561240d576040517f08c379a000000000000000000000000000000000000000000000000000000000815260040161240490614c0f565b60405180910390fd5b600b60009054906101000a900473ffffffffffffffffffffffffffffffffffffffff1673ffffffffffffffffffffffffffffffffffffffff163373ffffffffffffffffffffffffffffffffffffffff1614156124a0576040518060400160405280600581526020017f6f776e657200000000000000000000000000000000000000000000000000000081525090506125e1565b6000600260003373ffffffffffffffffffffffffffffffffffffffff1673ffffffffffffffffffffffffffffffffffffffff1681526020019081526020016000205414612524576040518060400160405280600a81526020017f737562736372696265720000000000000000000000000000000000000000000081525090506125e1565b6000600360003373ffffffffffffffffffffffffffffffffffffffff1673ffffffffffffffffffffffffffffffffffffffff16815260200190815260200160002054146125a8576040518060400160405280600881526020017f636f6e73756d657200000000000000000000000000000000000000000000000081525090506125e1565b6040518060400160405280600781526020017f756e6b6e6f776e0000000000000000000000000000000000000000000000000081525090505b90565b60006125ef82613713565b9050919050565b600080600260003373ffffffffffffffffffffffffffffffffffffffff1673ffffffffffffffffffffffffffffffffffffffff16815260200190815260200160002054141561267a576040517f08c379a000000000000000000000000000000000000000000000000000000000815260040161267190614441565b60405180910390fd5b81600b60009054906101000a900473ffffffffffffffffffffffffffffffffffffffff1673ffffffffffffffffffffffffffffffffffffffff168173ffffffffffffffffffffffffffffffffffffffff161461270b576040517f08c379a000000000000000000000000000000000000000000000000000000000815260040161270290614c7b565b60405180910390fd5b66038d7ea4c68000803373ffffffffffffffffffffffffffffffffffffffff16311161276c576040517f08c379a000000000000000000000000000000000000000000000000000000000815260040161276390614ce7565b60405180910390fd5b600060405180604001604052803373ffffffffffffffffffffffffffffffffffffffff168152602001878152509050600460008873ffffffffffffffffffffffffffffffffffffffff1673ffffffffffffffffffffffffffffffffffffffff16815260200190815260200160002081908060018154018082558091505060019003906000526020600020906002020160009091909190915060008201518160000160006101000a81548173ffffffffffffffffffffffffffffffffffffffff021916908373ffffffffffffffffffffffffffffffffffffffff16021790555060208201518160010155505061286087613490565b93505050509392505050565b60008162278d008461287e9190614b01565b1061288c5760019050612891565b600090505b92915050565b60606000600360003373ffffffffffffffffffffffffffffffffffffffff1673ffffffffffffffffffffffffffffffffffffffff16815260200190815260200160002054141561291c576040517f08c379a0000000000000000000000000000000000000000000000000000000008152600401612913906143d5565b60405180910390fd5b600060405180602001604052806000815250905060005b600460003373ffffffffffffffffffffffffffffffffffffffff1673ffffffffffffffffffffffffffffffffffffffff16815260200190815260200160002080549050811015612a9a5781600460003373ffffffffffffffffffffffffffffffffffffffff1673ffffffffffffffffffffffffffffffffffffffff16815260200190815260200160002082815481106129cf576129ce6145e5565b5b906000526020600020906002020160000160009054906101000a900473ffffffffffffffffffffffffffffffffffffffff16600460003373ffffffffffffffffffffffffffffffffffffffff1673ffffffffffffffffffffffffffffffffffffffff1681526020019081526020016000208381548110612a5257612a516145e5565b5b906000526020600020906002020160010154604051602001612a7693929190614d07565b60405160208183030381529060405291508080612a92906144fc565b915050612933565b508091505090565b6000600b60009054906101000a900473ffffffffffffffffffffffffffffffffffffffff1673ffffffffffffffffffffffffffffffffffffffff163373ffffffffffffffffffffffffffffffffffffffff1614612b34576040517f08c379a0000000000000000000000000000000000000000000000000000000008152600401612b2b90614369565b60405180910390fd5b6000805b600560008573ffffffffffffffffffffffffffffffffffffffff1673ffffffffffffffffffffffffffffffffffffffff168152602001908152602001600020805490508110156131be5760006040518060e00160405280600560008873ffffffffffffffffffffffffffffffffffffffff1673ffffffffffffffffffffffffffffffffffffffff1681526020019081526020016000208481548110612be057612bdf6145e5565b5b9060005260206000209060080201600001548152602001600560008873ffffffffffffffffffffffffffffffffffffffff1673ffffffffffffffffffffffffffffffffffffffff1681526020019081526020016000208481548110612c4857612c476145e5565b5b906000526020600020906008020160010160009054906101000a900473ffffffffffffffffffffffffffffffffffffffff1673ffffffffffffffffffffffffffffffffffffffff168152602001600560008873ffffffffffffffffffffffffffffffffffffffff1673ffffffffffffffffffffffffffffffffffffffff1681526020019081526020016000208481548110612ce657612ce56145e5565b5b906000526020600020906008020160020160009054906101000a900473ffffffffffffffffffffffffffffffffffffffff1673ffffffffffffffffffffffffffffffffffffffff168152602001600560008873ffffffffffffffffffffffffffffffffffffffff1673ffffffffffffffffffffffffffffffffffffffff1681526020019081526020016000208481548110612d8457612d836145e5565b5b90600052602060002090600802016003018054612da0906146bd565b80601f0160208091040260200160405190810160405280929190818152602001828054612dcc906146bd565b8015612e195780601f10612dee57610100808354040283529160200191612e19565b820191906000526020600020905b815481529060010190602001808311612dfc57829003601f168201915b50505050508152602001600560008873ffffffffffffffffffffffffffffffffffffffff1673ffffffffffffffffffffffffffffffffffffffff1681526020019081526020016000208481548110612e7457612e736145e5565b5b90600052602060002090600802016004016040518060400160405290816000820160009054906101000a900473ffffffffffffffffffffffffffffffffffffffff1673ffffffffffffffffffffffffffffffffffffffff1673ffffffffffffffffffffffffffffffffffffffff168152602001600182018054612ef6906146bd565b80601f0160208091040260200160405190810160405280929190818152602001828054612f22906146bd565b8015612f6f5780601f10612f4457610100808354040283529160200191612f6f565b820191906000526020600020905b815481529060010190602001808311612f5257829003601f168201915b5050505050815250508152602001600560008873ffffffffffffffffffffffffffffffffffffffff1673ffffffffffffffffffffffffffffffffffffffff1681526020019081526020016000208481548110612fce57612fcd6145e5565b5b90600052602060002090600802016006018054612fea906146bd565b80601f0160208091040260200160405190810160405280929190818152602001828054613016906146bd565b80156130635780601f1061303857610100808354040283529160200191613063565b820191906000526020600020905b81548152906001019060200180831161304657829003601f168201915b50505050508152602001600560008873ffffffffffffffffffffffffffffffffffffffff1673ffffffffffffffffffffffffffffffffffffffff16815260200190815260200160002084815481106130be576130bd6145e5565b5b906000526020600020906008020160070180546130da906146bd565b80601f0160208091040260200160405190810160405280929190818152602001828054613106906146bd565b80156131535780601f1061312857610100808354040283529160200191613153565b820191906000526020600020905b81548152906001019060200180831161313657829003601f168201915b505050505081525090508281600001518260200151836040015184606001518560a001518660c001516040516020016131929796959493929190614df9565b6040516020818303038152906040528051906020012092505080806131b6906144fc565b915050612b38565b5080915050919050565b600b60009054906101000a900473ffffffffffffffffffffffffffffffffffffffff1673ffffffffffffffffffffffffffffffffffffffff163373ffffffffffffffffffffffffffffffffffffffff1614613258576040517f08c379a000000000000000000000000000000000000000000000000000000000815260040161324f90614369565b60405180910390fd5b816000805b6006805490508110156132f4578273ffffffffffffffffffffffffffffffffffffffff1660068281548110613295576132946145e5565b5b9060005260206000200160009054906101000a900473ffffffffffffffffffffffffffffffffffffffff1673ffffffffffffffffffffffffffffffffffffffff1614156132e157600191505b80806132ec906144fc565b91505061325d565b50600015158115151461333c576040517f08c379a000000000000000000000000000000000000000000000000000000000815260040161333390614ed0565b60405180910390fd5b600073ffffffffffffffffffffffffffffffffffffffff168473ffffffffffffffffffffffffffffffffffffffff1614156133ac576040517f08c379a00000000000000000000000000000000000000000000000000000000081526004016133a3906144ad565b60405180910390fd5b82600260008673ffffffffffffffffffffffffffffffffffffffff1673ffffffffffffffffffffffffffffffffffffffff168152602001908152602001600020819055506006849080600181540180825580915050600190039060005260206000200160009091909190916101000a81548173ffffffffffffffffffffffffffffffffffffffff021916908373ffffffffffffffffffffffffffffffffffffffff1602179055507fae28b319183e2d4a0f4721e7fc4bb1c25a05610d1e2efb85b10dfbf7bbf4761b846040516134829190614f3c565b60405180910390a150505050565b60008060005b600160008573ffffffffffffffffffffffffffffffffffffffff1673ffffffffffffffffffffffffffffffffffffffff168152602001908152602001600020805490508110156136035781600160008673ffffffffffffffffffffffffffffffffffffffff1673ffffffffffffffffffffffffffffffffffffffff1681526020019081526020016000208281548110613532576135316145e5565b5b906000526020600020906002020160000160009054906101000a900473ffffffffffffffffffffffffffffffffffffffff16600160008773ffffffffffffffffffffffffffffffffffffffff1673ffffffffffffffffffffffffffffffffffffffff16815260200190815260200160002083815481106135b5576135b46145e5565b5b90600052602060002090600202016001016040516020016135d89392919061504a565b60405160208183030381529060405280519060200120915080806135fb906144fc565b915050613496565b5080915050919050565b6060600160008473ffffffffffffffffffffffffffffffffffffffff1673ffffffffffffffffffffffffffffffffffffffff16815260200190815260200160002082815481106136605761365f6145e5565b5b9060005260206000209060020201600101805461367c906146bd565b80601f01602080910402602001604051908101604052809291908181526020018280546136a8906146bd565b80156136f55780601f106136ca576101008083540402835291602001916136f5565b820191906000526020600020905b8154815290600101906020018083116136d857829003601f168201915b5050505050905092915050565b600061370d3061375f565b15905090565b6000600160008373ffffffffffffffffffffffffffffffffffffffff1673ffffffffffffffffffffffffffffffffffffffff168152602001908152602001600020805490509050919050565b600080823b905060008111915050919050565b82805461377e906146bd565b90600052602060002090601f0160209004810192826137a057600085556137e7565b82601f106137b957805160ff19168380011785556137e7565b828001600101855582156137e7579182015b828111156137e65782518255916020019190600101906137cb565b5b5090506137f491906138fe565b5090565b508054613804906146bd565b6000825580601f106138165750613835565b601f01602090049060005260206000209081019061383491906138fe565b5b50565b508054613844906146bd565b6000825580601f106138565750613875565b601f01602090049060005260206000209081019061387491906138fe565b5b50565b828054613884906146bd565b90600052602060002090601f0160209004810192826138a657600085556138ed565b82601f106138bf57805160ff19168380011785556138ed565b828001600101855582156138ed579182015b828111156138ec5782518255916020019190600101906138d1565b5b5090506138fa91906138fe565b5090565b5b808211156139175760008160009055506001016138ff565b5090565b600081519050919050565b600082825260208201905092915050565b6000819050602082019050919050565b6000819050919050565b61395a81613947565b82525050565b600061396c8383613951565b60208301905092915050565b6000602082019050919050565b60006139908261391b565b61399a8185613926565b93506139a583613937565b8060005b838110156139d65781516139bd8882613960565b97506139c883613978565b9250506001810190506139a9565b5085935050505092915050565b600060208201905081810360008301526139fd8184613985565b905092915050565b6000819050919050565b613a1881613a05565b82525050565b6000602082019050613a336000830184613a0f565b92915050565b600081519050919050565b600082825260208201905092915050565b6000819050602082019050919050565b600073ffffffffffffffffffffffffffffffffffffffff82169050919050565b6000613a9082613a65565b9050919050565b613aa081613a85565b82525050565b6000613ab28383613a97565b60208301905092915050565b6000602082019050919050565b6000613ad682613a39565b613ae08185613a44565b9350613aeb83613a55565b8060005b83811015613b1c578151613b038882613aa6565b9750613b0e83613abe565b925050600181019050613aef565b5085935050505092915050565b60006020820190508181036000830152613b438184613acb565b905092915050565b6000604051905090565b600080fd5b600080fd5b613b6881613a05565b8114613b7357600080fd5b50565b600081359050613b8581613b5f565b92915050565b600060208284031215613ba157613ba0613b55565b5b6000613baf84828501613b76565b91505092915050565b613bc181613947565b82525050565b6000602082019050613bdc6000830184613bb8565b92915050565b613beb81613a85565b8114613bf657600080fd5b50565b600081359050613c0881613be2565b92915050565b600080fd5b600080fd5b6000601f19601f8301169050919050565b7f4e487b7100000000000000000000000000000000000000000000000000000000600052604160045260246000fd5b613c6182613c18565b810181811067ffffffffffffffff82111715613c8057613c7f613c29565b5b80604052505050565b6000613c93613b4b565b9050613c9f8282613c58565b919050565b600067ffffffffffffffff821115613cbf57613cbe613c29565b5b613cc882613c18565b9050602081019050919050565b82818337600083830152505050565b6000613cf7613cf284613ca4565b613c89565b905082815260208101848484011115613d1357613d12613c13565b5b613d1e848285613cd5565b509392505050565b600082601f830112613d3b57613d3a613c0e565b5b8135613d4b848260208601613ce4565b91505092915050565b60008060408385031215613d6b57613d6a613b55565b5b6000613d7985828601613bf9565b925050602083013567ffffffffffffffff811115613d9a57613d99613b5a565b5b613da685828601613d26565b9150509250929050565b60008060408385031215613dc757613dc6613b55565b5b6000613dd585828601613bf9565b9250506020613de685828601613b76565b9150509250929050565b600067ffffffffffffffff821115613e0b57613e0a613c29565b5b613e1482613c18565b9050602081019050919050565b6000613e34613e2f84613df0565b613c89565b905082815260208101848484011115613e5057613e4f613c13565b5b613e5b848285613cd5565b509392505050565b600082601f830112613e7857613e77613c0e565b5b8135613e88848260208601613e21565b91505092915050565b60008060008060808587031215613eab57613eaa613b55565b5b6000613eb987828801613bf9565b9450506020613eca87828801613b76565b935050604085013567ffffffffffffffff811115613eeb57613eea613b5a565b5b613ef787828801613e63565b925050606085013567ffffffffffffffff811115613f1857613f17613b5a565b5b613f2487828801613e63565b91505092959194509250565b600060208284031215613f4657613f45613b55565b5b6000613f5484828501613bf9565b91505092915050565b613f6681613947565b8114613f7157600080fd5b50565b600081359050613f8381613f5d565b92915050565b60008060408385031215613fa057613f9f613b55565b5b6000613fae85828601613bf9565b9250506020613fbf85828601613f74565b9150509250929050565b600081519050919050565b600082825260208201905092915050565b60005b83811015614003578082015181840152602081019050613fe8565b83811115614012576000848401525b50505050565b600061402382613fc9565b61402d8185613fd4565b935061403d818560208601613fe5565b61404681613c18565b840191505092915050565b6000602082019050818103600083015261406b8184614018565b905092915050565b60008115159050919050565b61408881614073565b811461409357600080fd5b50565b6000813590506140a58161407f565b92915050565b600080600080608085870312156140c5576140c4613b55565b5b60006140d387828801613bf9565b94505060206140e487828801613b76565b935050604085013567ffffffffffffffff81111561410557614104613b5a565b5b61411187828801613e63565b925050606061412287828801614096565b91505092959194509250565b61413781613a85565b82525050565b6000602082019050614152600083018461412e565b92915050565b60008060006060848603121561417157614170613b55565b5b600061417f86828701613bf9565b935050602061419086828701613bf9565b92505060406141a186828701613b76565b9150509250925092565b600081519050919050565b600082825260208201905092915050565b60006141d2826141ab565b6141dc81856141b6565b93506141ec818560208601613fe5565b6141f581613c18565b840191505092915050565b6000602082019050818103600083015261421a81846141c7565b905092915050565b600061422d82613a65565b9050919050565b61423d81614222565b811461424857600080fd5b50565b60008135905061425a81614234565b92915050565b60008060006060848603121561427957614278613b55565b5b600061428786828701613bf9565b935050602061429886828701613b76565b92505060406142a98682870161424b565b9150509250925092565b600080604083850312156142ca576142c9613b55565b5b60006142d885828601613b76565b92505060206142e985828601613b76565b9150509250929050565b6142fc81614073565b82525050565b600060208201905061431760008301846142f3565b92915050565b7f6163636573732064656e69656420666f72206f776e6572000000000000000000600082015250565b60006143536017836141b6565b915061435e8261431d565b602082019050919050565b6000602082019050818103600083015261438281614346565b9050919050565b7f6163636573732064656e69656420666f7220636f6e73756d6572000000000000600082015250565b60006143bf601a836141b6565b91506143ca82614389565b602082019050919050565b600060208201905081810360008301526143ee816143b2565b9050919050565b7f6163636573732064656e69656420666f72207375627363726962657200000000600082015250565b600061442b601c836141b6565b9150614436826143f5565b602082019050919050565b6000602082019050818103600083015261445a8161441e565b9050919050565b7f6d697373696e6720616464726573730000000000000000000000000000000000600082015250565b6000614497600f836141b6565b91506144a282614461565b602082019050919050565b600060208201905081810360008301526144c68161448a565b9050919050565b7f4e487b7100000000000000000000000000000000000000000000000000000000600052601160045260246000fd5b600061450782613a05565b91507fffffffffffffffffffffffffffffffffffffffffffffffffffffffffffffffff82141561453a576145396144cd565b5b600182019050919050565b7f6e6577206974656d2077617320616464656420746f20796f7572207265706f7260008201527f7400000000000000000000000000000000000000000000000000000000000000602082015250565b60006145a16021836141b6565b91506145ac82614545565b604082019050919050565b60006040820190506145cc600083018461412e565b81810360208301526145dd81614594565b905092915050565b7f4e487b7100000000000000000000000000000000000000000000000000000000600052603260045260246000fd5b7f646973707574652064656c657465640000000000000000000000000000000000600082015250565b600061464a600f836141b6565b915061465582614614565b602082019050919050565b6000604082019050614675600083018461412e565b81810360208301526146868161463d565b905092915050565b7f4e487b7100000000000000000000000000000000000000000000000000000000600052602260045260246000fd5b600060028204905060018216806146d557607f821691505b602082108114156146e9576146e861468e565b5b50919050565b600081905092915050565b7f44697370757465204f70656e65643a0000000000000000000000000000000000600082015250565b6000614730600f836146ef565b915061473b826146fa565b600f82019050919050565b6000819050919050565b61476161475c82613a05565b614746565b82525050565b60008160601b9050919050565b600061477f82614767565b9050919050565b600061479182614774565b9050919050565b6147a96147a482613a85565b614786565b82525050565b60006147ba826141ab565b6147c481856146ef565b93506147d4818560208601613fe5565b80840191505092915050565b600081905092915050565b60006147f682613fc9565b61480081856147e0565b9350614810818560208601613fe5565b80840191505092915050565b600061482782614723565b91506148338289614750565b6020820191506148438288614798565b6014820191506148538287614798565b60148201915061486382866147af565b915061486f82856147eb565b915061487b82846147af565b9150819050979650505050505050565b7f6e65772064697370757465206f70656e65640000000000000000000000000000600082015250565b60006148c16012836141b6565b91506148cc8261488b565b602082019050919050565b60006040820190506148ec600083018461412e565b81810360208301526148fd816148b4565b905092915050565b7f646973707574652066696e616c697a6564000000000000000000000000000000600082015250565b600061493b6011836141b6565b915061494682614905565b602082019050919050565b6000604082019050614966600083018461412e565b81810360208301526149778161492e565b905092915050565b7f496e697469616c697a61626c653a20636f6e747261637420697320616c72656160008201527f647920696e697469616c697a6564000000000000000000000000000000000000602082015250565b60006149db602e836141b6565b91506149e68261497f565b604082019050919050565b60006020820190508181036000830152614a0a816149ce565b9050919050565b7f436f6e747261637420696e7374616e63652068617320616c726561647920626560008201527f656e20696e697469616c697a6564000000000000000000000000000000000000602082015250565b6000614a6d602e836141b6565b9150614a7882614a11565b604082019050919050565b60006020820190508181036000830152614a9c81614a60565b9050919050565b6000614aae82613a05565b91506000821415614ac257614ac16144cd565b5b600182039050919050565b6000614ad882613a05565b9150614ae383613a05565b925082821015614af657614af56144cd565b5b828203905092915050565b6000614b0c82613a05565b9150614b1783613a05565b9250827fffffffffffffffffffffffffffffffffffffffffffffffffffffffffffffffff03821115614b4c57614b4b6144cd565b5b828201905092915050565b7f6e6f7420656c696769626c6520666f7220612066726565207265706f72740000600082015250565b6000614b8d601e836141b6565b9150614b9882614b57565b602082019050919050565b60006020820190508181036000830152614bbc81614b80565b9050919050565b7f6163636573732064656e69656420666f722073656e6465720000000000000000600082015250565b6000614bf96018836141b6565b9150614c0482614bc3565b602082019050919050565b60006020820190508181036000830152614c2881614bec565b9050919050565b7f6e6f7420746865206f776e657200000000000000000000000000000000000000600082015250565b6000614c65600d836141b6565b9150614c7082614c2f565b602082019050919050565b60006020820190508181036000830152614c9481614c58565b9050919050565b7f696e73756666696369656e742062616c616e63652f616d6f756e740000000000600082015250565b6000614cd1601b836141b6565b9150614cdc82614c9b565b602082019050919050565b60006020820190508181036000830152614d0081614cc4565b9050919050565b6000614d1382866147af565b9150614d1f8285614798565b601482019150614d2f8284614750565b602082019150819050949350505050565b6000819050919050565b614d5b614d5682613947565b614d40565b82525050565b7f5b00000000000000000000000000000000000000000000000000000000000000600082015250565b6000614d976001836146ef565b9150614da282614d61565b600182019050919050565b7f5d00000000000000000000000000000000000000000000000000000000000000600082015250565b6000614de36001836146ef565b9150614dee82614dad565b600182019050919050565b6000614e05828a614d4a565b602082019150614e1482614d8a565b9150614e208289614750565b602082019150614e308288614798565b601482019150614e408287614798565b601482019150614e5082866147af565b9150614e5c82856147af565b9150614e6882846147af565b9150614e7382614dd6565b915081905098975050505050505050565b7f7573657220697320616c72656164792061207375627363726962657200000000600082015250565b6000614eba601c836141b6565b9150614ec582614e84565b602082019050919050565b60006020820190508181036000830152614ee981614ead565b9050919050565b7f7375627363726962657220616464656400000000000000000000000000000000600082015250565b6000614f266010836141b6565b9150614f3182614ef0565b602082019050919050565b6000604082019050614f51600083018461412e565b8181036020830152614f6281614f19565b905092915050565b7f2c00000000000000000000000000000000000000000000000000000000000000600082015250565b6000614fa06001836146ef565b9150614fab82614f6a565b600182019050919050565b60008190508160005260206000209050919050565b60008154614fd8816146bd565b614fe281866147e0565b94506001821660008114614ffd576001811461500e57615041565b60ff19831686528186019350615041565b61501785614fb6565b60005b838110156150395781548189015260018201915060208101905061501a565b838801955050505b50505092915050565b60006150568286614d4a565b60208201915061506582614d8a565b91506150718285614798565b60148201915061508082614f93565b915061508c8284614fcb565b915061509782614f93565b91506150a282614dd6565b915081905094935050505056fea2646970667358221220501b83717fa6573f29b5d8ab18fd6454168c7923a92eeb5e4593b8dea3c9341564736f6c634300080a0033",
  "immutableReferences": {},
  "source": "// SPDX-License-Identifier: MIT\npragma solidity >=0.4.22 <0.9.0;\n\nimport \"../node_modules/@openzeppelin/contracts-upgradeable/proxy/utils/Initializable.sol\";\n\ncontract CreditReport is Initializable {\n  bytes32 constant private ZERO_BYTES = bytes32(0);\n  address constant private ZERO_ADDRESS = address(0);\n\n  struct Item {\n    string opendate;\n    string  description;\n    uint    amount;\n    uint    balance;\n    uint    limit;\n    string  paystatus;\n  }\n\n  struct ReportItem {\n    address subscriber;\n    bytes   item;\n  }\n\n  struct Inquiry {\n    address subscriber;\n    uint256 reqdate; // epoch timestamp\n  }\n\n  struct Dispute {\n    uint index;\n    address subscriber;\n    address consumer;\n    string  disputeDate;\n    ReportItem item;\n    string reason;\n    string status;\n  }\n\n  mapping(address => ReportItem[]) private reports;\n  mapping(address => uint256) private subscribers;\n\n  mapping(address => uint256) private consumers;\n  mapping(address => Inquiry[]) private inquiries;\n  mapping(address => Dispute[]) private disputes;\n\n  address[] private _subscribers;\n  address[] private _consumers;\n\n  uint total_consumers;\n\n  mapping (address => bytes32[]) message;\n\n  mapping (bytes => address) private _owner;\n\n  address private owner;\n  bool private initialized;\n\n  event SubscriberAdded(address addr, string message);\n  event SubscriberNotified(address addr, string message);\n  event ConsumerNotified(address addr, string message);\n\n  function initialize()\n    public\n    initializer\n  {\n    require(!initialized, \"Contract instance has already been initialized\");\n    owner = msg.sender;\n    initialized = true;\n    total_consumers = 0;\n  }\n\n  modifier onlyOwner() {\n    require(msg.sender == owner, \"access denied for owner\");\n    _;\n  }\n\n  modifier isOwner(address addr) {\n    require(addr == owner, \"not the owner\");\n    _;\n  }\n\n  modifier validSender() {\n    require(msg.sender != ZERO_ADDRESS,\"access denied for sender\");\n    _;\n  }\n\n  modifier onlySubscriber() {\n    require(subscribers[msg.sender] != 0, \"access denied for subscriber\");\n    _;\n  }\n\n  modifier onlyConsumer() {\n    require(consumers[msg.sender] != 0, \"access denied for consumer\");\n    _;\n  }\n\n  modifier alreadySubscriber(address addr) {\n    bool found = false;\n    for (uint i = 0; i < _subscribers.length; i++) {\n      if (_subscribers[i] == addr) {\n        found = true;\n      }\n    }\n    require(found == false, \"user is already a subscriber\");\n    _;\n  }\n\n  modifier alreadyConsumer(address addr) {\n    bool found = false;\n    for (uint i = 0; i < _consumers.length; i++) {\n      if (_consumers[i] == addr) {\n        found = true;\n      }\n    }\n    require(found == false, \"user is already a consumer\");\n    _;\n  }\n\n  /**\n   * A consumer is entitled\n   */\n  modifier freeReportCheck(address consumer, address subscriber, uint256 reqtime) {\n    bool found = false;\n    uint256 subscriber_lastreq = reqtime;\n    for (uint i = inquiries[consumer].length; i > 0; i--) {\n      if (!found && subscribers[inquiries[consumer][i].subscriber] != 0) {\n          subscriber_lastreq = inquiries[consumer][i].reqdate;\n          found = true;\n      }\n    }\n\n    uint consumer_total = inquiries[consumer].length - 1;\n    uint256 consumer_lastreq = inquiries[consumer][consumer_total].reqdate;\n    require(\n      consumer_lastreq == 0 || (consumer_lastreq + 52 weeks) > reqtime || (subscriber_lastreq + 90 days) < reqtime,\n     \"not eligible for a free report\");\n     _;\n  }\n\n  modifier requiresFee(uint fee) {\n    require(msg.sender.balance > fee, \"insufficient balance/amount\");\n    _;\n  }\n\n  /**\n   * retrieves the owner\n   */\n  function getOwner()\n    public\n    view\n    returns (address addr)\n  {\n    return owner;\n  }\n\n  function getUserRole()\n    public\n    view\n    validSender\n    returns (string memory)\n  {\n    if (msg.sender == owner) {\n      return string(\"owner\");\n    } else if (subscribers[msg.sender] != 0) {\n      return string(\"subscriber\");\n    } else if (consumers[msg.sender] != 0) {\n      return string(\"consumer\");\n    }\n    return string(\"unknown\");\n  }\n\n  /**\n   * adds a new subscriber\n   */\n  function addSubscriber(address addr, uint256 _type)\n  public\n  onlyOwner\n  alreadySubscriber(addr)\n  {\n    require(addr != ZERO_ADDRESS,\"missing address\");\n    subscribers[addr] = _type;\n    _subscribers.push(addr);\n    emit SubscriberAdded(addr, \"subscriber added\");\n  }\n\n  function getSubscribers()\n  public\n  view\n  onlyOwner\n  returns (address[] memory)\n  {\n    return _subscribers;\n  }\n\n  function getConsumers()\n  public\n  view\n  onlyOwner\n  returns (address[] memory)\n  {\n    return _consumers;\n  }\n\n  /**\n   * adds an item to the consumer report by an existing subscriber, must contain the minimum:\n   *    subscriber, open date, amount, description, balance, limit, payment status\n   */\n  function addConsumerItem(address consumer, bytes memory item)\n    public\n    onlySubscriber\n  {\n    require(consumer != ZERO_ADDRESS,\"missing address\");\n    if (consumers[consumer] == 0) {\n      consumers[consumer] = 1;\n      _consumers.push(consumer);\n      total_consumers++;\n    }\n    ReportItem memory ritem = ReportItem(msg.sender, item);\n    reports[consumer].push(ritem);\n    emit ConsumerNotified(consumer, \"new item was added to your report\");\n  }\n\n  function getConsumerReportTotal(address consumer)\n    public\n    view\n    returns (uint)\n  {\n    return _reportItemsTotal(consumer);\n  }\n\n  function getConsumerReportItem(address consumer,uint index)\n    public\n    view\n    returns (bytes memory)\n  {\n    return _reportItem(consumer, index);\n  }\n  /**\n   * retrieves consumer report by a subscriber, fee is paid to the owner\n   */\n  function getConsumerReport(address consumer, uint reqtime, address payable to)\n    public\n    payable\n    onlySubscriber\n    isOwner(to)\n    requiresFee(0.001 ether)\n    returns (bytes32)\n  {\n    //to.transfer(0.001 ether);\n    Inquiry memory inquiry = Inquiry(msg.sender, reqtime);\n    inquiries[consumer].push(inquiry);\n    return _report(consumer);\n  }\n\n  /**\n   * When the consumer is not entitled to a free annual report\n   */\n  function getCreditReport(uint256 reqtime)\n    public\n    payable\n    onlyConsumer\n    returns (bytes32)\n  {\n    Inquiry memory inquiry = Inquiry(msg.sender, reqtime);\n    inquiries[msg.sender].push(inquiry);\n    return _report(msg.sender);\n  }\n\n  /**\n   * retrieves consumer report for the consumer by the owner so the consumer does not incur gas fees.\n   * to abide by law and allow free credit report to the consumer, cannot change the state on the contract,\n   * otherwise the method must pay gas fee. By not recording consumer self requests in the contract, keeps\n   * this function free.\n   */\n  function getFreeCreditReport(address consumer, address subscriber, uint256 reqtime)\n    public\n    payable\n    onlyOwner\n    freeReportCheck(consumer, subscriber, reqtime)\n    returns (bytes32)\n  {\n    Inquiry memory inquiry = Inquiry(consumer, reqtime);\n    inquiries[consumer].push(inquiry);\n    return _report(consumer);\n  }\n\n\n  function getInquiries()\n    public\n    view\n    onlyConsumer\n    returns (string memory)\n  {\n    string memory output = \"\";\n    for (uint i = 0; i < inquiries[msg.sender].length; i++) {\n      output = string(\n        abi.encodePacked(\n          output,\n          inquiries[msg.sender][i].subscriber,\n          inquiries[msg.sender][i].reqdate\n        )\n      );\n    }\n    return output;\n  }\n\n  /**\n   * because open dispute changes the state of the contract, gas fees applies,\n   * hence the consumer must start a dispute offline, and send to the owner to create a dispute and the owner pays the gas fee\n   */\n  function openDispute(address consumer, uint index, string memory disputeDate,string memory reason)\n    public\n    onlyOwner\n  {\n    ReportItem memory report = ReportItem(reports[consumer][index].subscriber,reports[consumer][index].item);\n    Dispute memory dispute = Dispute(index, report.subscriber, consumer, disputeDate, report, reason, \"\");\n    disputes[consumer].push(dispute);\n    message[report.subscriber].push(\n      keccak256(\n        abi.encodePacked(\n          \"Dispute Opened:\",\n          index,\n          report.subscriber,\n          consumer,\n          disputeDate,\n          report.item,\n          reason\n        )\n      )\n    );\n    emit SubscriberNotified(report.subscriber, \"new dispute opened\");\n  }\n\n  function finalizeDispute(address consumer,uint index,string memory status, bool purge)\n    public\n    onlySubscriber\n  {\n    Dispute memory dispute = Dispute(\n      index,\n      disputes[consumer][index].subscriber,\n      disputes[consumer][index].consumer,\n      disputes[consumer][index].disputeDate,\n      disputes[consumer][index].item,\n      disputes[consumer][index].reason,\n      status\n    );\n\n    if (purge) {\n      delete disputes[consumer][index];\n    } else {\n      disputes[consumer][index] = dispute;\n    }\n    emit ConsumerNotified(consumer, \"dispute finalized\");\n  }\n\n  function getReportsByConsumer(address consumer)\n    public\n    view\n    onlyOwner\n    returns (bytes32)\n  {\n    return _report(consumer);\n  }\n\n  function getBlocktime()\n    public\n    view\n    returns (uint256)\n  {\n    return block.timestamp;\n  }\n\n  /**\n   * The contract owner will pull a list of disputes,\n   * while iterating through each dispute,\n   * convert the disputeDate from ISO string to an epoch timestamp and get current time in epoch timestamp,\n   * check if the dispute is expired by more than 30 days from current time,\n   * if dispute is expired, delete the dispute and notifiy consumer\n   */\n  function getDisputes(address consumer)\n    public\n    view\n    onlyOwner\n    returns (bytes32)\n  {\n    bytes32 output = \"\";\n    for (uint i = 0; i < disputes[consumer].length; i++) {\n      Dispute memory _dispute = Dispute(\n        disputes[consumer][i].index,\n        disputes[consumer][i].subscriber,\n        disputes[consumer][i].consumer,\n        disputes[consumer][i].disputeDate,\n        disputes[consumer][i].item,\n        disputes[consumer][i].reason,\n        disputes[consumer][i].status\n      );\n      output = keccak256(\n        abi.encodePacked(\n          output,\n          \"[\",\n          _dispute.index,\n          _dispute.subscriber,\n          _dispute.consumer,\n          _dispute.disputeDate,\n          _dispute.reason,\n          _dispute.status,\n          \"]\"\n        )\n      );\n    }\n    return output;\n  }\n\n  /**\n   * The disputeDate is in ISO and must be converted to epoch timestamp before checking current time\n   * The currentTime is epoch timestamp provided by the caller\n   */\n  function checkExpiry(uint256 LastTimeStamp, uint256 currentTime)\n   public\n   pure\n   returns(bool success)\n  {\n    if (LastTimeStamp + 30 days >= currentTime) {\n      return true;\n    } else {\n      return false;\n    }\n  }\n\n  function purgeDispute(address consumer, uint index)\n    public\n    onlyOwner\n  {\n    delete disputes[consumer][index];\n    emit ConsumerNotified(consumer, \"dispute deleted\");\n  }\n\n  function sendMessage(address _recipient, bytes32 _message)\n    public\n  {\n    message[_recipient].push(_message);\n  }\n\n  function readMessage()\n    public\n    view\n    returns (bytes32[] memory)\n  {\n    return message[msg.sender];\n  }\n\n  /**\n   * Internal function to return credit report items by consumer\n   */\n  function _report(address consumer)\n    internal\n    view\n    returns (bytes32)\n  {\n    bytes32 output;\n    for (uint i = 0; i < reports[consumer].length; i++) {\n      output = keccak256(abi.encodePacked(\n        output, \"[\",\n          reports[consumer][i].subscriber, \",\",\n          reports[consumer][i].item, \",\",\n        \"]\"\n      ));\n    }\n    return output;\n  }\n\n  function _reportItem(address consumer, uint index)\n    internal\n    view\n    returns (bytes memory)\n  {\n    return reports[consumer][index].item;\n  }\n\n  function _reportItemsTotal(address consumer)\n    internal\n    view\n    returns (uint)\n  {\n    return reports[consumer].length;\n  }\n}\n",
  "sourcePath": "G:\\projects\\redeecash-cra-token\\contracts\\CreditReport.sol",
  "compiler": {
    "name": "solc",
    "version": "0.8.10+commit.fc410830.Emscripten.clang"
  },
  "schemaVersion": "3.4.3",
  "updatedAt": "2021-12-17T18:41:19.421Z",
  "networkType": "ethereum",
  "devdoc": {
    "kind": "dev",
    "methods": {},
    "version": 1
  },
  "userdoc": {
    "kind": "user",
    "methods": {
      "addConsumerItem(address,bytes)": {
        "notice": "adds an item to the consumer report by an existing subscriber, must contain the minimum:    subscriber, open date, amount, description, balance, limit, payment status"
      },
      "addSubscriber(address,uint256)": {
        "notice": "adds a new subscriber"
      },
      "checkExpiry(uint256,uint256)": {
        "notice": "The disputeDate is in ISO and must be converted to epoch timestamp before checking current time The currentTime is epoch timestamp provided by the caller"
      },
      "getConsumerReport(address,uint256,address)": {
        "notice": "retrieves consumer report by a subscriber, fee is paid to the owner"
      },
      "getCreditReport(uint256)": {
        "notice": "When the consumer is not entitled to a free annual report"
      },
      "getDisputes(address)": {
        "notice": "The contract owner will pull a list of disputes, while iterating through each dispute, convert the disputeDate from ISO string to an epoch timestamp and get current time in epoch timestamp, check if the dispute is expired by more than 30 days from current time, if dispute is expired, delete the dispute and notifiy consumer"
      },
      "getFreeCreditReport(address,address,uint256)": {
        "notice": "retrieves consumer report for the consumer by the owner so the consumer does not incur gas fees. to abide by law and allow free credit report to the consumer, cannot change the state on the contract, otherwise the method must pay gas fee. By not recording consumer self requests in the contract, keeps this function free."
      },
      "getOwner()": {
        "notice": "retrieves the owner"
      },
      "openDispute(address,uint256,string,string)": {
        "notice": "because open dispute changes the state of the contract, gas fees applies, hence the consumer must start a dispute offline, and send to the owner to create a dispute and the owner pays the gas fee"
      }
    },
    "version": 1
  }
}