{
  "contractName": "CreditReport",
  "abi": [
    {
      "inputs": [],
      "stateMutability": "nonpayable",
      "type": "constructor"
    },
    {
      "anonymous": false,
      "inputs": [
        {
          "indexed": false,
          "internalType": "address",
          "name": "addr",
          "type": "address"
        },
        {
          "indexed": false,
          "internalType": "string",
          "name": "message",
          "type": "string"
        }
      ],
      "name": "ConsumerNotified",
      "type": "event"
    },
    {
      "anonymous": false,
      "inputs": [
        {
          "indexed": false,
          "internalType": "address",
          "name": "addr",
          "type": "address"
        },
        {
          "indexed": false,
          "internalType": "string",
          "name": "message",
          "type": "string"
        }
      ],
      "name": "SubscriberAdded",
      "type": "event"
    },
    {
      "anonymous": false,
      "inputs": [
        {
          "indexed": false,
          "internalType": "address",
          "name": "addr",
          "type": "address"
        },
        {
          "indexed": false,
          "internalType": "string",
          "name": "message",
          "type": "string"
        }
      ],
      "name": "SubscriberNotified",
      "type": "event"
    },
    {
      "inputs": [],
      "name": "getOwner",
      "outputs": [
        {
          "internalType": "address",
          "name": "addr",
          "type": "address"
        }
      ],
      "stateMutability": "view",
      "type": "function",
      "constant": true
    },
    {
      "inputs": [
        {
          "internalType": "address",
          "name": "addr",
          "type": "address"
        },
        {
          "internalType": "uint256",
          "name": "_type",
          "type": "uint256"
        }
      ],
      "name": "addSubscriber",
      "outputs": [],
      "stateMutability": "nonpayable",
      "type": "function"
    },
    {
      "inputs": [],
      "name": "getSubscribers",
      "outputs": [
        {
          "internalType": "address[]",
          "name": "",
          "type": "address[]"
        }
      ],
      "stateMutability": "view",
      "type": "function",
      "constant": true
    },
    {
      "inputs": [],
      "name": "getConsumers",
      "outputs": [
        {
          "internalType": "address[]",
          "name": "",
          "type": "address[]"
        }
      ],
      "stateMutability": "view",
      "type": "function",
      "constant": true
    },
    {
      "inputs": [
        {
          "internalType": "address",
          "name": "consumer",
          "type": "address"
        },
        {
          "internalType": "bytes",
          "name": "item",
          "type": "bytes"
        }
      ],
      "name": "addConsumerItem",
      "outputs": [],
      "stateMutability": "nonpayable",
      "type": "function"
    },
    {
      "inputs": [
        {
          "internalType": "address",
          "name": "consumer",
          "type": "address"
        },
        {
          "internalType": "address payable",
          "name": "to",
          "type": "address"
        }
      ],
      "name": "getConsumerReport",
      "outputs": [
        {
          "internalType": "string",
          "name": "",
          "type": "string"
        }
      ],
      "stateMutability": "payable",
      "type": "function",
      "payable": true
    },
    {
      "inputs": [],
      "name": "getCreditReport",
      "outputs": [
        {
          "internalType": "string",
          "name": "",
          "type": "string"
        }
      ],
      "stateMutability": "nonpayable",
      "type": "function"
    },
    {
      "inputs": [
        {
          "internalType": "uint256",
          "name": "index",
          "type": "uint256"
        },
        {
          "internalType": "string",
          "name": "disputeDate",
          "type": "string"
        },
        {
          "internalType": "string",
          "name": "reason",
          "type": "string"
        }
      ],
      "name": "openDispute",
      "outputs": [],
      "stateMutability": "nonpayable",
      "type": "function"
    },
    {
      "inputs": [
        {
          "internalType": "address",
          "name": "consumer",
          "type": "address"
        },
        {
          "internalType": "uint256",
          "name": "index",
          "type": "uint256"
        },
        {
          "internalType": "string",
          "name": "status",
          "type": "string"
        },
        {
          "internalType": "bool",
          "name": "purge",
          "type": "bool"
        }
      ],
      "name": "finalizeDispute",
      "outputs": [],
      "stateMutability": "nonpayable",
      "type": "function"
    },
    {
      "inputs": [
        {
          "internalType": "address",
          "name": "consumer",
          "type": "address"
        }
      ],
      "name": "getReportsByConsumer",
      "outputs": [
        {
          "internalType": "string",
          "name": "",
          "type": "string"
        }
      ],
      "stateMutability": "view",
      "type": "function",
      "constant": true
    },
    {
      "inputs": [
        {
          "internalType": "address",
          "name": "consumer",
          "type": "address"
        }
      ],
      "name": "getDisputes",
      "outputs": [
        {
          "internalType": "string",
          "name": "",
          "type": "string"
        }
      ],
      "stateMutability": "view",
      "type": "function",
      "constant": true
    },
    {
      "inputs": [
        {
          "internalType": "uint256",
          "name": "LastTimeStamp",
          "type": "uint256"
        },
        {
          "internalType": "uint256",
          "name": "currentTime",
          "type": "uint256"
        }
      ],
      "name": "checkExpiry",
      "outputs": [
        {
          "internalType": "bool",
          "name": "success",
          "type": "bool"
        }
      ],
      "stateMutability": "pure",
      "type": "function",
      "constant": true
    },
    {
      "inputs": [
        {
          "internalType": "address",
          "name": "consumer",
          "type": "address"
        },
        {
          "internalType": "uint256",
          "name": "index",
          "type": "uint256"
        }
      ],
      "name": "purgeDispute",
      "outputs": [],
      "stateMutability": "nonpayable",
      "type": "function"
    },
    {
      "inputs": [
        {
          "internalType": "address",
          "name": "_recipient",
          "type": "address"
        },
        {
          "internalType": "string",
          "name": "_message",
          "type": "string"
        }
      ],
      "name": "sendMessage",
      "outputs": [],
      "stateMutability": "nonpayable",
      "type": "function"
    },
    {
      "inputs": [],
      "name": "readMessage",
      "outputs": [
        {
          "internalType": "string",
          "name": "",
          "type": "string"
        }
      ],
      "stateMutability": "view",
      "type": "function",
      "constant": true
    }
  ],
  "bytecode": "0x6080604052600060075534801561001557600080fd5b5033600a60006101000a81548173ffffffffffffffffffffffffffffffffffffffff021916908373ffffffffffffffffffffffffffffffffffffffff160217905550613eab806100666000396000f3fe6080604052600436106100e85760003560e01c806375cb1c431161008a578063d7fdd77011610059578063d7fdd770146102d5578063de6f24bb14610312578063e09ee3af1461033b578063f7bddce414610378576100e8565b806375cb1c431461022d578063893d20e814610256578063a4e18cd714610281578063b81b179f146102aa576100e8565b80633b729b86116100c65780633b729b861461016c5780633d5913ae146101975780635156cd42146101c05780636138d597146101f0576100e8565b8063031d5d01146100ed57806305cc61ad1461011857806338cf7a2714610143575b600080fd5b3480156100f957600080fd5b506101026103a1565b60405161010f9190612cfd565b60405180910390f35b34801561012457600080fd5b5061012d61052c565b60405161013a9190612e0f565b60405180910390f35b34801561014f57600080fd5b5061016a60048036038101906101659190612fa6565b61064a565b005b34801561017857600080fd5b50610181610948565b60405161018e9190612e0f565b60405180910390f35b3480156101a357600080fd5b506101be60048036038101906101b99190613038565b610a66565b005b6101da60048036038101906101d591906130b6565b610c57565b6040516101e79190612cfd565b60405180910390f35b3480156101fc57600080fd5b50610217600480360381019061021291906130f6565b610ecd565b6040516102249190612cfd565b60405180910390f35b34801561023957600080fd5b50610254600480360381019061024f91906131fc565b610f6f565b005b34801561026257600080fd5b5061026b6117b2565b604051610278919061328e565b60405180910390f35b34801561028d57600080fd5b506102a860048036038101906102a391906132a9565b6117dc565b005b3480156102b657600080fd5b506102bf611d27565b6040516102cc9190612cfd565b60405180910390f35b3480156102e157600080fd5b506102fc60048036038101906102f79190613334565b611ea6565b6040516103099190613383565b60405180910390f35b34801561031e57600080fd5b506103396004803603810190610334919061339e565b611ed1565b005b34801561034757600080fd5b50610362600480360381019061035d91906130f6565b611f4e565b60405161036f9190612cfd565b60405180910390f35b34801561038457600080fd5b5061039f600480360381019061039a9190613038565b612680565b005b6060600060405180602001604052806000815250905060005b600860003373ffffffffffffffffffffffffffffffffffffffff1673ffffffffffffffffffffffffffffffffffffffff16815260200190815260200160002080549050811015610524576000600860003373ffffffffffffffffffffffffffffffffffffffff1673ffffffffffffffffffffffffffffffffffffffff1681526020019081526020016000208281548110610457576104566133fa565b5b90600052602060002001805461046c90613458565b80601f016020809104026020016040519081016040528092919081815260200182805461049890613458565b80156104e55780601f106104ba576101008083540402835291602001916104e5565b820191906000526020600020905b8154815290600101906020018083116104c857829003601f168201915b5050505050905082816040516020016104ff92919061355e565b604051602081830303815290604052925050808061051c906135c7565b9150506103ba565b508091505090565b6060600a60009054906101000a900473ffffffffffffffffffffffffffffffffffffffff1673ffffffffffffffffffffffffffffffffffffffff163373ffffffffffffffffffffffffffffffffffffffff16146105be576040517f08c379a00000000000000000000000000000000000000000000000000000000081526004016105b59061365c565b60405180910390fd5b600580548060200260200160405190810160405280929190818152602001828054801561064057602002820191906000526020600020905b8160009054906101000a900473ffffffffffffffffffffffffffffffffffffffff1673ffffffffffffffffffffffffffffffffffffffff16815260200190600101908083116105f6575b5050505050905090565b6000600160003373ffffffffffffffffffffffffffffffffffffffff1673ffffffffffffffffffffffffffffffffffffffff1681526020019081526020016000205414156106cd576040517f08c379a00000000000000000000000000000000000000000000000000000000081526004016106c4906136c8565b60405180910390fd5b600073ffffffffffffffffffffffffffffffffffffffff168273ffffffffffffffffffffffffffffffffffffffff16141561073d576040517f08c379a000000000000000000000000000000000000000000000000000000000815260040161073490613734565b60405180910390fd5b6000600260008473ffffffffffffffffffffffffffffffffffffffff1673ffffffffffffffffffffffffffffffffffffffff168152602001908152602001600020541415610846576001600260008473ffffffffffffffffffffffffffffffffffffffff1673ffffffffffffffffffffffffffffffffffffffff168152602001908152602001600020819055506006829080600181540180825580915050600190039060005260206000200160009091909190916101000a81548173ffffffffffffffffffffffffffffffffffffffff021916908373ffffffffffffffffffffffffffffffffffffffff16021790555060076000815480929190610840906135c7565b91905055505b600060405180604001604052803373ffffffffffffffffffffffffffffffffffffffff1681526020018381525090506000808473ffffffffffffffffffffffffffffffffffffffff1673ffffffffffffffffffffffffffffffffffffffff16815260200190815260200160002081908060018154018082558091505060019003906000526020600020906002020160009091909190915060008201518160000160006101000a81548173ffffffffffffffffffffffffffffffffffffffff021916908373ffffffffffffffffffffffffffffffffffffffff1602179055506020820151816001019080519060200190610940929190612abb565b505050505050565b6060600a60009054906101000a900473ffffffffffffffffffffffffffffffffffffffff1673ffffffffffffffffffffffffffffffffffffffff163373ffffffffffffffffffffffffffffffffffffffff16146109da576040517f08c379a00000000000000000000000000000000000000000000000000000000081526004016109d19061365c565b60405180910390fd5b6006805480602002602001604051908101604052809291908181526020018280548015610a5c57602002820191906000526020600020905b8160009054906101000a900473ffffffffffffffffffffffffffffffffffffffff1673ffffffffffffffffffffffffffffffffffffffff1681526020019060010190808311610a12575b5050505050905090565b600a60009054906101000a900473ffffffffffffffffffffffffffffffffffffffff1673ffffffffffffffffffffffffffffffffffffffff163373ffffffffffffffffffffffffffffffffffffffff1614610af6576040517f08c379a0000000000000000000000000000000000000000000000000000000008152600401610aed9061365c565b60405180910390fd5b600460008373ffffffffffffffffffffffffffffffffffffffff1673ffffffffffffffffffffffffffffffffffffffff1681526020019081526020016000208181548110610b4757610b466133fa565b5b90600052602060002090600802016000808201600090556001820160006101000a81549073ffffffffffffffffffffffffffffffffffffffff02191690556002820160006101000a81549073ffffffffffffffffffffffffffffffffffffffff0219169055600382016000610bbc9190612b41565b60048201600080820160006101000a81549073ffffffffffffffffffffffffffffffffffffffff0219169055600182016000610bf89190612b81565b5050600682016000610c0a9190612b41565b600782016000610c1a9190612b41565b50507fd87358bdb9fb3fd22dc44bf9aec10b565d35f5b8c903db24b4addfb35594895c82604051610c4b91906137a0565b60405180910390a15050565b60606000600160003373ffffffffffffffffffffffffffffffffffffffff1673ffffffffffffffffffffffffffffffffffffffff168152602001908152602001600020541415610cdc576040517f08c379a0000000000000000000000000000000000000000000000000000000008152600401610cd3906136c8565b60405180910390fd5b81600a60009054906101000a900473ffffffffffffffffffffffffffffffffffffffff1673ffffffffffffffffffffffffffffffffffffffff168173ffffffffffffffffffffffffffffffffffffffff1614610d6d576040517f08c379a0000000000000000000000000000000000000000000000000000000008152600401610d649061381a565b60405180910390fd5b66038d7ea4c68000803373ffffffffffffffffffffffffffffffffffffffff163111610dce576040517f08c379a0000000000000000000000000000000000000000000000000000000008152600401610dc590613886565b60405180910390fd5b600060405180604001604052803373ffffffffffffffffffffffffffffffffffffffff168152602001428152509050600360008773ffffffffffffffffffffffffffffffffffffffff1673ffffffffffffffffffffffffffffffffffffffff16815260200190815260200160002081908060018154018082558091505060019003906000526020600020906002020160009091909190915060008201518160000160006101000a81548173ffffffffffffffffffffffffffffffffffffffff021916908373ffffffffffffffffffffffffffffffffffffffff160217905550602082015181600101555050610ec286612948565b935050505092915050565b6060600a60009054906101000a900473ffffffffffffffffffffffffffffffffffffffff1673ffffffffffffffffffffffffffffffffffffffff163373ffffffffffffffffffffffffffffffffffffffff1614610f5f576040517f08c379a0000000000000000000000000000000000000000000000000000000008152600401610f569061365c565b60405180910390fd5b610f6882612948565b9050919050565b6000600160003373ffffffffffffffffffffffffffffffffffffffff1673ffffffffffffffffffffffffffffffffffffffff168152602001908152602001600020541415610ff2576040517f08c379a0000000000000000000000000000000000000000000000000000000008152600401610fe9906136c8565b60405180910390fd5b60006040518060e00160405280858152602001600460008873ffffffffffffffffffffffffffffffffffffffff1673ffffffffffffffffffffffffffffffffffffffff1681526020019081526020016000208681548110611056576110556133fa565b5b906000526020600020906008020160010160009054906101000a900473ffffffffffffffffffffffffffffffffffffffff1673ffffffffffffffffffffffffffffffffffffffff168152602001600460008873ffffffffffffffffffffffffffffffffffffffff1673ffffffffffffffffffffffffffffffffffffffff16815260200190815260200160002086815481106110f4576110f36133fa565b5b906000526020600020906008020160020160009054906101000a900473ffffffffffffffffffffffffffffffffffffffff1673ffffffffffffffffffffffffffffffffffffffff168152602001600460008873ffffffffffffffffffffffffffffffffffffffff1673ffffffffffffffffffffffffffffffffffffffff1681526020019081526020016000208681548110611192576111916133fa565b5b906000526020600020906008020160030180546111ae90613458565b80601f01602080910402602001604051908101604052809291908181526020018280546111da90613458565b80156112275780601f106111fc57610100808354040283529160200191611227565b820191906000526020600020905b81548152906001019060200180831161120a57829003601f168201915b50505050508152602001600460008873ffffffffffffffffffffffffffffffffffffffff1673ffffffffffffffffffffffffffffffffffffffff1681526020019081526020016000208681548110611282576112816133fa565b5b90600052602060002090600802016004016040518060400160405290816000820160009054906101000a900473ffffffffffffffffffffffffffffffffffffffff1673ffffffffffffffffffffffffffffffffffffffff1673ffffffffffffffffffffffffffffffffffffffff16815260200160018201805461130490613458565b80601f016020809104026020016040519081016040528092919081815260200182805461133090613458565b801561137d5780601f106113525761010080835404028352916020019161137d565b820191906000526020600020905b81548152906001019060200180831161136057829003601f168201915b5050505050815250508152602001600460008873ffffffffffffffffffffffffffffffffffffffff1673ffffffffffffffffffffffffffffffffffffffff16815260200190815260200160002086815481106113dc576113db6133fa565b5b906000526020600020906008020160060180546113f890613458565b80601f016020809104026020016040519081016040528092919081815260200182805461142490613458565b80156114715780601f1061144657610100808354040283529160200191611471565b820191906000526020600020905b81548152906001019060200180831161145457829003601f168201915b5050505050815260200184815250905081156115b257600460008673ffffffffffffffffffffffffffffffffffffffff1673ffffffffffffffffffffffffffffffffffffffff16815260200190815260200160002084815481106114d8576114d76133fa565b5b90600052602060002090600802016000808201600090556001820160006101000a81549073ffffffffffffffffffffffffffffffffffffffff02191690556002820160006101000a81549073ffffffffffffffffffffffffffffffffffffffff021916905560038201600061154d9190612b41565b60048201600080820160006101000a81549073ffffffffffffffffffffffffffffffffffffffff02191690556001820160006115899190612b81565b505060068201600061159b9190612b41565b6007820160006115ab9190612b41565b5050611774565b80600460008773ffffffffffffffffffffffffffffffffffffffff1673ffffffffffffffffffffffffffffffffffffffff1681526020019081526020016000208581548110611604576116036133fa565b5b90600052602060002090600802016000820151816000015560208201518160010160006101000a81548173ffffffffffffffffffffffffffffffffffffffff021916908373ffffffffffffffffffffffffffffffffffffffff16021790555060408201518160020160006101000a81548173ffffffffffffffffffffffffffffffffffffffff021916908373ffffffffffffffffffffffffffffffffffffffff16021790555060608201518160030190805190602001906116c6929190612bc1565b5060808201518160040160008201518160000160006101000a81548173ffffffffffffffffffffffffffffffffffffffff021916908373ffffffffffffffffffffffffffffffffffffffff1602179055506020820151816001019080519060200190611733929190612abb565b50505060a0820151816006019080519060200190611752929190612bc1565b5060c082015181600701908051906020019061176f929190612bc1565b509050505b7fd87358bdb9fb3fd22dc44bf9aec10b565d35f5b8c903db24b4addfb35594895c856040516117a391906138f2565b60405180910390a15050505050565b6000600a60009054906101000a900473ffffffffffffffffffffffffffffffffffffffff16905090565b6000600260003373ffffffffffffffffffffffffffffffffffffffff1673ffffffffffffffffffffffffffffffffffffffff16815260200190815260200160002054141561185f576040517f08c379a00000000000000000000000000000000000000000000000000000000081526004016118569061396c565b60405180910390fd5b600060405180604001604052806000803373ffffffffffffffffffffffffffffffffffffffff1673ffffffffffffffffffffffffffffffffffffffff16815260200190815260200160002086815481106118bc576118bb6133fa565b5b906000526020600020906002020160000160009054906101000a900473ffffffffffffffffffffffffffffffffffffffff1673ffffffffffffffffffffffffffffffffffffffff1681526020016000803373ffffffffffffffffffffffffffffffffffffffff1673ffffffffffffffffffffffffffffffffffffffff1681526020019081526020016000208681548110611959576119586133fa565b5b9060005260206000209060020201600101805461197590613458565b80601f01602080910402602001604051908101604052809291908181526020018280546119a190613458565b80156119ee5780601f106119c3576101008083540402835291602001916119ee565b820191906000526020600020905b8154815290600101906020018083116119d157829003601f168201915b5050505050815250905060006040518060e00160405280868152602001836000015173ffffffffffffffffffffffffffffffffffffffff1681526020013373ffffffffffffffffffffffffffffffffffffffff168152602001858152602001838152602001848152602001604051806020016040528060008152508152509050600460003373ffffffffffffffffffffffffffffffffffffffff1673ffffffffffffffffffffffffffffffffffffffff1681526020019081526020016000208190806001815401808255809150506001900390600052602060002090600802016000909190919091506000820151816000015560208201518160010160006101000a81548173ffffffffffffffffffffffffffffffffffffffff021916908373ffffffffffffffffffffffffffffffffffffffff16021790555060408201518160020160006101000a81548173ffffffffffffffffffffffffffffffffffffffff021916908373ffffffffffffffffffffffffffffffffffffffff1602179055506060820151816003019080519060200190611b8b929190612bc1565b5060808201518160040160008201518160000160006101000a81548173ffffffffffffffffffffffffffffffffffffffff021916908373ffffffffffffffffffffffffffffffffffffffff1602179055506020820151816001019080519060200190611bf8929190612abb565b50505060a0820151816006019080519060200190611c17929190612bc1565b5060c0820151816007019080519060200190611c34929190612bc1565b50505060086000836000015173ffffffffffffffffffffffffffffffffffffffff1673ffffffffffffffffffffffffffffffffffffffff1681526020019081526020016000208583600001513387866020015188604051602001611c9d96959493929190613a88565b604051602081830303815290604052908060018154018082558091505060019003906000526020600020016000909190919091509080519060200190611ce4929190612bc1565b507fde371f040710867afadb0d380ec315de30e2cdd4edd5062dd8c82c7418784ad78260000151604051611d189190613b43565b60405180910390a15050505050565b60606000600260003373ffffffffffffffffffffffffffffffffffffffff1673ffffffffffffffffffffffffffffffffffffffff168152602001908152602001600020541415611dac576040517f08c379a0000000000000000000000000000000000000000000000000000000008152600401611da39061396c565b60405180910390fd5b600060405180604001604052803373ffffffffffffffffffffffffffffffffffffffff168152602001428152509050600360003373ffffffffffffffffffffffffffffffffffffffff1673ffffffffffffffffffffffffffffffffffffffff16815260200190815260200160002081908060018154018082558091505060019003906000526020600020906002020160009091909190915060008201518160000160006101000a81548173ffffffffffffffffffffffffffffffffffffffff021916908373ffffffffffffffffffffffffffffffffffffffff160217905550602082015181600101555050611ea033612948565b91505090565b60008162278d0084611eb89190613b71565b10611ec65760019050611ecb565b600090505b92915050565b600860008373ffffffffffffffffffffffffffffffffffffffff1673ffffffffffffffffffffffffffffffffffffffff16815260200190815260200160002081908060018154018082558091505060019003906000526020600020016000909190919091509080519060200190611f49929190612bc1565b505050565b6060600a60009054906101000a900473ffffffffffffffffffffffffffffffffffffffff1673ffffffffffffffffffffffffffffffffffffffff163373ffffffffffffffffffffffffffffffffffffffff1614611fe0576040517f08c379a0000000000000000000000000000000000000000000000000000000008152600401611fd79061365c565b60405180910390fd5b600060405180602001604052806000815250905060005b600460008573ffffffffffffffffffffffffffffffffffffffff1673ffffffffffffffffffffffffffffffffffffffff168152602001908152602001600020805490508110156126765760006040518060e00160405280600460008873ffffffffffffffffffffffffffffffffffffffff1673ffffffffffffffffffffffffffffffffffffffff168152602001908152602001600020848154811061209f5761209e6133fa565b5b9060005260206000209060080201600001548152602001600460008873ffffffffffffffffffffffffffffffffffffffff1673ffffffffffffffffffffffffffffffffffffffff1681526020019081526020016000208481548110612107576121066133fa565b5b906000526020600020906008020160010160009054906101000a900473ffffffffffffffffffffffffffffffffffffffff1673ffffffffffffffffffffffffffffffffffffffff168152602001600460008873ffffffffffffffffffffffffffffffffffffffff1673ffffffffffffffffffffffffffffffffffffffff16815260200190815260200160002084815481106121a5576121a46133fa565b5b906000526020600020906008020160020160009054906101000a900473ffffffffffffffffffffffffffffffffffffffff1673ffffffffffffffffffffffffffffffffffffffff168152602001600460008873ffffffffffffffffffffffffffffffffffffffff1673ffffffffffffffffffffffffffffffffffffffff1681526020019081526020016000208481548110612243576122426133fa565b5b9060005260206000209060080201600301805461225f90613458565b80601f016020809104026020016040519081016040528092919081815260200182805461228b90613458565b80156122d85780601f106122ad576101008083540402835291602001916122d8565b820191906000526020600020905b8154815290600101906020018083116122bb57829003601f168201915b50505050508152602001600460008873ffffffffffffffffffffffffffffffffffffffff1673ffffffffffffffffffffffffffffffffffffffff1681526020019081526020016000208481548110612333576123326133fa565b5b90600052602060002090600802016004016040518060400160405290816000820160009054906101000a900473ffffffffffffffffffffffffffffffffffffffff1673ffffffffffffffffffffffffffffffffffffffff1673ffffffffffffffffffffffffffffffffffffffff1681526020016001820180546123b590613458565b80601f01602080910402602001604051908101604052809291908181526020018280546123e190613458565b801561242e5780601f106124035761010080835404028352916020019161242e565b820191906000526020600020905b81548152906001019060200180831161241157829003601f168201915b5050505050815250508152602001600460008873ffffffffffffffffffffffffffffffffffffffff1673ffffffffffffffffffffffffffffffffffffffff168152602001908152602001600020848154811061248d5761248c6133fa565b5b906000526020600020906008020160060180546124a990613458565b80601f01602080910402602001604051908101604052809291908181526020018280546124d590613458565b80156125225780601f106124f757610100808354040283529160200191612522565b820191906000526020600020905b81548152906001019060200180831161250557829003601f168201915b50505050508152602001600460008873ffffffffffffffffffffffffffffffffffffffff1673ffffffffffffffffffffffffffffffffffffffff168152602001908152602001600020848154811061257d5761257c6133fa565b5b9060005260206000209060080201600701805461259990613458565b80601f01602080910402602001604051908101604052809291908181526020018280546125c590613458565b80156126125780601f106125e757610100808354040283529160200191612612565b820191906000526020600020905b8154815290600101906020018083116125f557829003601f168201915b505050505081525090508281600001518260200151836040015184606001518560a001518660c001516040516020016126519796959493929190613bc7565b604051602081830303815290604052925050808061266e906135c7565b915050611ff7565b5080915050919050565b600a60009054906101000a900473ffffffffffffffffffffffffffffffffffffffff1673ffffffffffffffffffffffffffffffffffffffff163373ffffffffffffffffffffffffffffffffffffffff1614612710576040517f08c379a00000000000000000000000000000000000000000000000000000000081526004016127079061365c565b60405180910390fd5b816000805b6005805490508110156127ac578273ffffffffffffffffffffffffffffffffffffffff166005828154811061274d5761274c6133fa565b5b9060005260206000200160009054906101000a900473ffffffffffffffffffffffffffffffffffffffff1673ffffffffffffffffffffffffffffffffffffffff16141561279957600191505b80806127a4906135c7565b915050612715565b5060001515811515146127f4576040517f08c379a00000000000000000000000000000000000000000000000000000000081526004016127eb90613c9a565b60405180910390fd5b600073ffffffffffffffffffffffffffffffffffffffff168473ffffffffffffffffffffffffffffffffffffffff161415612864576040517f08c379a000000000000000000000000000000000000000000000000000000000815260040161285b90613734565b60405180910390fd5b82600160008673ffffffffffffffffffffffffffffffffffffffff1673ffffffffffffffffffffffffffffffffffffffff168152602001908152602001600020819055506005849080600181540180825580915050600190039060005260206000200160009091909190916101000a81548173ffffffffffffffffffffffffffffffffffffffff021916908373ffffffffffffffffffffffffffffffffffffffff1602179055507fae28b319183e2d4a0f4721e7fc4bb1c25a05610d1e2efb85b10dfbf7bbf4761b8460405161293a9190613d06565b60405180910390a150505050565b60608060005b6000808573ffffffffffffffffffffffffffffffffffffffff1673ffffffffffffffffffffffffffffffffffffffff16815260200190815260200160002080549050811015612ab157816000808673ffffffffffffffffffffffffffffffffffffffff1673ffffffffffffffffffffffffffffffffffffffff16815260200190815260200160002082815481106129e8576129e76133fa565b5b906000526020600020906002020160000160009054906101000a900473ffffffffffffffffffffffffffffffffffffffff166000808773ffffffffffffffffffffffffffffffffffffffff1673ffffffffffffffffffffffffffffffffffffffff1681526020019081526020016000208381548110612a6a57612a696133fa565b5b9060005260206000209060020201600101604051602001612a8d93929190613e14565b60405160208183030381529060405291508080612aa9906135c7565b91505061294e565b5080915050919050565b828054612ac790613458565b90600052602060002090601f016020900481019282612ae95760008555612b30565b82601f10612b0257805160ff1916838001178555612b30565b82800160010185558215612b30579182015b82811115612b2f578251825591602001919060010190612b14565b5b509050612b3d9190612c47565b5090565b508054612b4d90613458565b6000825580601f10612b5f5750612b7e565b601f016020900490600052602060002090810190612b7d9190612c47565b5b50565b508054612b8d90613458565b6000825580601f10612b9f5750612bbe565b601f016020900490600052602060002090810190612bbd9190612c47565b5b50565b828054612bcd90613458565b90600052602060002090601f016020900481019282612bef5760008555612c36565b82601f10612c0857805160ff1916838001178555612c36565b82800160010185558215612c36579182015b82811115612c35578251825591602001919060010190612c1a565b5b509050612c439190612c47565b5090565b5b80821115612c60576000816000905550600101612c48565b5090565b600081519050919050565b600082825260208201905092915050565b60005b83811015612c9e578082015181840152602081019050612c83565b83811115612cad576000848401525b50505050565b6000601f19601f8301169050919050565b6000612ccf82612c64565b612cd98185612c6f565b9350612ce9818560208601612c80565b612cf281612cb3565b840191505092915050565b60006020820190508181036000830152612d178184612cc4565b905092915050565b600081519050919050565b600082825260208201905092915050565b6000819050602082019050919050565b600073ffffffffffffffffffffffffffffffffffffffff82169050919050565b6000612d7682612d4b565b9050919050565b612d8681612d6b565b82525050565b6000612d988383612d7d565b60208301905092915050565b6000602082019050919050565b6000612dbc82612d1f565b612dc68185612d2a565b9350612dd183612d3b565b8060005b83811015612e02578151612de98882612d8c565b9750612df483612da4565b925050600181019050612dd5565b5085935050505092915050565b60006020820190508181036000830152612e298184612db1565b905092915050565b6000604051905090565b600080fd5b600080fd5b612e4e81612d6b565b8114612e5957600080fd5b50565b600081359050612e6b81612e45565b92915050565b600080fd5b600080fd5b7f4e487b7100000000000000000000000000000000000000000000000000000000600052604160045260246000fd5b612eb382612cb3565b810181811067ffffffffffffffff82111715612ed257612ed1612e7b565b5b80604052505050565b6000612ee5612e31565b9050612ef18282612eaa565b919050565b600067ffffffffffffffff821115612f1157612f10612e7b565b5b612f1a82612cb3565b9050602081019050919050565b82818337600083830152505050565b6000612f49612f4484612ef6565b612edb565b905082815260208101848484011115612f6557612f64612e76565b5b612f70848285612f27565b509392505050565b600082601f830112612f8d57612f8c612e71565b5b8135612f9d848260208601612f36565b91505092915050565b60008060408385031215612fbd57612fbc612e3b565b5b6000612fcb85828601612e5c565b925050602083013567ffffffffffffffff811115612fec57612feb612e40565b5b612ff885828601612f78565b9150509250929050565b6000819050919050565b61301581613002565b811461302057600080fd5b50565b6000813590506130328161300c565b92915050565b6000806040838503121561304f5761304e612e3b565b5b600061305d85828601612e5c565b925050602061306e85828601613023565b9150509250929050565b600061308382612d4b565b9050919050565b61309381613078565b811461309e57600080fd5b50565b6000813590506130b08161308a565b92915050565b600080604083850312156130cd576130cc612e3b565b5b60006130db85828601612e5c565b92505060206130ec858286016130a1565b9150509250929050565b60006020828403121561310c5761310b612e3b565b5b600061311a84828501612e5c565b91505092915050565b600067ffffffffffffffff82111561313e5761313d612e7b565b5b61314782612cb3565b9050602081019050919050565b600061316761316284613123565b612edb565b90508281526020810184848401111561318357613182612e76565b5b61318e848285612f27565b509392505050565b600082601f8301126131ab576131aa612e71565b5b81356131bb848260208601613154565b91505092915050565b60008115159050919050565b6131d9816131c4565b81146131e457600080fd5b50565b6000813590506131f6816131d0565b92915050565b6000806000806080858703121561321657613215612e3b565b5b600061322487828801612e5c565b945050602061323587828801613023565b935050604085013567ffffffffffffffff81111561325657613255612e40565b5b61326287828801613196565b9250506060613273878288016131e7565b91505092959194509250565b61328881612d6b565b82525050565b60006020820190506132a3600083018461327f565b92915050565b6000806000606084860312156132c2576132c1612e3b565b5b60006132d086828701613023565b935050602084013567ffffffffffffffff8111156132f1576132f0612e40565b5b6132fd86828701613196565b925050604084013567ffffffffffffffff81111561331e5761331d612e40565b5b61332a86828701613196565b9150509250925092565b6000806040838503121561334b5761334a612e3b565b5b600061335985828601613023565b925050602061336a85828601613023565b9150509250929050565b61337d816131c4565b82525050565b60006020820190506133986000830184613374565b92915050565b600080604083850312156133b5576133b4612e3b565b5b60006133c385828601612e5c565b925050602083013567ffffffffffffffff8111156133e4576133e3612e40565b5b6133f085828601613196565b9150509250929050565b7f4e487b7100000000000000000000000000000000000000000000000000000000600052603260045260246000fd5b7f4e487b7100000000000000000000000000000000000000000000000000000000600052602260045260246000fd5b6000600282049050600182168061347057607f821691505b6020821081141561348457613483613429565b5b50919050565b600081905092915050565b60006134a082612c64565b6134aa818561348a565b93506134ba818560208601612c80565b80840191505092915050565b7f5b00000000000000000000000000000000000000000000000000000000000000600082015250565b60006134fc60018361348a565b9150613507826134c6565b600182019050919050565b7f5d00000000000000000000000000000000000000000000000000000000000000600082015250565b600061354860018361348a565b915061355382613512565b600182019050919050565b600061356a8285613495565b9150613575826134ef565b91506135818284613495565b915061358c8261353b565b91508190509392505050565b7f4e487b7100000000000000000000000000000000000000000000000000000000600052601160045260246000fd5b60006135d282613002565b91507fffffffffffffffffffffffffffffffffffffffffffffffffffffffffffffffff82141561360557613604613598565b5b600182019050919050565b7f6163636573732064656e69656420666f72206f776e6572000000000000000000600082015250565b6000613646601783612c6f565b915061365182613610565b602082019050919050565b6000602082019050818103600083015261367581613639565b9050919050565b7f6163636573732064656e69656420666f72207375627363726962657200000000600082015250565b60006136b2601c83612c6f565b91506136bd8261367c565b602082019050919050565b600060208201905081810360008301526136e1816136a5565b9050919050565b7f6d697373696e6720616464726573730000000000000000000000000000000000600082015250565b600061371e600f83612c6f565b9150613729826136e8565b602082019050919050565b6000602082019050818103600083015261374d81613711565b9050919050565b7f646973707574652064656c657465640000000000000000000000000000000000600082015250565b600061378a600f83612c6f565b915061379582613754565b602082019050919050565b60006040820190506137b5600083018461327f565b81810360208301526137c68161377d565b905092915050565b7f6e6f7420746865206f776e657200000000000000000000000000000000000000600082015250565b6000613804600d83612c6f565b915061380f826137ce565b602082019050919050565b60006020820190508181036000830152613833816137f7565b9050919050565b7f696e73756666696369656e742062616c616e63652f616d6f756e740000000000600082015250565b6000613870601b83612c6f565b915061387b8261383a565b602082019050919050565b6000602082019050818103600083015261389f81613863565b9050919050565b7f646973707574652066696e616c697a6564000000000000000000000000000000600082015250565b60006138dc601183612c6f565b91506138e7826138a6565b602082019050919050565b6000604082019050613907600083018461327f565b8181036020830152613918816138cf565b905092915050565b7f6163636573732064656e69656420666f7220636f6e73756d6572000000000000600082015250565b6000613956601a83612c6f565b915061396182613920565b602082019050919050565b6000602082019050818103600083015261398581613949565b9050919050565b7f44697370757465204f70656e65643a0000000000000000000000000000000000600082015250565b60006139c2600f8361348a565b91506139cd8261398c565b600f82019050919050565b6000819050919050565b6139f36139ee82613002565b6139d8565b82525050565b60008160601b9050919050565b6000613a11826139f9565b9050919050565b6000613a2382613a06565b9050919050565b613a3b613a3682612d6b565b613a18565b82525050565b600081519050919050565b600081905092915050565b6000613a6282613a41565b613a6c8185613a4c565b9350613a7c818560208601612c80565b80840191505092915050565b6000613a93826139b5565b9150613a9f82896139e2565b602082019150613aaf8288613a2a565b601482019150613abf8287613a2a565b601482019150613acf8286613495565b9150613adb8285613a57565b9150613ae78284613495565b9150819050979650505050505050565b7f6e65772064697370757465206f70656e65640000000000000000000000000000600082015250565b6000613b2d601283612c6f565b9150613b3882613af7565b602082019050919050565b6000604082019050613b58600083018461327f565b8181036020830152613b6981613b20565b905092915050565b6000613b7c82613002565b9150613b8783613002565b9250827fffffffffffffffffffffffffffffffffffffffffffffffffffffffffffffffff03821115613bbc57613bbb613598565b5b828201905092915050565b6000613bd3828a613495565b9150613bde826134ef565b9150613bea82896139e2565b602082019150613bfa8288613a2a565b601482019150613c0a8287613a2a565b601482019150613c1a8286613495565b9150613c268285613495565b9150613c328284613495565b9150613c3d8261353b565b915081905098975050505050505050565b7f7573657220697320616c72656164792061207375627363726962657200000000600082015250565b6000613c84601c83612c6f565b9150613c8f82613c4e565b602082019050919050565b60006020820190508181036000830152613cb381613c77565b9050919050565b7f7375627363726962657220616464656400000000000000000000000000000000600082015250565b6000613cf0601083612c6f565b9150613cfb82613cba565b602082019050919050565b6000604082019050613d1b600083018461327f565b8181036020830152613d2c81613ce3565b905092915050565b7f2c00000000000000000000000000000000000000000000000000000000000000600082015250565b6000613d6a60018361348a565b9150613d7582613d34565b600182019050919050565b60008190508160005260206000209050919050565b60008154613da281613458565b613dac8186613a4c565b94506001821660008114613dc75760018114613dd857613e0b565b60ff19831686528186019350613e0b565b613de185613d80565b60005b83811015613e0357815481890152600182019150602081019050613de4565b838801955050505b50505092915050565b6000613e208286613495565b9150613e2b826134ef565b9150613e378285613a2a565b601482019150613e4682613d5d565b9150613e528284613d95565b9150613e5d82613d5d565b9150613e688261353b565b915081905094935050505056fea264697066735822122037a5ff51a4b3079344789a49309004c98c1e89073e6e62a77a8b1ac39e3d176a64736f6c634300080a0033",
  "immutableReferences": {},
  "source": "// SPDX-License-Identifier: MIT\npragma solidity >=0.4.22 <0.9.0;\n\ncontract CreditReport {\n  bytes32 constant private ZERO_BYTES = bytes32(0);\n  address constant private ZERO_ADDRESS = address(0);\n\n  struct Item {\n    string opendate;\n    string  description;\n    uint    amount;\n    uint    balance;\n    uint    limit;\n    string  paystatus;\n  }\n\n  struct ReportItem {\n    address subscriber;\n    bytes   item;\n  }\n\n  struct Inquiry {\n    address subscriber;\n    uint256 reqdate;\n  }\n\n  struct Dispute {\n    uint index;\n    address subscriber;\n    address consumer;\n    string  disputeDate;\n    ReportItem item;\n    string reason;\n    string status;\n  }\n\n  mapping(address => ReportItem[]) private reports;\n  mapping(address => uint256) private subscribers;\n\n  mapping(address => uint256) private consumers;\n  mapping(address => Inquiry[]) private inquiries;\n  mapping(address => Dispute[]) private disputes;\n\n  address[] private _subscribers;\n  address[] private _consumers;\n\n  uint total_consumers = 0;\n\n  mapping (address => string[]) message;\n\n  mapping (bytes => address) private _owner;\n\n  address private owner;\n\n  event SubscriberAdded(address addr, string message);\n  event SubscriberNotified(address addr, string message);\n  event ConsumerNotified(address addr, string message);\n\n  constructor()\n  {\n    owner = msg.sender;\n  }\n\n  modifier onlyOwner() {\n    require(msg.sender == owner, \"access denied for owner\");\n    _;\n  }\n\n  modifier isOwner(address addr) {\n    require(addr == owner, \"not the owner\");\n    _;\n  }\n\n  modifier validSender() {\n    require(msg.sender != ZERO_ADDRESS,\"access denied for sender\");\n    _;\n  }\n\n  modifier onlySubscriber() {\n    require(subscribers[msg.sender] != 0, \"access denied for subscriber\");\n    _;\n  }\n\n  modifier onlyConsumer() {\n    require(consumers[msg.sender] != 0, \"access denied for consumer\");\n    _;\n  }\n\n  modifier alreadySubscriber(address addr) {\n    bool found = false;\n    for (uint i = 0; i < _subscribers.length; i++) {\n      if (_subscribers[i] == addr) {\n        found = true;\n      }\n    }\n    require(found == false, \"user is already a subscriber\");\n    _;\n  }\n\n  modifier alreadyConsumer(address addr) {\n    bool found = false;\n    for (uint i = 0; i < _consumers.length; i++) {\n      if (_consumers[i] == addr) {\n        found = true;\n      }\n    }\n    require(found == false, \"user is already a consumer\");\n    _;\n  }\n\n  modifier requiresFee(uint fee) {\n    require(msg.sender.balance > fee, \"insufficient balance/amount\");\n    _;\n  }\n\n  /**\n   * retrieves the owner\n   */\n  function getOwner()\n    public\n    view\n    returns (address addr)\n  {\n    return owner;\n  }\n\n  /**\n   * adds a new subscriber\n   */\n  function addSubscriber(address addr, uint256 _type)\n  public\n  onlyOwner\n  alreadySubscriber(addr)\n  {\n    require(addr != ZERO_ADDRESS,\"missing address\");\n    subscribers[addr] = _type;\n    _subscribers.push(addr);\n    emit SubscriberAdded(addr, \"subscriber added\");\n  }\n\n  function getSubscribers()\n  public\n  view\n  onlyOwner\n  returns (address[] memory)\n  {\n    return _subscribers;\n  }\n\n  function getConsumers()\n  public\n  view\n  onlyOwner\n  returns (address[] memory)\n  {\n    return _consumers;\n  }\n\n  /**\n   * adds an item to the consumer report by an existing subscriber, must contain the minimum:\n   *    subscriber, open date, amount, description, balance, limit, payment status\n   */\n  function addConsumerItem(address consumer, bytes memory item)\n    public\n    onlySubscriber\n  {\n    require(consumer != ZERO_ADDRESS,\"missing address\");\n    if (consumers[consumer] == 0) {\n      consumers[consumer] = 1;\n      _consumers.push(consumer);\n      total_consumers++;\n    }\n    ReportItem memory ritem = ReportItem(msg.sender, item);\n    reports[consumer].push(ritem);\n  }\n\n  /**\n   * retrieves consumer report by a subscriber, fee is paid to the owner\n   */\n  function getConsumerReport(address consumer, address payable to)\n    public\n    payable\n    onlySubscriber\n    isOwner(to)\n    requiresFee(0.001 ether)\n    returns (string memory)\n  {\n    //to.transfer(0.001 ether);\n    Inquiry memory inquiry = Inquiry(msg.sender, block.timestamp);\n    inquiries[consumer].push(inquiry);\n    return _report(consumer);\n  }\n\n  /**\n   * retrieves consumer report by the consumer, no fees\n   */\n  function getCreditReport()\n    public\n    onlyConsumer\n    returns (string memory)\n  {\n    Inquiry memory inquiry = Inquiry(msg.sender, block.timestamp);\n    inquiries[msg.sender].push(inquiry);\n    return _report(msg.sender);\n  }\n\n  function openDispute(uint index, string memory disputeDate,string memory reason)\n    public\n    onlyConsumer\n  {\n    ReportItem memory report = ReportItem(reports[msg.sender][index].subscriber,reports[msg.sender][index].item);\n    Dispute memory dispute = Dispute(index, report.subscriber, msg.sender, disputeDate, report, reason, \"\");\n    disputes[msg.sender].push(dispute);\n    message[report.subscriber].push(\n      string(\n        abi.encodePacked(\n          \"Dispute Opened:\",\n          index,\n          report.subscriber,\n          msg.sender,\n          disputeDate,\n          report.item,\n          reason\n        )\n      )\n    );\n    emit SubscriberNotified(report.subscriber, \"new dispute opened\");\n  }\n\n  function finalizeDispute(address consumer,uint index,string memory status, bool purge)\n    public\n    onlySubscriber\n  {\n    Dispute memory dispute = Dispute(\n      index,\n      disputes[consumer][index].subscriber,\n      disputes[consumer][index].consumer,\n      disputes[consumer][index].disputeDate,\n      disputes[consumer][index].item,\n      disputes[consumer][index].reason,\n      status\n    );\n\n    if (purge) {\n      delete disputes[consumer][index];\n    } else {\n      disputes[consumer][index] = dispute;\n    }\n    emit ConsumerNotified(consumer, \"dispute finalized\");\n  }\n\n  function getReportsByConsumer(address consumer)\n    public\n    view\n    onlyOwner\n    returns (string memory)\n  {\n    return _report(consumer);\n  }\n\n  /**\n   * The contract owner will pull a list of disputes,\n   * while iterating through each dispute,\n   * convert the disputeDate from ISO string to an epoch timestamp and get current time in epoch timestamp,\n   * check if the dispute is expired by more than 30 days from current time,\n   * if dispute is expired, delete the dispute and notifiy consumer\n   */\n  function getDisputes(address consumer)\n    public\n    view\n    onlyOwner\n    returns (string memory)\n  {\n    string memory output = \"\";\n    for (uint i = 0; i < disputes[consumer].length; i++) {\n      Dispute memory _dispute = Dispute(\n        disputes[consumer][i].index,\n        disputes[consumer][i].subscriber,\n        disputes[consumer][i].consumer,\n        disputes[consumer][i].disputeDate,\n        disputes[consumer][i].item,\n        disputes[consumer][i].reason,\n        disputes[consumer][i].status\n      );\n      output = string(\n        abi.encodePacked(\n          output,\n          \"[\",\n          _dispute.index,\n          _dispute.subscriber,\n          _dispute.consumer,\n          _dispute.disputeDate,\n          _dispute.reason,\n          _dispute.status,\n          \"]\"\n        )\n      );\n    }\n    return output;\n  }\n\n  /**\n   * The disputeDate is in ISO and must be converted to epoch timestamp before checking current time\n   * The currentTime is epoch timestamp provided by the caller\n   */\n  function checkExpiry(uint256 LastTimeStamp, uint256 currentTime)\n   public\n   pure\n   returns(bool success)\n  {\n    if (LastTimeStamp + 30 days >= currentTime) {\n      return true;\n    } else {\n      return false;\n    }\n  }\n\n  function purgeDispute(address consumer, uint index)\n    public\n    onlyOwner\n  {\n    delete disputes[consumer][index];\n    emit ConsumerNotified(consumer, \"dispute deleted\");\n  }\n\n  function sendMessage(address _recipient, string memory _message)\n    public\n  {\n    message[_recipient].push(_message);\n  }\n\n  function readMessage()\n    public\n    view\n    returns (string memory)\n  {\n    string memory output = \"\";\n    for (uint i = 0; i < message[msg.sender].length; i++) {\n      string memory _message = message[msg.sender][i];\n      output = string(abi.encodePacked(output, \"[\", _message, \"]\"));\n    }\n    return output;\n  }\n\n  /**\n   * Internal function to return credit report items by consumer\n   */\n  function _report(address consumer)\n    internal\n    view\n    returns (string memory)\n  {\n    string memory output;\n    for (uint i = 0; i < reports[consumer].length; i++) {\n      output = string(abi.encodePacked(\n        output, \"[\",\n          reports[consumer][i].subscriber, \",\",\n          reports[consumer][i].item, \",\",\n        \"]\"\n      ));\n    }\n    return output;\n  }\n}\n",
  "sourcePath": "G:\\projects\\redeecash-cra-token\\contracts\\CreditReport.sol",
  "compiler": {
    "name": "solc",
    "version": "0.8.10+commit.fc410830.Emscripten.clang"
  },
  "schemaVersion": "3.4.3",
  "updatedAt": "2021-12-15T21:19:51.093Z",
  "networkType": "ethereum",
  "devdoc": {
    "kind": "dev",
    "methods": {},
    "version": 1
  },
  "userdoc": {
    "kind": "user",
    "methods": {
      "addConsumerItem(address,bytes)": {
        "notice": "adds an item to the consumer report by an existing subscriber, must contain the minimum:    subscriber, open date, amount, description, balance, limit, payment status"
      },
      "addSubscriber(address,uint256)": {
        "notice": "adds a new subscriber"
      },
      "checkExpiry(uint256,uint256)": {
        "notice": "The disputeDate is in ISO and must be converted to epoch timestamp before checking current time The currentTime is epoch timestamp provided by the caller"
      },
      "getConsumerReport(address,address)": {
        "notice": "retrieves consumer report by a subscriber, fee is paid to the owner"
      },
      "getCreditReport()": {
        "notice": "retrieves consumer report by the consumer, no fees"
      },
      "getDisputes(address)": {
        "notice": "The contract owner will pull a list of disputes, while iterating through each dispute, convert the disputeDate from ISO string to an epoch timestamp and get current time in epoch timestamp, check if the dispute is expired by more than 30 days from current time, if dispute is expired, delete the dispute and notifiy consumer"
      },
      "getOwner()": {
        "notice": "retrieves the owner"
      }
    },
    "version": 1
  }
}