{
  "contractName": "CreditReport",
  "abi": [
    {
      "inputs": [],
      "stateMutability": "nonpayable",
      "type": "constructor"
    },
    {
      "anonymous": false,
      "inputs": [
        {
          "indexed": false,
          "internalType": "address",
          "name": "addr",
          "type": "address"
        },
        {
          "indexed": false,
          "internalType": "string",
          "name": "message",
          "type": "string"
        }
      ],
      "name": "ConsumerNotified",
      "type": "event"
    },
    {
      "anonymous": false,
      "inputs": [
        {
          "indexed": false,
          "internalType": "address",
          "name": "addr",
          "type": "address"
        },
        {
          "indexed": false,
          "internalType": "string",
          "name": "message",
          "type": "string"
        }
      ],
      "name": "SubscriberAdded",
      "type": "event"
    },
    {
      "anonymous": false,
      "inputs": [
        {
          "indexed": false,
          "internalType": "address",
          "name": "addr",
          "type": "address"
        },
        {
          "indexed": false,
          "internalType": "string",
          "name": "message",
          "type": "string"
        }
      ],
      "name": "SubscriberNotified",
      "type": "event"
    },
    {
      "inputs": [],
      "name": "getOwner",
      "outputs": [
        {
          "internalType": "address",
          "name": "addr",
          "type": "address"
        }
      ],
      "stateMutability": "view",
      "type": "function"
    },
    {
      "inputs": [
        {
          "internalType": "address",
          "name": "addr",
          "type": "address"
        },
        {
          "internalType": "uint256",
          "name": "_type",
          "type": "uint256"
        }
      ],
      "name": "addSubscriber",
      "outputs": [],
      "stateMutability": "nonpayable",
      "type": "function"
    },
    {
      "inputs": [
        {
          "internalType": "address",
          "name": "consumer",
          "type": "address"
        },
        {
          "internalType": "bytes",
          "name": "item",
          "type": "bytes"
        }
      ],
      "name": "addConsumerItem",
      "outputs": [],
      "stateMutability": "payable",
      "type": "function"
    },
    {
      "inputs": [
        {
          "internalType": "address",
          "name": "consumer",
          "type": "address"
        },
        {
          "internalType": "address payable",
          "name": "to",
          "type": "address"
        }
      ],
      "name": "getConsumerReport",
      "outputs": [
        {
          "internalType": "string",
          "name": "",
          "type": "string"
        }
      ],
      "stateMutability": "payable",
      "type": "function"
    },
    {
      "inputs": [],
      "name": "getCreditReport",
      "outputs": [
        {
          "internalType": "string",
          "name": "",
          "type": "string"
        }
      ],
      "stateMutability": "nonpayable",
      "type": "function"
    },
    {
      "inputs": [
        {
          "internalType": "uint256",
          "name": "index",
          "type": "uint256"
        },
        {
          "internalType": "string",
          "name": "disputeDate",
          "type": "string"
        },
        {
          "internalType": "string",
          "name": "reason",
          "type": "string"
        }
      ],
      "name": "openDispute",
      "outputs": [],
      "stateMutability": "nonpayable",
      "type": "function"
    },
    {
      "inputs": [
        {
          "internalType": "address",
          "name": "consumer",
          "type": "address"
        },
        {
          "internalType": "uint256",
          "name": "index",
          "type": "uint256"
        },
        {
          "internalType": "string",
          "name": "status",
          "type": "string"
        },
        {
          "internalType": "bool",
          "name": "purge",
          "type": "bool"
        }
      ],
      "name": "finalizeDispute",
      "outputs": [],
      "stateMutability": "nonpayable",
      "type": "function"
    },
    {
      "inputs": [
        {
          "internalType": "address",
          "name": "consumer",
          "type": "address"
        }
      ],
      "name": "getReportsByConsumer",
      "outputs": [
        {
          "internalType": "string",
          "name": "",
          "type": "string"
        }
      ],
      "stateMutability": "view",
      "type": "function"
    },
    {
      "inputs": [
        {
          "internalType": "address",
          "name": "consumer",
          "type": "address"
        }
      ],
      "name": "getDisputes",
      "outputs": [
        {
          "internalType": "string",
          "name": "",
          "type": "string"
        }
      ],
      "stateMutability": "view",
      "type": "function"
    },
    {
      "inputs": [
        {
          "internalType": "uint256",
          "name": "LastTimeStamp",
          "type": "uint256"
        },
        {
          "internalType": "uint256",
          "name": "currentTime",
          "type": "uint256"
        }
      ],
      "name": "checkExpiry",
      "outputs": [
        {
          "internalType": "bool",
          "name": "success",
          "type": "bool"
        }
      ],
      "stateMutability": "pure",
      "type": "function"
    },
    {
      "inputs": [
        {
          "internalType": "address",
          "name": "consumer",
          "type": "address"
        },
        {
          "internalType": "uint256",
          "name": "index",
          "type": "uint256"
        }
      ],
      "name": "purgeDispute",
      "outputs": [],
      "stateMutability": "nonpayable",
      "type": "function"
    },
    {
      "inputs": [
        {
          "internalType": "address",
          "name": "_recipient",
          "type": "address"
        },
        {
          "internalType": "string",
          "name": "_message",
          "type": "string"
        }
      ],
      "name": "sendMessage",
      "outputs": [],
      "stateMutability": "nonpayable",
      "type": "function"
    },
    {
      "inputs": [],
      "name": "readMessage",
      "outputs": [
        {
          "internalType": "string",
          "name": "",
          "type": "string"
        }
      ],
      "stateMutability": "view",
      "type": "function"
    }
  ],
  "bytecode": "0x6080604052600060055534801561001557600080fd5b5033600860006101000a81548173ffffffffffffffffffffffffffffffffffffffff021916908373ffffffffffffffffffffffffffffffffffffffff160217905550614219806100666000396000f3fe6080604052600436106100c25760003560e01c8063893d20e81161007f578063d7fdd77011610059578063d7fdd7701461024c578063de6f24bb14610289578063e09ee3af146102b2578063f7bddce4146102ef576100c2565b8063893d20e8146101cd578063a4e18cd7146101f8578063b81b179f14610221576100c2565b8063031d5d01146100c757806338cf7a27146100f25780633d5913ae1461010e5780635156cd42146101375780636138d5971461016757806375cb1c43146101a4575b600080fd5b3480156100d357600080fd5b506100dc610318565b6040516100e99190612fd2565b60405180910390f35b61010c6004803603810190610107919061319b565b6104a3565b005b34801561011a57600080fd5b506101356004803603810190610130919061322d565b61079f565b005b610151600480360381019061014c91906132ab565b6109cf565b60405161015e9190612fd2565b60405180910390f35b34801561017357600080fd5b5061018e600480360381019061018991906132eb565b610c75565b60405161019b9190612fd2565b60405180910390f35b3480156101b057600080fd5b506101cb60048036038101906101c691906133f1565b610d17565b005b3480156101d957600080fd5b506101e2611752565b6040516101ef9190613483565b60405180910390f35b34801561020457600080fd5b5061021f600480360381019061021a919061349e565b61177c565b005b34801561022d57600080fd5b50610236611eb6565b6040516102439190612fd2565b60405180910390f35b34801561025857600080fd5b50610273600480360381019061026e9190613529565b612035565b6040516102809190613578565b60405180910390f35b34801561029557600080fd5b506102b060048036038101906102ab9190613593565b612060565b005b3480156102be57600080fd5b506102d960048036038101906102d491906132eb565b6120dd565b6040516102e69190612fd2565b60405180910390f35b3480156102fb57600080fd5b506103166004803603810190610311919061322d565b612965565b005b6060600060405180602001604052806000815250905060005b600660003373ffffffffffffffffffffffffffffffffffffffff1673ffffffffffffffffffffffffffffffffffffffff1681526020019081526020016000208054905081101561049b576000600660003373ffffffffffffffffffffffffffffffffffffffff1673ffffffffffffffffffffffffffffffffffffffff16815260200190815260200160002082815481106103ce576103cd6135ef565b5b9060005260206000200180546103e39061364d565b80601f016020809104026020016040519081016040528092919081815260200182805461040f9061364d565b801561045c5780601f106104315761010080835404028352916020019161045c565b820191906000526020600020905b81548152906001019060200180831161043f57829003601f168201915b505050505090508281604051602001610476929190613753565b6040516020818303038152906040529250508080610493906137bc565b915050610331565b508091505090565b6000600160003373ffffffffffffffffffffffffffffffffffffffff1673ffffffffffffffffffffffffffffffffffffffff168152602001908152602001600020541415610526576040517f08c379a000000000000000000000000000000000000000000000000000000000815260040161051d90613851565b60405180910390fd5b6000600260008473ffffffffffffffffffffffffffffffffffffffff1673ffffffffffffffffffffffffffffffffffffffff1681526020019081526020016000205414156105cc576001600260008473ffffffffffffffffffffffffffffffffffffffff1673ffffffffffffffffffffffffffffffffffffffff16815260200190815260200160002081905550600560008154809291906105c6906137bc565b91905055505b60608060008060006060868060200190518101906105ea91906138f6565b809650819750829850839950849a50859b5050505050505060006040518060c00160405280888152602001878152602001868152602001858152602001848152602001838152509050600060405180604001604052803373ffffffffffffffffffffffffffffffffffffffff1681526020018381525090506000808b73ffffffffffffffffffffffffffffffffffffffff1673ffffffffffffffffffffffffffffffffffffffff16815260200190815260200160002081908060018154018082558091505060019003906000526020600020906007020160009091909190915060008201518160000160006101000a81548173ffffffffffffffffffffffffffffffffffffffff021916908373ffffffffffffffffffffffffffffffffffffffff1602179055506020820151816001016000820151816000019080519060200190610736929190612e56565b506020820151816001019080519060200190610753929190612e56565b5060408201518160020155606082015181600301556080820151816004015560a082015181600501908051906020019061078e929190612e56565b505050505050505050505050505050565b600860009054906101000a900473ffffffffffffffffffffffffffffffffffffffff1673ffffffffffffffffffffffffffffffffffffffff163373ffffffffffffffffffffffffffffffffffffffff161461082f576040517f08c379a000000000000000000000000000000000000000000000000000000000815260040161082690613a23565b60405180910390fd5b600460008373ffffffffffffffffffffffffffffffffffffffff1673ffffffffffffffffffffffffffffffffffffffff16815260200190815260200160002081815481106108805761087f6135ef565b5b90600052602060002090600d02016000808201600090556001820160006101000a81549073ffffffffffffffffffffffffffffffffffffffff02191690556002820160006101000a81549073ffffffffffffffffffffffffffffffffffffffff02191690556003820160006108f59190612edc565b60048201600080820160006101000a81549073ffffffffffffffffffffffffffffffffffffffff021916905560018201600080820160006109369190612edc565b6001820160006109469190612edc565b60028201600090556003820160009055600482016000905560058201600061096e9190612edc565b50505050600b820160006109829190612edc565b600c820160006109929190612edc565b50507fd87358bdb9fb3fd22dc44bf9aec10b565d35f5b8c903db24b4addfb35594895c826040516109c39190613a8f565b60405180910390a15050565b60606000600160003373ffffffffffffffffffffffffffffffffffffffff1673ffffffffffffffffffffffffffffffffffffffff168152602001908152602001600020541415610a54576040517f08c379a0000000000000000000000000000000000000000000000000000000008152600401610a4b90613851565b60405180910390fd5b81600860009054906101000a900473ffffffffffffffffffffffffffffffffffffffff1673ffffffffffffffffffffffffffffffffffffffff168173ffffffffffffffffffffffffffffffffffffffff1614610ae5576040517f08c379a0000000000000000000000000000000000000000000000000000000008152600401610adc90613b09565b60405180910390fd5b66038d7ea4c68000803410610b2f576040517f08c379a0000000000000000000000000000000000000000000000000000000008152600401610b2690613b75565b60405180910390fd5b8373ffffffffffffffffffffffffffffffffffffffff166108fc349081150290604051600060405180830381858888f19350505050158015610b75573d6000803e3d6000fd5b50600060405180604001604052803373ffffffffffffffffffffffffffffffffffffffff168152602001428152509050600360008773ffffffffffffffffffffffffffffffffffffffff1673ffffffffffffffffffffffffffffffffffffffff16815260200190815260200160002081908060018154018082558091505060019003906000526020600020906002020160009091909190915060008201518160000160006101000a81548173ffffffffffffffffffffffffffffffffffffffff021916908373ffffffffffffffffffffffffffffffffffffffff160217905550602082015181600101555050610c6a86612ae4565b935050505092915050565b6060600860009054906101000a900473ffffffffffffffffffffffffffffffffffffffff1673ffffffffffffffffffffffffffffffffffffffff163373ffffffffffffffffffffffffffffffffffffffff1614610d07576040517f08c379a0000000000000000000000000000000000000000000000000000000008152600401610cfe90613a23565b60405180910390fd5b610d1082612ae4565b9050919050565b6000600160003373ffffffffffffffffffffffffffffffffffffffff1673ffffffffffffffffffffffffffffffffffffffff168152602001908152602001600020541415610d9a576040517f08c379a0000000000000000000000000000000000000000000000000000000008152600401610d9190613851565b60405180910390fd5b60006040518060e00160405280858152602001600460008873ffffffffffffffffffffffffffffffffffffffff1673ffffffffffffffffffffffffffffffffffffffff1681526020019081526020016000208681548110610dfe57610dfd6135ef565b5b90600052602060002090600d020160010160009054906101000a900473ffffffffffffffffffffffffffffffffffffffff1673ffffffffffffffffffffffffffffffffffffffff168152602001600460008873ffffffffffffffffffffffffffffffffffffffff1673ffffffffffffffffffffffffffffffffffffffff1681526020019081526020016000208681548110610e9c57610e9b6135ef565b5b90600052602060002090600d020160020160009054906101000a900473ffffffffffffffffffffffffffffffffffffffff1673ffffffffffffffffffffffffffffffffffffffff168152602001600460008873ffffffffffffffffffffffffffffffffffffffff1673ffffffffffffffffffffffffffffffffffffffff1681526020019081526020016000208681548110610f3a57610f396135ef565b5b90600052602060002090600d02016003018054610f569061364d565b80601f0160208091040260200160405190810160405280929190818152602001828054610f829061364d565b8015610fcf5780601f10610fa457610100808354040283529160200191610fcf565b820191906000526020600020905b815481529060010190602001808311610fb257829003601f168201915b50505050508152602001600460008873ffffffffffffffffffffffffffffffffffffffff1673ffffffffffffffffffffffffffffffffffffffff168152602001908152602001600020868154811061102a576110296135ef565b5b90600052602060002090600d02016004016040518060400160405290816000820160009054906101000a900473ffffffffffffffffffffffffffffffffffffffff1673ffffffffffffffffffffffffffffffffffffffff1673ffffffffffffffffffffffffffffffffffffffff168152602001600182016040518060c00160405290816000820180546110bc9061364d565b80601f01602080910402602001604051908101604052809291908181526020018280546110e89061364d565b80156111355780601f1061110a57610100808354040283529160200191611135565b820191906000526020600020905b81548152906001019060200180831161111857829003601f168201915b5050505050815260200160018201805461114e9061364d565b80601f016020809104026020016040519081016040528092919081815260200182805461117a9061364d565b80156111c75780601f1061119c576101008083540402835291602001916111c7565b820191906000526020600020905b8154815290600101906020018083116111aa57829003601f168201915b505050505081526020016002820154815260200160038201548152602001600482015481526020016005820180546111fe9061364d565b80601f016020809104026020016040519081016040528092919081815260200182805461122a9061364d565b80156112775780601f1061124c57610100808354040283529160200191611277565b820191906000526020600020905b81548152906001019060200180831161125a57829003601f168201915b505050505081525050815250508152602001600460008873ffffffffffffffffffffffffffffffffffffffff1673ffffffffffffffffffffffffffffffffffffffff16815260200190815260200160002086815481106112da576112d96135ef565b5b90600052602060002090600d0201600b0180546112f69061364d565b80601f01602080910402602001604051908101604052809291908181526020018280546113229061364d565b801561136f5780601f106113445761010080835404028352916020019161136f565b820191906000526020600020905b81548152906001019060200180831161135257829003601f168201915b5050505050815260200184815250905081156114ef57600460008673ffffffffffffffffffffffffffffffffffffffff1673ffffffffffffffffffffffffffffffffffffffff16815260200190815260200160002084815481106113d6576113d56135ef565b5b90600052602060002090600d02016000808201600090556001820160006101000a81549073ffffffffffffffffffffffffffffffffffffffff02191690556002820160006101000a81549073ffffffffffffffffffffffffffffffffffffffff021916905560038201600061144b9190612edc565b60048201600080820160006101000a81549073ffffffffffffffffffffffffffffffffffffffff0219169055600182016000808201600061148c9190612edc565b60018201600061149c9190612edc565b6002820160009055600382016000905560048201600090556005820160006114c49190612edc565b50505050600b820160006114d89190612edc565b600c820160006114e89190612edc565b5050611714565b80600460008773ffffffffffffffffffffffffffffffffffffffff1673ffffffffffffffffffffffffffffffffffffffff1681526020019081526020016000208581548110611541576115406135ef565b5b90600052602060002090600d02016000820151816000015560208201518160010160006101000a81548173ffffffffffffffffffffffffffffffffffffffff021916908373ffffffffffffffffffffffffffffffffffffffff16021790555060408201518160020160006101000a81548173ffffffffffffffffffffffffffffffffffffffff021916908373ffffffffffffffffffffffffffffffffffffffff1602179055506060820151816003019080519060200190611603929190612e56565b5060808201518160040160008201518160000160006101000a81548173ffffffffffffffffffffffffffffffffffffffff021916908373ffffffffffffffffffffffffffffffffffffffff1602179055506020820151816001016000820151816000019080519060200190611679929190612e56565b506020820151816001019080519060200190611696929190612e56565b5060408201518160020155606082015181600301556080820151816004015560a08201518160050190805190602001906116d1929190612e56565b505050505060a082015181600b0190805190602001906116f2929190612e56565b5060c082015181600c01908051906020019061170f929190612e56565b509050505b7fd87358bdb9fb3fd22dc44bf9aec10b565d35f5b8c903db24b4addfb35594895c856040516117439190613be1565b60405180910390a15050505050565b6000600860009054906101000a900473ffffffffffffffffffffffffffffffffffffffff16905090565b6000600260003373ffffffffffffffffffffffffffffffffffffffff1673ffffffffffffffffffffffffffffffffffffffff1681526020019081526020016000205414156117ff576040517f08c379a00000000000000000000000000000000000000000000000000000000081526004016117f690613c5b565b60405180910390fd5b600060405180604001604052806000803373ffffffffffffffffffffffffffffffffffffffff1673ffffffffffffffffffffffffffffffffffffffff168152602001908152602001600020868154811061185c5761185b6135ef565b5b906000526020600020906007020160000160009054906101000a900473ffffffffffffffffffffffffffffffffffffffff1673ffffffffffffffffffffffffffffffffffffffff1681526020016000803373ffffffffffffffffffffffffffffffffffffffff1673ffffffffffffffffffffffffffffffffffffffff16815260200190815260200160002086815481106118f9576118f86135ef565b5b90600052602060002090600702016001016040518060c00160405290816000820180546119259061364d565b80601f01602080910402602001604051908101604052809291908181526020018280546119519061364d565b801561199e5780601f106119735761010080835404028352916020019161199e565b820191906000526020600020905b81548152906001019060200180831161198157829003601f168201915b505050505081526020016001820180546119b79061364d565b80601f01602080910402602001604051908101604052809291908181526020018280546119e39061364d565b8015611a305780601f10611a0557610100808354040283529160200191611a30565b820191906000526020600020905b815481529060010190602001808311611a1357829003601f168201915b50505050508152602001600282015481526020016003820154815260200160048201548152602001600582018054611a679061364d565b80601f0160208091040260200160405190810160405280929190818152602001828054611a939061364d565b8015611ae05780601f10611ab557610100808354040283529160200191611ae0565b820191906000526020600020905b815481529060010190602001808311611ac357829003601f168201915b505050505081525050815250905060006040518060e00160405280868152602001836000015173ffffffffffffffffffffffffffffffffffffffff1681526020013373ffffffffffffffffffffffffffffffffffffffff168152602001858152602001838152602001848152602001604051806020016040528060008152508152509050600460003373ffffffffffffffffffffffffffffffffffffffff1673ffffffffffffffffffffffffffffffffffffffff1681526020019081526020016000208190806001815401808255809150506001900390600052602060002090600d02016000909190919091506000820151816000015560208201518160010160006101000a81548173ffffffffffffffffffffffffffffffffffffffff021916908373ffffffffffffffffffffffffffffffffffffffff16021790555060408201518160020160006101000a81548173ffffffffffffffffffffffffffffffffffffffff021916908373ffffffffffffffffffffffffffffffffffffffff1602179055506060820151816003019080519060200190611c81929190612e56565b5060808201518160040160008201518160000160006101000a81548173ffffffffffffffffffffffffffffffffffffffff021916908373ffffffffffffffffffffffffffffffffffffffff1602179055506020820151816001016000820151816000019080519060200190611cf7929190612e56565b506020820151816001019080519060200190611d14929190612e56565b5060408201518160020155606082015181600301556080820151816004015560a0820151816005019080519060200190611d4f929190612e56565b505050505060a082015181600b019080519060200190611d70929190612e56565b5060c082015181600c019080519060200190611d8d929190612e56565b50505060066000836000015173ffffffffffffffffffffffffffffffffffffffff1673ffffffffffffffffffffffffffffffffffffffff16815260200190815260200160002085836000015133878660200151600001518760200151602001518860200151604001518960200151606001518a60200151608001518b6020015160a001518d604051602001611e2c9b9a99989796959493929190613d30565b604051602081830303815290604052908060018154018082558091505060019003906000526020600020016000909190919091509080519060200190611e73929190612e56565b507fde371f040710867afadb0d380ec315de30e2cdd4edd5062dd8c82c7418784ad78260000151604051611ea79190613e38565b60405180910390a15050505050565b60606000600260003373ffffffffffffffffffffffffffffffffffffffff1673ffffffffffffffffffffffffffffffffffffffff168152602001908152602001600020541415611f3b576040517f08c379a0000000000000000000000000000000000000000000000000000000008152600401611f3290613c5b565b60405180910390fd5b600060405180604001604052803373ffffffffffffffffffffffffffffffffffffffff168152602001428152509050600360003373ffffffffffffffffffffffffffffffffffffffff1673ffffffffffffffffffffffffffffffffffffffff16815260200190815260200160002081908060018154018082558091505060019003906000526020600020906002020160009091909190915060008201518160000160006101000a81548173ffffffffffffffffffffffffffffffffffffffff021916908373ffffffffffffffffffffffffffffffffffffffff16021790555060208201518160010155505061202f33612ae4565b91505090565b60008162278d00846120479190613e66565b10612055576001905061205a565b600090505b92915050565b600660008373ffffffffffffffffffffffffffffffffffffffff1673ffffffffffffffffffffffffffffffffffffffff168152602001908152602001600020819080600181540180825580915050600190039060005260206000200160009091909190915090805190602001906120d8929190612e56565b505050565b6060600860009054906101000a900473ffffffffffffffffffffffffffffffffffffffff1673ffffffffffffffffffffffffffffffffffffffff163373ffffffffffffffffffffffffffffffffffffffff161461216f576040517f08c379a000000000000000000000000000000000000000000000000000000000815260040161216690613a23565b60405180910390fd5b600060405180602001604052806000815250905060005b600460008573ffffffffffffffffffffffffffffffffffffffff1673ffffffffffffffffffffffffffffffffffffffff1681526020019081526020016000208054905081101561295b5760006040518060e00160405280600460008873ffffffffffffffffffffffffffffffffffffffff1673ffffffffffffffffffffffffffffffffffffffff168152602001908152602001600020848154811061222e5761222d6135ef565b5b90600052602060002090600d0201600001548152602001600460008873ffffffffffffffffffffffffffffffffffffffff1673ffffffffffffffffffffffffffffffffffffffff1681526020019081526020016000208481548110612296576122956135ef565b5b90600052602060002090600d020160010160009054906101000a900473ffffffffffffffffffffffffffffffffffffffff1673ffffffffffffffffffffffffffffffffffffffff168152602001600460008873ffffffffffffffffffffffffffffffffffffffff1673ffffffffffffffffffffffffffffffffffffffff1681526020019081526020016000208481548110612334576123336135ef565b5b90600052602060002090600d020160020160009054906101000a900473ffffffffffffffffffffffffffffffffffffffff1673ffffffffffffffffffffffffffffffffffffffff168152602001600460008873ffffffffffffffffffffffffffffffffffffffff1673ffffffffffffffffffffffffffffffffffffffff16815260200190815260200160002084815481106123d2576123d16135ef565b5b90600052602060002090600d020160030180546123ee9061364d565b80601f016020809104026020016040519081016040528092919081815260200182805461241a9061364d565b80156124675780601f1061243c57610100808354040283529160200191612467565b820191906000526020600020905b81548152906001019060200180831161244a57829003601f168201915b50505050508152602001600460008873ffffffffffffffffffffffffffffffffffffffff1673ffffffffffffffffffffffffffffffffffffffff16815260200190815260200160002084815481106124c2576124c16135ef565b5b90600052602060002090600d02016004016040518060400160405290816000820160009054906101000a900473ffffffffffffffffffffffffffffffffffffffff1673ffffffffffffffffffffffffffffffffffffffff1673ffffffffffffffffffffffffffffffffffffffff168152602001600182016040518060c00160405290816000820180546125549061364d565b80601f01602080910402602001604051908101604052809291908181526020018280546125809061364d565b80156125cd5780601f106125a2576101008083540402835291602001916125cd565b820191906000526020600020905b8154815290600101906020018083116125b057829003601f168201915b505050505081526020016001820180546125e69061364d565b80601f01602080910402602001604051908101604052809291908181526020018280546126129061364d565b801561265f5780601f106126345761010080835404028352916020019161265f565b820191906000526020600020905b81548152906001019060200180831161264257829003601f168201915b505050505081526020016002820154815260200160038201548152602001600482015481526020016005820180546126969061364d565b80601f01602080910402602001604051908101604052809291908181526020018280546126c29061364d565b801561270f5780601f106126e45761010080835404028352916020019161270f565b820191906000526020600020905b8154815290600101906020018083116126f257829003601f168201915b505050505081525050815250508152602001600460008873ffffffffffffffffffffffffffffffffffffffff1673ffffffffffffffffffffffffffffffffffffffff1681526020019081526020016000208481548110612772576127716135ef565b5b90600052602060002090600d0201600b01805461278e9061364d565b80601f01602080910402602001604051908101604052809291908181526020018280546127ba9061364d565b80156128075780601f106127dc57610100808354040283529160200191612807565b820191906000526020600020905b8154815290600101906020018083116127ea57829003601f168201915b50505050508152602001600460008873ffffffffffffffffffffffffffffffffffffffff1673ffffffffffffffffffffffffffffffffffffffff1681526020019081526020016000208481548110612862576128616135ef565b5b90600052602060002090600d0201600c01805461287e9061364d565b80601f01602080910402602001604051908101604052809291908181526020018280546128aa9061364d565b80156128f75780601f106128cc576101008083540402835291602001916128f7565b820191906000526020600020905b8154815290600101906020018083116128da57829003601f168201915b505050505081525090508281600001518260200151836040015184606001518560a001518660c001516040516020016129369796959493929190613ebc565b6040516020818303038152906040529250508080612953906137bc565b915050612186565b5080915050919050565b600860009054906101000a900473ffffffffffffffffffffffffffffffffffffffff1673ffffffffffffffffffffffffffffffffffffffff163373ffffffffffffffffffffffffffffffffffffffff16146129f5576040517f08c379a00000000000000000000000000000000000000000000000000000000081526004016129ec90613a23565b60405180910390fd5b600073ffffffffffffffffffffffffffffffffffffffff168273ffffffffffffffffffffffffffffffffffffffff161415612a65576040517f08c379a0000000000000000000000000000000000000000000000000000000008152600401612a5c90613f8f565b60405180910390fd5b80600160008473ffffffffffffffffffffffffffffffffffffffff1673ffffffffffffffffffffffffffffffffffffffff168152602001908152602001600020819055507fae28b319183e2d4a0f4721e7fc4bb1c25a05610d1e2efb85b10dfbf7bbf4761b82604051612ad89190613ffb565b60405180910390a15050565b60608060005b6000808573ffffffffffffffffffffffffffffffffffffffff1673ffffffffffffffffffffffffffffffffffffffff16815260200190815260200160002080549050811015612e4c57816000808673ffffffffffffffffffffffffffffffffffffffff1673ffffffffffffffffffffffffffffffffffffffff1681526020019081526020016000208281548110612b8457612b836135ef565b5b906000526020600020906007020160000160009054906101000a900473ffffffffffffffffffffffffffffffffffffffff166000808773ffffffffffffffffffffffffffffffffffffffff1673ffffffffffffffffffffffffffffffffffffffff1681526020019081526020016000208381548110612c0657612c056135ef565b5b90600052602060002090600702016001016000016000808873ffffffffffffffffffffffffffffffffffffffff1673ffffffffffffffffffffffffffffffffffffffff1681526020019081526020016000208481548110612c6a57612c696135ef565b5b90600052602060002090600702016001016001016000808973ffffffffffffffffffffffffffffffffffffffff1673ffffffffffffffffffffffffffffffffffffffff1681526020019081526020016000208581548110612cce57612ccd6135ef565b5b9060005260206000209060070201600101600201546000808a73ffffffffffffffffffffffffffffffffffffffff1673ffffffffffffffffffffffffffffffffffffffff1681526020019081526020016000208681548110612d3357612d326135ef565b5b9060005260206000209060070201600101600301546000808b73ffffffffffffffffffffffffffffffffffffffff1673ffffffffffffffffffffffffffffffffffffffff1681526020019081526020016000208781548110612d9857612d976135ef565b5b9060005260206000209060070201600101600401546000808c73ffffffffffffffffffffffffffffffffffffffff1673ffffffffffffffffffffffffffffffffffffffff1681526020019081526020016000208881548110612dfd57612dfc6135ef565b5b9060005260206000209060070201600101600501604051602001612e28989796959493929190614109565b60405160208183030381529060405291508080612e44906137bc565b915050612aea565b5080915050919050565b828054612e629061364d565b90600052602060002090601f016020900481019282612e845760008555612ecb565b82601f10612e9d57805160ff1916838001178555612ecb565b82800160010185558215612ecb579182015b82811115612eca578251825591602001919060010190612eaf565b5b509050612ed89190612f1c565b5090565b508054612ee89061364d565b6000825580601f10612efa5750612f19565b601f016020900490600052602060002090810190612f189190612f1c565b5b50565b5b80821115612f35576000816000905550600101612f1d565b5090565b600081519050919050565b600082825260208201905092915050565b60005b83811015612f73578082015181840152602081019050612f58565b83811115612f82576000848401525b50505050565b6000601f19601f8301169050919050565b6000612fa482612f39565b612fae8185612f44565b9350612fbe818560208601612f55565b612fc781612f88565b840191505092915050565b60006020820190508181036000830152612fec8184612f99565b905092915050565b6000604051905090565b600080fd5b600080fd5b600073ffffffffffffffffffffffffffffffffffffffff82169050919050565b600061303382613008565b9050919050565b61304381613028565b811461304e57600080fd5b50565b6000813590506130608161303a565b92915050565b600080fd5b600080fd5b7f4e487b7100000000000000000000000000000000000000000000000000000000600052604160045260246000fd5b6130a882612f88565b810181811067ffffffffffffffff821117156130c7576130c6613070565b5b80604052505050565b60006130da612ff4565b90506130e6828261309f565b919050565b600067ffffffffffffffff82111561310657613105613070565b5b61310f82612f88565b9050602081019050919050565b82818337600083830152505050565b600061313e613139846130eb565b6130d0565b90508281526020810184848401111561315a5761315961306b565b5b61316584828561311c565b509392505050565b600082601f83011261318257613181613066565b5b813561319284826020860161312b565b91505092915050565b600080604083850312156131b2576131b1612ffe565b5b60006131c085828601613051565b925050602083013567ffffffffffffffff8111156131e1576131e0613003565b5b6131ed8582860161316d565b9150509250929050565b6000819050919050565b61320a816131f7565b811461321557600080fd5b50565b60008135905061322781613201565b92915050565b6000806040838503121561324457613243612ffe565b5b600061325285828601613051565b925050602061326385828601613218565b9150509250929050565b600061327882613008565b9050919050565b6132888161326d565b811461329357600080fd5b50565b6000813590506132a58161327f565b92915050565b600080604083850312156132c2576132c1612ffe565b5b60006132d085828601613051565b92505060206132e185828601613296565b9150509250929050565b60006020828403121561330157613300612ffe565b5b600061330f84828501613051565b91505092915050565b600067ffffffffffffffff82111561333357613332613070565b5b61333c82612f88565b9050602081019050919050565b600061335c61335784613318565b6130d0565b9050828152602081018484840111156133785761337761306b565b5b61338384828561311c565b509392505050565b600082601f8301126133a05761339f613066565b5b81356133b0848260208601613349565b91505092915050565b60008115159050919050565b6133ce816133b9565b81146133d957600080fd5b50565b6000813590506133eb816133c5565b92915050565b6000806000806080858703121561340b5761340a612ffe565b5b600061341987828801613051565b945050602061342a87828801613218565b935050604085013567ffffffffffffffff81111561344b5761344a613003565b5b6134578782880161338b565b9250506060613468878288016133dc565b91505092959194509250565b61347d81613028565b82525050565b60006020820190506134986000830184613474565b92915050565b6000806000606084860312156134b7576134b6612ffe565b5b60006134c586828701613218565b935050602084013567ffffffffffffffff8111156134e6576134e5613003565b5b6134f28682870161338b565b925050604084013567ffffffffffffffff81111561351357613512613003565b5b61351f8682870161338b565b9150509250925092565b600080604083850312156135405761353f612ffe565b5b600061354e85828601613218565b925050602061355f85828601613218565b9150509250929050565b613572816133b9565b82525050565b600060208201905061358d6000830184613569565b92915050565b600080604083850312156135aa576135a9612ffe565b5b60006135b885828601613051565b925050602083013567ffffffffffffffff8111156135d9576135d8613003565b5b6135e58582860161338b565b9150509250929050565b7f4e487b7100000000000000000000000000000000000000000000000000000000600052603260045260246000fd5b7f4e487b7100000000000000000000000000000000000000000000000000000000600052602260045260246000fd5b6000600282049050600182168061366557607f821691505b602082108114156136795761367861361e565b5b50919050565b600081905092915050565b600061369582612f39565b61369f818561367f565b93506136af818560208601612f55565b80840191505092915050565b7f5b00000000000000000000000000000000000000000000000000000000000000600082015250565b60006136f160018361367f565b91506136fc826136bb565b600182019050919050565b7f5d00000000000000000000000000000000000000000000000000000000000000600082015250565b600061373d60018361367f565b915061374882613707565b600182019050919050565b600061375f828561368a565b915061376a826136e4565b9150613776828461368a565b915061378182613730565b91508190509392505050565b7f4e487b7100000000000000000000000000000000000000000000000000000000600052601160045260246000fd5b60006137c7826131f7565b91507fffffffffffffffffffffffffffffffffffffffffffffffffffffffffffffffff8214156137fa576137f961378d565b5b600182019050919050565b7f6163636573732064656e69656420666f72207375627363726962657200000000600082015250565b600061383b601c83612f44565b915061384682613805565b602082019050919050565b6000602082019050818103600083015261386a8161382e565b9050919050565b600061388461387f84613318565b6130d0565b9050828152602081018484840111156138a05761389f61306b565b5b6138ab848285612f55565b509392505050565b600082601f8301126138c8576138c7613066565b5b81516138d8848260208601613871565b91505092915050565b6000815190506138f081613201565b92915050565b60008060008060008060c0878903121561391357613912612ffe565b5b600087015167ffffffffffffffff81111561393157613930613003565b5b61393d89828a016138b3565b965050602087015167ffffffffffffffff81111561395e5761395d613003565b5b61396a89828a016138b3565b955050604061397b89828a016138e1565b945050606061398c89828a016138e1565b935050608061399d89828a016138e1565b92505060a087015167ffffffffffffffff8111156139be576139bd613003565b5b6139ca89828a016138b3565b9150509295509295509295565b7f6163636573732064656e69656420666f72206f776e6572000000000000000000600082015250565b6000613a0d601783612f44565b9150613a18826139d7565b602082019050919050565b60006020820190508181036000830152613a3c81613a00565b9050919050565b7f646973707574652064656c657465640000000000000000000000000000000000600082015250565b6000613a79600f83612f44565b9150613a8482613a43565b602082019050919050565b6000604082019050613aa46000830184613474565b8181036020830152613ab581613a6c565b905092915050565b7f6e6f7420746865206f776e657200000000000000000000000000000000000000600082015250565b6000613af3600d83612f44565b9150613afe82613abd565b602082019050919050565b60006020820190508181036000830152613b2281613ae6565b9050919050565b7f696e73756666696369656e742062616c616e63652f616d6f756e740000000000600082015250565b6000613b5f601b83612f44565b9150613b6a82613b29565b602082019050919050565b60006020820190508181036000830152613b8e81613b52565b9050919050565b7f646973707574652066696e616c697a6564000000000000000000000000000000600082015250565b6000613bcb601183612f44565b9150613bd682613b95565b602082019050919050565b6000604082019050613bf66000830184613474565b8181036020830152613c0781613bbe565b905092915050565b7f6163636573732064656e69656420666f7220636f6e73756d6572000000000000600082015250565b6000613c45601a83612f44565b9150613c5082613c0f565b602082019050919050565b60006020820190508181036000830152613c7481613c38565b9050919050565b7f44697370757465204f70656e65643a0000000000000000000000000000000000600082015250565b6000613cb1600f8361367f565b9150613cbc82613c7b565b600f82019050919050565b6000819050919050565b613ce2613cdd826131f7565b613cc7565b82525050565b60008160601b9050919050565b6000613d0082613ce8565b9050919050565b6000613d1282613cf5565b9050919050565b613d2a613d2582613028565b613d07565b82525050565b6000613d3b82613ca4565b9150613d47828e613cd1565b602082019150613d57828d613d19565b601482019150613d67828c613d19565b601482019150613d77828b61368a565b9150613d83828a61368a565b9150613d8f828961368a565b9150613d9b8288613cd1565b602082019150613dab8287613cd1565b602082019150613dbb8286613cd1565b602082019150613dcb828561368a565b9150613dd7828461368a565b91508190509c9b505050505050505050505050565b7f6e65772064697370757465206f70656e65640000000000000000000000000000600082015250565b6000613e22601283612f44565b9150613e2d82613dec565b602082019050919050565b6000604082019050613e4d6000830184613474565b8181036020830152613e5e81613e15565b905092915050565b6000613e71826131f7565b9150613e7c836131f7565b9250827fffffffffffffffffffffffffffffffffffffffffffffffffffffffffffffffff03821115613eb157613eb061378d565b5b828201905092915050565b6000613ec8828a61368a565b9150613ed3826136e4565b9150613edf8289613cd1565b602082019150613eef8288613d19565b601482019150613eff8287613d19565b601482019150613f0f828661368a565b9150613f1b828561368a565b9150613f27828461368a565b9150613f3282613730565b915081905098975050505050505050565b7f6d697373696e6720616464726573730000000000000000000000000000000000600082015250565b6000613f79600f83612f44565b9150613f8482613f43565b602082019050919050565b60006020820190508181036000830152613fa881613f6c565b9050919050565b7f7375627363726962657220616464656400000000000000000000000000000000600082015250565b6000613fe5601083612f44565b9150613ff082613faf565b602082019050919050565b60006040820190506140106000830184613474565b818103602083015261402181613fd8565b905092915050565b7f2c00000000000000000000000000000000000000000000000000000000000000600082015250565b600061405f60018361367f565b915061406a82614029565b600182019050919050565b60008190508160005260206000209050919050565b600081546140978161364d565b6140a1818661367f565b945060018216600081146140bc57600181146140cd57614100565b60ff19831686528186019350614100565b6140d685614075565b60005b838110156140f8578154818901526001820191506020810190506140d9565b838801955050505b50505092915050565b6000614115828b61368a565b9150614120826136e4565b915061412c828a613d19565b60148201915061413b82614052565b9150614147828961408a565b915061415282614052565b915061415e828861408a565b915061416982614052565b91506141758287613cd1565b60208201915061418482614052565b91506141908286613cd1565b60208201915061419f82614052565b91506141ab8285613cd1565b6020820191506141ba82614052565b91506141c6828461408a565b91506141d182613730565b9150819050999850505050505050505056fea26469706673582212209a0c6d2927f5f40070342861fe225913752026c33a8bd5b5caaaceba7734642d64736f6c634300080a0033",
  "immutableReferences": {},
  "source": "// SPDX-License-Identifier: MIT\npragma solidity >=0.4.22 <0.9.0;\n\ncontract CreditReport {\n  bytes32 constant private ZERO_BYTES = bytes32(0);\n  address constant private ZERO_ADDRESS = address(0);\n\n  struct Item {\n    string opendate;\n    string  description;\n    uint    amount;\n    uint    balance;\n    uint    limit;\n    string  paystatus;\n  }\n\n  struct ReportItem {\n    address subscriber;\n    Item    item;\n  }\n\n  struct Inquiry {\n    address subscriber;\n    uint256 reqdate;\n  }\n\n  struct Dispute {\n    uint index;\n    address subscriber;\n    address consumer;\n    string  disputeDate;\n    ReportItem item;\n    string reason;\n    string status;\n  }\n\n  mapping(address => ReportItem[]) private reports;\n  mapping(address => uint256) private subscribers;\n\n  mapping(address => uint256) private consumers;\n  mapping(address => Inquiry[]) private inquiries;\n  mapping(address => Dispute[]) private disputes;\n\n  uint total_consumers = 0;\n\n  mapping (address => string[]) message;\n\n  mapping (bytes => address) private _owner;\n\n  address private owner;\n\n  event SubscriberAdded(address addr, string message);\n  event SubscriberNotified(address addr, string message);\n  event ConsumerNotified(address addr, string message);\n\n  constructor()\n  {\n    owner = msg.sender;\n  }\n\n  modifier onlyOwner() {\n    require(msg.sender == owner, \"access denied for owner\");\n    _;\n  }\n\n  modifier isOwner(address addr) {\n    require(addr == owner, \"not the owner\");\n    _;\n  }\n\n  modifier validSender() {\n    require(msg.sender != ZERO_ADDRESS,\"access denied for sender\");\n    _;\n  }\n\n  modifier onlySubscriber() {\n    require(subscribers[msg.sender] != 0, \"access denied for subscriber\");\n    _;\n  }\n\n  modifier onlyConsumer() {\n    require(consumers[msg.sender] != 0, \"access denied for consumer\");\n    _;\n  }\n\n  modifier requiresFee(uint fee) {\n    require(msg.value < fee, \"insufficient balance/amount\");\n    _;\n  }\n\n  /**\n   * retrieves the owner\n   */\n  function getOwner()\n    public\n    view\n    returns (address addr)\n  {\n    return owner;\n  }\n\n  /**\n   * adds a new subscriber\n   */\n  function addSubscriber(address addr, uint256 _type)\n  public\n  onlyOwner\n  {\n    require(addr != ZERO_ADDRESS,\"missing address\");\n    subscribers[addr] = _type;\n    emit SubscriberAdded(addr, \"subscriber added\");\n  }\n\n  /**\n   * adds an item to the consumer report by an existing subscriber, must contain the minimum:\n   *    subscriber, open date, amount, description, balance, limit, payment status\n   */\n  function addConsumerItem(address consumer, bytes memory item)\n    public\n    payable\n    onlySubscriber\n  {\n    if (consumers[consumer] == 0) {\n      consumers[consumer] = 1;\n      total_consumers++;\n    }\n    string memory _opendate;\n    string memory _description;\n    uint    _amount;\n    uint    _balance;\n    uint    _limit;\n    string memory _paystatus;\n\n    (_opendate, _description, _amount, _balance, _limit, _paystatus) = abi.decode(item, (string,string,uint,uint,uint,string));\n    Item memory _item = Item(_opendate, _description, _amount, _balance, _limit, _paystatus);\n    ReportItem memory ritem = ReportItem(msg.sender,_item);\n    reports[consumer].push(ritem);\n  }\n\n  /**\n   * retrieves consumer report by a subscriber, fee is paid to the owner\n   */\n  function getConsumerReport(address consumer, address payable to)\n    public\n    payable\n    onlySubscriber\n    isOwner(to)\n    requiresFee(0.001 ether)\n    returns (string memory)\n  {\n    to.transfer(msg.value);\n    Inquiry memory inquiry = Inquiry(msg.sender, block.timestamp);\n    inquiries[consumer].push(inquiry);\n    return _report(consumer);\n  }\n\n  /**\n   * retrieves consumer report by the consumer, no fees\n   */\n  function getCreditReport()\n    public\n    onlyConsumer\n    returns (string memory)\n  {\n    Inquiry memory inquiry = Inquiry(msg.sender, block.timestamp);\n    inquiries[msg.sender].push(inquiry);\n    return _report(msg.sender);\n  }\n\n  function openDispute(uint index, string memory disputeDate,string memory reason)\n    public\n    onlyConsumer\n  {\n    ReportItem memory report = ReportItem(reports[msg.sender][index].subscriber,reports[msg.sender][index].item);\n    Dispute memory dispute = Dispute(index, report.subscriber, msg.sender, disputeDate, report, reason, \"\");\n    disputes[msg.sender].push(dispute);\n    message[report.subscriber].push(\n      string(\n        abi.encodePacked(\n          \"Dispute Opened:\",\n          index,\n          report.subscriber,\n          msg.sender,\n          disputeDate,\n          report.item.opendate,\n          report.item.description,\n          report.item.amount,\n          report.item.balance,\n          report.item.limit,\n          report.item.paystatus,\n          reason\n        )\n      )\n    );\n    emit SubscriberNotified(report.subscriber, \"new dispute opened\");\n  }\n\n  function finalizeDispute(address consumer,uint index,string memory status, bool purge)\n    public\n    onlySubscriber\n  {\n    Dispute memory dispute = Dispute(\n      index,\n      disputes[consumer][index].subscriber,\n      disputes[consumer][index].consumer,\n      disputes[consumer][index].disputeDate,\n      disputes[consumer][index].item,\n      disputes[consumer][index].reason,\n      status\n    );\n\n    if (purge) {\n      delete disputes[consumer][index];\n    } else {\n      disputes[consumer][index] = dispute;\n    }\n    emit ConsumerNotified(consumer, \"dispute finalized\");\n  }\n\n  function getReportsByConsumer(address consumer)\n    public\n    view\n    onlyOwner\n    returns (string memory)\n  {\n    return _report(consumer);\n  }\n\n  /**\n   * The contract owner will pull a list of disputes,\n   * while iterating through each dispute,\n   * convert the disputeDate from ISO string to an epoch timestamp and get current time in epoch timestamp,\n   * check if the dispute is expired by more than 30 days from current time,\n   * if dispute is expired, delete the dispute and notifiy consumer\n   */\n  function getDisputes(address consumer)\n    public\n    view\n    onlyOwner\n    returns (string memory)\n  {\n    string memory output = \"\";\n    for (uint i = 0; i < disputes[consumer].length; i++) {\n      Dispute memory _dispute = Dispute(\n        disputes[consumer][i].index,\n        disputes[consumer][i].subscriber,\n        disputes[consumer][i].consumer,\n        disputes[consumer][i].disputeDate,\n        disputes[consumer][i].item,\n        disputes[consumer][i].reason,\n        disputes[consumer][i].status\n      );\n      output = string(\n        abi.encodePacked(\n          output,\n          \"[\",\n          _dispute.index,\n          _dispute.subscriber,\n          _dispute.consumer,\n          _dispute.disputeDate,\n          _dispute.reason,\n          _dispute.status,\n          \"]\"\n        )\n      );\n    }\n    return output;\n  }\n\n  /**\n   * The disputeDate is in ISO and must be converted to epoch timestamp before checking current time\n   * The currentTime is epoch timestamp provided by the caller\n   */\n  function checkExpiry(uint256 LastTimeStamp, uint256 currentTime)\n   public\n   pure\n   returns(bool success)\n  {\n    if (LastTimeStamp + 30 days >= currentTime) {\n      return true;\n    } else {\n      return false;\n    }\n  }\n\n  function purgeDispute(address consumer, uint index)\n    public\n    onlyOwner\n  {\n    delete disputes[consumer][index];\n    emit ConsumerNotified(consumer, \"dispute deleted\");\n  }\n\n  function sendMessage(address _recipient, string memory _message)\n    public\n  {\n    message[_recipient].push(_message);\n  }\n\n  function readMessage()\n    public\n    view\n    returns (string memory)\n  {\n    string memory output = \"\";\n    for (uint i = 0; i < message[msg.sender].length; i++) {\n      string memory _message = message[msg.sender][i];\n      output = string(abi.encodePacked(output, \"[\", _message, \"]\"));\n    }\n    return output;\n  }\n\n  /**\n   * Internal function to return credit report items by consumer\n   */\n  function _report(address consumer)\n    internal\n    view\n    returns (string memory)\n  {\n    string memory output;\n    for (uint i = 0; i < reports[consumer].length; i++) {\n      output = string(abi.encodePacked(\n        output, \"[\",\n          reports[consumer][i].subscriber, \",\",\n          reports[consumer][i].item.opendate, \",\",\n          reports[consumer][i].item.description, \",\",\n          reports[consumer][i].item.amount, \",\",\n          reports[consumer][i].item.balance, \",\",\n          reports[consumer][i].item.limit, \",\",\n          reports[consumer][i].item.paystatus,\n        \"]\"\n      ));\n    }\n    return output;\n  }\n}\n",
  "sourcePath": "G:\\projects\\redeecash-cra-token\\contracts\\CreditReport.sol",
  "compiler": {
    "name": "solc",
    "version": "0.8.10+commit.fc410830.Emscripten.clang"
  },
  "schemaVersion": "3.4.3",
  "updatedAt": "2021-12-15T13:46:53.504Z",
  "devdoc": {
    "kind": "dev",
    "methods": {},
    "version": 1
  },
  "userdoc": {
    "kind": "user",
    "methods": {
      "addConsumerItem(address,bytes)": {
        "notice": "adds an item to the consumer report by an existing subscriber, must contain the minimum:    subscriber, open date, amount, description, balance, limit, payment status"
      },
      "addSubscriber(address,uint256)": {
        "notice": "adds a new subscriber"
      },
      "checkExpiry(uint256,uint256)": {
        "notice": "The disputeDate is in ISO and must be converted to epoch timestamp before checking current time The currentTime is epoch timestamp provided by the caller"
      },
      "getConsumerReport(address,address)": {
        "notice": "retrieves consumer report by a subscriber, fee is paid to the owner"
      },
      "getCreditReport()": {
        "notice": "retrieves consumer report by the consumer, no fees"
      },
      "getDisputes(address)": {
        "notice": "The contract owner will pull a list of disputes, while iterating through each dispute, convert the disputeDate from ISO string to an epoch timestamp and get current time in epoch timestamp, check if the dispute is expired by more than 30 days from current time, if dispute is expired, delete the dispute and notifiy consumer"
      },
      "getOwner()": {
        "notice": "retrieves the owner"
      }
    },
    "version": 1
  }
}