{
  "contractName": "CreditReport",
  "abi": [
    {
      "inputs": [],
      "stateMutability": "nonpayable",
      "type": "constructor"
    },
    {
      "anonymous": false,
      "inputs": [
        {
          "indexed": false,
          "internalType": "address",
          "name": "addr",
          "type": "address"
        },
        {
          "indexed": false,
          "internalType": "string",
          "name": "message",
          "type": "string"
        }
      ],
      "name": "ConsumerNotified",
      "type": "event"
    },
    {
      "anonymous": false,
      "inputs": [
        {
          "indexed": false,
          "internalType": "address",
          "name": "addr",
          "type": "address"
        },
        {
          "indexed": false,
          "internalType": "string",
          "name": "message",
          "type": "string"
        }
      ],
      "name": "SubscriberAdded",
      "type": "event"
    },
    {
      "anonymous": false,
      "inputs": [
        {
          "indexed": false,
          "internalType": "address",
          "name": "addr",
          "type": "address"
        },
        {
          "indexed": false,
          "internalType": "string",
          "name": "message",
          "type": "string"
        }
      ],
      "name": "SubscriberNotified",
      "type": "event"
    },
    {
      "inputs": [],
      "name": "getOwner",
      "outputs": [
        {
          "internalType": "address",
          "name": "addr",
          "type": "address"
        }
      ],
      "stateMutability": "view",
      "type": "function",
      "constant": true
    },
    {
      "inputs": [],
      "name": "getUserRole",
      "outputs": [
        {
          "internalType": "string",
          "name": "",
          "type": "string"
        }
      ],
      "stateMutability": "view",
      "type": "function",
      "constant": true
    },
    {
      "inputs": [
        {
          "internalType": "address",
          "name": "addr",
          "type": "address"
        },
        {
          "internalType": "uint256",
          "name": "_type",
          "type": "uint256"
        }
      ],
      "name": "addSubscriber",
      "outputs": [],
      "stateMutability": "nonpayable",
      "type": "function"
    },
    {
      "inputs": [],
      "name": "getSubscribers",
      "outputs": [
        {
          "internalType": "address[]",
          "name": "",
          "type": "address[]"
        }
      ],
      "stateMutability": "view",
      "type": "function",
      "constant": true
    },
    {
      "inputs": [],
      "name": "getConsumers",
      "outputs": [
        {
          "internalType": "address[]",
          "name": "",
          "type": "address[]"
        }
      ],
      "stateMutability": "view",
      "type": "function",
      "constant": true
    },
    {
      "inputs": [
        {
          "internalType": "address",
          "name": "consumer",
          "type": "address"
        },
        {
          "internalType": "bytes",
          "name": "item",
          "type": "bytes"
        }
      ],
      "name": "addConsumerItem",
      "outputs": [],
      "stateMutability": "nonpayable",
      "type": "function"
    },
    {
      "inputs": [
        {
          "internalType": "address",
          "name": "consumer",
          "type": "address"
        },
        {
          "internalType": "uint256",
          "name": "reqtime",
          "type": "uint256"
        },
        {
          "internalType": "address payable",
          "name": "to",
          "type": "address"
        }
      ],
      "name": "getConsumerReport",
      "outputs": [
        {
          "internalType": "string",
          "name": "",
          "type": "string"
        }
      ],
      "stateMutability": "payable",
      "type": "function",
      "payable": true
    },
    {
      "inputs": [
        {
          "internalType": "uint256",
          "name": "reqtime",
          "type": "uint256"
        }
      ],
      "name": "getCreditReport",
      "outputs": [
        {
          "internalType": "string",
          "name": "",
          "type": "string"
        }
      ],
      "stateMutability": "payable",
      "type": "function",
      "payable": true
    },
    {
      "inputs": [
        {
          "internalType": "address",
          "name": "consumer",
          "type": "address"
        },
        {
          "internalType": "address",
          "name": "subscriber",
          "type": "address"
        },
        {
          "internalType": "uint256",
          "name": "reqtime",
          "type": "uint256"
        }
      ],
      "name": "getFreeCreditReport",
      "outputs": [
        {
          "internalType": "string",
          "name": "",
          "type": "string"
        }
      ],
      "stateMutability": "payable",
      "type": "function",
      "payable": true
    },
    {
      "inputs": [],
      "name": "getInquiries",
      "outputs": [
        {
          "internalType": "string",
          "name": "",
          "type": "string"
        }
      ],
      "stateMutability": "view",
      "type": "function",
      "constant": true
    },
    {
      "inputs": [
        {
          "internalType": "address",
          "name": "consumer",
          "type": "address"
        },
        {
          "internalType": "uint256",
          "name": "index",
          "type": "uint256"
        },
        {
          "internalType": "string",
          "name": "disputeDate",
          "type": "string"
        },
        {
          "internalType": "string",
          "name": "reason",
          "type": "string"
        }
      ],
      "name": "openDispute",
      "outputs": [],
      "stateMutability": "nonpayable",
      "type": "function"
    },
    {
      "inputs": [
        {
          "internalType": "address",
          "name": "consumer",
          "type": "address"
        },
        {
          "internalType": "uint256",
          "name": "index",
          "type": "uint256"
        },
        {
          "internalType": "string",
          "name": "status",
          "type": "string"
        },
        {
          "internalType": "bool",
          "name": "purge",
          "type": "bool"
        }
      ],
      "name": "finalizeDispute",
      "outputs": [],
      "stateMutability": "nonpayable",
      "type": "function"
    },
    {
      "inputs": [
        {
          "internalType": "address",
          "name": "consumer",
          "type": "address"
        }
      ],
      "name": "getReportsByConsumer",
      "outputs": [
        {
          "internalType": "string",
          "name": "",
          "type": "string"
        }
      ],
      "stateMutability": "view",
      "type": "function",
      "constant": true
    },
    {
      "inputs": [],
      "name": "getBlocktime",
      "outputs": [
        {
          "internalType": "uint256",
          "name": "",
          "type": "uint256"
        }
      ],
      "stateMutability": "view",
      "type": "function",
      "constant": true
    },
    {
      "inputs": [
        {
          "internalType": "address",
          "name": "consumer",
          "type": "address"
        }
      ],
      "name": "getDisputes",
      "outputs": [
        {
          "internalType": "string",
          "name": "",
          "type": "string"
        }
      ],
      "stateMutability": "view",
      "type": "function",
      "constant": true
    },
    {
      "inputs": [
        {
          "internalType": "uint256",
          "name": "LastTimeStamp",
          "type": "uint256"
        },
        {
          "internalType": "uint256",
          "name": "currentTime",
          "type": "uint256"
        }
      ],
      "name": "checkExpiry",
      "outputs": [
        {
          "internalType": "bool",
          "name": "success",
          "type": "bool"
        }
      ],
      "stateMutability": "pure",
      "type": "function",
      "constant": true
    },
    {
      "inputs": [
        {
          "internalType": "address",
          "name": "consumer",
          "type": "address"
        },
        {
          "internalType": "uint256",
          "name": "index",
          "type": "uint256"
        }
      ],
      "name": "purgeDispute",
      "outputs": [],
      "stateMutability": "nonpayable",
      "type": "function"
    },
    {
      "inputs": [
        {
          "internalType": "address",
          "name": "_recipient",
          "type": "address"
        },
        {
          "internalType": "string",
          "name": "_message",
          "type": "string"
        }
      ],
      "name": "sendMessage",
      "outputs": [],
      "stateMutability": "nonpayable",
      "type": "function"
    },
    {
      "inputs": [],
      "name": "readMessage",
      "outputs": [
        {
          "internalType": "string",
          "name": "",
          "type": "string"
        }
      ],
      "stateMutability": "view",
      "type": "function",
      "constant": true
    }
  ],
  "bytecode": "0x6080604052600060075534801561001557600080fd5b5033600a60006101000a81548173ffffffffffffffffffffffffffffffffffffffff021916908373ffffffffffffffffffffffffffffffffffffffff160217905550614b83806100666000396000f3fe6080604052600436106101145760003560e01c806375cb1c43116100a0578063d7fdd77011610064578063d7fdd7701461038c578063d91ed51d146103c9578063de6f24bb146103f4578063e09ee3af1461041d578063f7bddce41461045a57610114565b806375cb1c43146102ad578063893d20e8146102d6578063a264c26c14610301578063bf04a10d14610331578063d69997801461035c57610114565b806338cf7a27116100e757806338cf7a27146101ca5780633b729b86146101f35780633d5913ae1461021e57806357486eb6146102475780636138d5971461027057610114565b8063031d5d01146101195780630501b79f1461014457806305cc61ad1461016f57806318a928811461019a575b600080fd5b34801561012557600080fd5b5061012e610483565b60405161013b91906136f5565b60405180910390f35b34801561015057600080fd5b5061015961060e565b6040516101669190613730565b60405180910390f35b34801561017b57600080fd5b50610184610616565b604051610191919061383b565b60405180910390f35b6101b460048036038101906101af919061389d565b610734565b6040516101c191906136f5565b60405180910390f35b3480156101d657600080fd5b506101f160048036038101906101ec9190613a2b565b6108b5565b005b3480156101ff57600080fd5b50610208610bea565b604051610215919061383b565b60405180910390f35b34801561022a57600080fd5b5061024560048036038101906102409190613a87565b610d08565b005b34801561025357600080fd5b5061026e60048036038101906102699190613b68565b610ef9565b005b34801561027c57600080fd5b5061029760048036038101906102929190613c07565b611452565b6040516102a491906136f5565b60405180910390f35b3480156102b957600080fd5b506102d460048036038101906102cf9190613c6c565b6114f4565b005b3480156102e257600080fd5b506102eb611d37565b6040516102f89190613cfe565b60405180910390f35b61031b60048036038101906103169190613d19565b611d61565b60405161032891906136f5565b60405180910390f35b34801561033d57600080fd5b506103466121d3565b60405161035391906136f5565b60405180910390f35b61037660048036038101906103719190613daa565b61241c565b60405161038391906136f5565b60405180910390f35b34801561039857600080fd5b506103b360048036038101906103ae9190613dfd565b612693565b6040516103c09190613e4c565b60405180910390f35b3480156103d557600080fd5b506103de6126be565b6040516103eb91906136f5565b60405180910390f35b34801561040057600080fd5b5061041b60048036038101906104169190613e67565b6128c9565b005b34801561042957600080fd5b50610444600480360381019061043f9190613c07565b612946565b60405161045191906136f5565b60405180910390f35b34801561046657600080fd5b50610481600480360381019061047c9190613a87565b613078565b005b6060600060405180602001604052806000815250905060005b600860003373ffffffffffffffffffffffffffffffffffffffff1673ffffffffffffffffffffffffffffffffffffffff16815260200190815260200160002080549050811015610606576000600860003373ffffffffffffffffffffffffffffffffffffffff1673ffffffffffffffffffffffffffffffffffffffff168152602001908152602001600020828154811061053957610538613ec3565b5b90600052602060002001805461054e90613f21565b80601f016020809104026020016040519081016040528092919081815260200182805461057a90613f21565b80156105c75780601f1061059c576101008083540402835291602001916105c7565b820191906000526020600020905b8154815290600101906020018083116105aa57829003601f168201915b5050505050905082816040516020016105e1929190614027565b60405160208183030381529060405292505080806105fe90614090565b91505061049c565b508091505090565b600042905090565b6060600a60009054906101000a900473ffffffffffffffffffffffffffffffffffffffff1673ffffffffffffffffffffffffffffffffffffffff163373ffffffffffffffffffffffffffffffffffffffff16146106a8576040517f08c379a000000000000000000000000000000000000000000000000000000000815260040161069f90614125565b60405180910390fd5b600580548060200260200160405190810160405280929190818152602001828054801561072a57602002820191906000526020600020905b8160009054906101000a900473ffffffffffffffffffffffffffffffffffffffff1673ffffffffffffffffffffffffffffffffffffffff16815260200190600101908083116106e0575b5050505050905090565b60606000600260003373ffffffffffffffffffffffffffffffffffffffff1673ffffffffffffffffffffffffffffffffffffffff1681526020019081526020016000205414156107b9576040517f08c379a00000000000000000000000000000000000000000000000000000000081526004016107b090614191565b60405180910390fd5b600060405180604001604052803373ffffffffffffffffffffffffffffffffffffffff168152602001848152509050600360003373ffffffffffffffffffffffffffffffffffffffff1673ffffffffffffffffffffffffffffffffffffffff16815260200190815260200160002081908060018154018082558091505060019003906000526020600020906002020160009091909190915060008201518160000160006101000a81548173ffffffffffffffffffffffffffffffffffffffff021916908373ffffffffffffffffffffffffffffffffffffffff1602179055506020820151816001015550506108ad33613340565b915050919050565b6000600160003373ffffffffffffffffffffffffffffffffffffffff1673ffffffffffffffffffffffffffffffffffffffff168152602001908152602001600020541415610938576040517f08c379a000000000000000000000000000000000000000000000000000000000815260040161092f906141fd565b60405180910390fd5b600073ffffffffffffffffffffffffffffffffffffffff168273ffffffffffffffffffffffffffffffffffffffff1614156109a8576040517f08c379a000000000000000000000000000000000000000000000000000000000815260040161099f90614269565b60405180910390fd5b6000600260008473ffffffffffffffffffffffffffffffffffffffff1673ffffffffffffffffffffffffffffffffffffffff168152602001908152602001600020541415610ab1576001600260008473ffffffffffffffffffffffffffffffffffffffff1673ffffffffffffffffffffffffffffffffffffffff168152602001908152602001600020819055506006829080600181540180825580915050600190039060005260206000200160009091909190916101000a81548173ffffffffffffffffffffffffffffffffffffffff021916908373ffffffffffffffffffffffffffffffffffffffff16021790555060076000815480929190610aab90614090565b91905055505b600060405180604001604052803373ffffffffffffffffffffffffffffffffffffffff1681526020018381525090506000808473ffffffffffffffffffffffffffffffffffffffff1673ffffffffffffffffffffffffffffffffffffffff16815260200190815260200160002081908060018154018082558091505060019003906000526020600020906002020160009091909190915060008201518160000160006101000a81548173ffffffffffffffffffffffffffffffffffffffff021916908373ffffffffffffffffffffffffffffffffffffffff1602179055506020820151816001019080519060200190610bab9291906134b3565b5050507fd87358bdb9fb3fd22dc44bf9aec10b565d35f5b8c903db24b4addfb35594895c83604051610bdd91906142fb565b60405180910390a1505050565b6060600a60009054906101000a900473ffffffffffffffffffffffffffffffffffffffff1673ffffffffffffffffffffffffffffffffffffffff163373ffffffffffffffffffffffffffffffffffffffff1614610c7c576040517f08c379a0000000000000000000000000000000000000000000000000000000008152600401610c7390614125565b60405180910390fd5b6006805480602002602001604051908101604052809291908181526020018280548015610cfe57602002820191906000526020600020905b8160009054906101000a900473ffffffffffffffffffffffffffffffffffffffff1673ffffffffffffffffffffffffffffffffffffffff1681526020019060010190808311610cb4575b5050505050905090565b600a60009054906101000a900473ffffffffffffffffffffffffffffffffffffffff1673ffffffffffffffffffffffffffffffffffffffff163373ffffffffffffffffffffffffffffffffffffffff1614610d98576040517f08c379a0000000000000000000000000000000000000000000000000000000008152600401610d8f90614125565b60405180910390fd5b600460008373ffffffffffffffffffffffffffffffffffffffff1673ffffffffffffffffffffffffffffffffffffffff1681526020019081526020016000208181548110610de957610de8613ec3565b5b90600052602060002090600802016000808201600090556001820160006101000a81549073ffffffffffffffffffffffffffffffffffffffff02191690556002820160006101000a81549073ffffffffffffffffffffffffffffffffffffffff0219169055600382016000610e5e9190613539565b60048201600080820160006101000a81549073ffffffffffffffffffffffffffffffffffffffff0219169055600182016000610e9a9190613579565b5050600682016000610eac9190613539565b600782016000610ebc9190613539565b50507fd87358bdb9fb3fd22dc44bf9aec10b565d35f5b8c903db24b4addfb35594895c82604051610eed9190614375565b60405180910390a15050565b600a60009054906101000a900473ffffffffffffffffffffffffffffffffffffffff1673ffffffffffffffffffffffffffffffffffffffff163373ffffffffffffffffffffffffffffffffffffffff1614610f89576040517f08c379a0000000000000000000000000000000000000000000000000000000008152600401610f8090614125565b60405180910390fd5b600060405180604001604052806000808873ffffffffffffffffffffffffffffffffffffffff1673ffffffffffffffffffffffffffffffffffffffff1681526020019081526020016000208681548110610fe657610fe5613ec3565b5b906000526020600020906002020160000160009054906101000a900473ffffffffffffffffffffffffffffffffffffffff1673ffffffffffffffffffffffffffffffffffffffff1681526020016000808873ffffffffffffffffffffffffffffffffffffffff1673ffffffffffffffffffffffffffffffffffffffff168152602001908152602001600020868154811061108357611082613ec3565b5b9060005260206000209060020201600101805461109f90613f21565b80601f01602080910402602001604051908101604052809291908181526020018280546110cb90613f21565b80156111185780601f106110ed57610100808354040283529160200191611118565b820191906000526020600020905b8154815290600101906020018083116110fb57829003601f168201915b5050505050815250905060006040518060e00160405280868152602001836000015173ffffffffffffffffffffffffffffffffffffffff1681526020018773ffffffffffffffffffffffffffffffffffffffff168152602001858152602001838152602001848152602001604051806020016040528060008152508152509050600460008773ffffffffffffffffffffffffffffffffffffffff1673ffffffffffffffffffffffffffffffffffffffff1681526020019081526020016000208190806001815401808255809150506001900390600052602060002090600802016000909190919091506000820151816000015560208201518160010160006101000a81548173ffffffffffffffffffffffffffffffffffffffff021916908373ffffffffffffffffffffffffffffffffffffffff16021790555060408201518160020160006101000a81548173ffffffffffffffffffffffffffffffffffffffff021916908373ffffffffffffffffffffffffffffffffffffffff16021790555060608201518160030190805190602001906112b59291906135b9565b5060808201518160040160008201518160000160006101000a81548173ffffffffffffffffffffffffffffffffffffffff021916908373ffffffffffffffffffffffffffffffffffffffff16021790555060208201518160010190805190602001906113229291906134b3565b50505060a08201518160060190805190602001906113419291906135b9565b5060c082015181600701908051906020019061135e9291906135b9565b50505060086000836000015173ffffffffffffffffffffffffffffffffffffffff1673ffffffffffffffffffffffffffffffffffffffff16815260200190815260200160002085836000015188878660200151886040516020016113c79695949392919061449f565b60405160208183030381529060405290806001815401808255809150506001900390600052602060002001600090919091909150908051906020019061140e9291906135b9565b507fde371f040710867afadb0d380ec315de30e2cdd4edd5062dd8c82c7418784ad78260000151604051611442919061455a565b60405180910390a1505050505050565b6060600a60009054906101000a900473ffffffffffffffffffffffffffffffffffffffff1673ffffffffffffffffffffffffffffffffffffffff163373ffffffffffffffffffffffffffffffffffffffff16146114e4576040517f08c379a00000000000000000000000000000000000000000000000000000000081526004016114db90614125565b60405180910390fd5b6114ed82613340565b9050919050565b6000600160003373ffffffffffffffffffffffffffffffffffffffff1673ffffffffffffffffffffffffffffffffffffffff168152602001908152602001600020541415611577576040517f08c379a000000000000000000000000000000000000000000000000000000000815260040161156e906141fd565b60405180910390fd5b60006040518060e00160405280858152602001600460008873ffffffffffffffffffffffffffffffffffffffff1673ffffffffffffffffffffffffffffffffffffffff16815260200190815260200160002086815481106115db576115da613ec3565b5b906000526020600020906008020160010160009054906101000a900473ffffffffffffffffffffffffffffffffffffffff1673ffffffffffffffffffffffffffffffffffffffff168152602001600460008873ffffffffffffffffffffffffffffffffffffffff1673ffffffffffffffffffffffffffffffffffffffff168152602001908152602001600020868154811061167957611678613ec3565b5b906000526020600020906008020160020160009054906101000a900473ffffffffffffffffffffffffffffffffffffffff1673ffffffffffffffffffffffffffffffffffffffff168152602001600460008873ffffffffffffffffffffffffffffffffffffffff1673ffffffffffffffffffffffffffffffffffffffff168152602001908152602001600020868154811061171757611716613ec3565b5b9060005260206000209060080201600301805461173390613f21565b80601f016020809104026020016040519081016040528092919081815260200182805461175f90613f21565b80156117ac5780601f10611781576101008083540402835291602001916117ac565b820191906000526020600020905b81548152906001019060200180831161178f57829003601f168201915b50505050508152602001600460008873ffffffffffffffffffffffffffffffffffffffff1673ffffffffffffffffffffffffffffffffffffffff168152602001908152602001600020868154811061180757611806613ec3565b5b90600052602060002090600802016004016040518060400160405290816000820160009054906101000a900473ffffffffffffffffffffffffffffffffffffffff1673ffffffffffffffffffffffffffffffffffffffff1673ffffffffffffffffffffffffffffffffffffffff16815260200160018201805461188990613f21565b80601f01602080910402602001604051908101604052809291908181526020018280546118b590613f21565b80156119025780601f106118d757610100808354040283529160200191611902565b820191906000526020600020905b8154815290600101906020018083116118e557829003601f168201915b5050505050815250508152602001600460008873ffffffffffffffffffffffffffffffffffffffff1673ffffffffffffffffffffffffffffffffffffffff168152602001908152602001600020868154811061196157611960613ec3565b5b9060005260206000209060080201600601805461197d90613f21565b80601f01602080910402602001604051908101604052809291908181526020018280546119a990613f21565b80156119f65780601f106119cb576101008083540402835291602001916119f6565b820191906000526020600020905b8154815290600101906020018083116119d957829003601f168201915b505050505081526020018481525090508115611b3757600460008673ffffffffffffffffffffffffffffffffffffffff1673ffffffffffffffffffffffffffffffffffffffff1681526020019081526020016000208481548110611a5d57611a5c613ec3565b5b90600052602060002090600802016000808201600090556001820160006101000a81549073ffffffffffffffffffffffffffffffffffffffff02191690556002820160006101000a81549073ffffffffffffffffffffffffffffffffffffffff0219169055600382016000611ad29190613539565b60048201600080820160006101000a81549073ffffffffffffffffffffffffffffffffffffffff0219169055600182016000611b0e9190613579565b5050600682016000611b209190613539565b600782016000611b309190613539565b5050611cf9565b80600460008773ffffffffffffffffffffffffffffffffffffffff1673ffffffffffffffffffffffffffffffffffffffff1681526020019081526020016000208581548110611b8957611b88613ec3565b5b90600052602060002090600802016000820151816000015560208201518160010160006101000a81548173ffffffffffffffffffffffffffffffffffffffff021916908373ffffffffffffffffffffffffffffffffffffffff16021790555060408201518160020160006101000a81548173ffffffffffffffffffffffffffffffffffffffff021916908373ffffffffffffffffffffffffffffffffffffffff1602179055506060820151816003019080519060200190611c4b9291906135b9565b5060808201518160040160008201518160000160006101000a81548173ffffffffffffffffffffffffffffffffffffffff021916908373ffffffffffffffffffffffffffffffffffffffff1602179055506020820151816001019080519060200190611cb89291906134b3565b50505060a0820151816006019080519060200190611cd79291906135b9565b5060c0820151816007019080519060200190611cf49291906135b9565b509050505b7fd87358bdb9fb3fd22dc44bf9aec10b565d35f5b8c903db24b4addfb35594895c85604051611d2891906145d4565b60405180910390a15050505050565b6000600a60009054906101000a900473ffffffffffffffffffffffffffffffffffffffff16905090565b6060600a60009054906101000a900473ffffffffffffffffffffffffffffffffffffffff1673ffffffffffffffffffffffffffffffffffffffff163373ffffffffffffffffffffffffffffffffffffffff1614611df3576040517f08c379a0000000000000000000000000000000000000000000000000000000008152600401611dea90614125565b60405180910390fd5b8383836000808290506000600360008773ffffffffffffffffffffffffffffffffffffffff1673ffffffffffffffffffffffffffffffffffffffff1681526020019081526020016000208054905090505b6000811115611f9f5782158015611f1d5750600060016000600360008a73ffffffffffffffffffffffffffffffffffffffff1673ffffffffffffffffffffffffffffffffffffffff1681526020019081526020016000208481548110611ead57611eac613ec3565b5b906000526020600020906002020160000160009054906101000a900473ffffffffffffffffffffffffffffffffffffffff1673ffffffffffffffffffffffffffffffffffffffff1673ffffffffffffffffffffffffffffffffffffffff1681526020019081526020016000205414155b15611f8c57600360008773ffffffffffffffffffffffffffffffffffffffff1673ffffffffffffffffffffffffffffffffffffffff1681526020019081526020016000208181548110611f7357611f72613ec3565b5b9060005260206000209060020201600101549150600192505b8080611f9790614602565b915050611e44565b5060006001600360008873ffffffffffffffffffffffffffffffffffffffff1673ffffffffffffffffffffffffffffffffffffffff16815260200190815260200160002080549050611ff1919061462c565b90506000600360008873ffffffffffffffffffffffffffffffffffffffff1673ffffffffffffffffffffffffffffffffffffffff168152602001908152602001600020828154811061204657612045613ec3565b5b906000526020600020906002020160010154905060008114806120775750846301dfe200826120759190614660565b115b8061208f5750846276a7008461208d9190614660565b105b6120ce576040517f08c379a00000000000000000000000000000000000000000000000000000000081526004016120c590614702565b60405180910390fd5b600060405180604001604052808d73ffffffffffffffffffffffffffffffffffffffff1681526020018b8152509050600360008d73ffffffffffffffffffffffffffffffffffffffff1673ffffffffffffffffffffffffffffffffffffffff16815260200190815260200160002081908060018154018082558091505060019003906000526020600020906002020160009091909190915060008201518160000160006101000a81548173ffffffffffffffffffffffffffffffffffffffff021916908373ffffffffffffffffffffffffffffffffffffffff1602179055506020820151816001015550506121c28c613340565b985050505050505050509392505050565b6060600073ffffffffffffffffffffffffffffffffffffffff163373ffffffffffffffffffffffffffffffffffffffff161415612245576040517f08c379a000000000000000000000000000000000000000000000000000000000815260040161223c9061476e565b60405180910390fd5b600a60009054906101000a900473ffffffffffffffffffffffffffffffffffffffff1673ffffffffffffffffffffffffffffffffffffffff163373ffffffffffffffffffffffffffffffffffffffff1614156122d8576040518060400160405280600581526020017f6f776e65720000000000000000000000000000000000000000000000000000008152509050612419565b6000600160003373ffffffffffffffffffffffffffffffffffffffff1673ffffffffffffffffffffffffffffffffffffffff168152602001908152602001600020541461235c576040518060400160405280600a81526020017f73756273637269626572000000000000000000000000000000000000000000008152509050612419565b6000600260003373ffffffffffffffffffffffffffffffffffffffff1673ffffffffffffffffffffffffffffffffffffffff16815260200190815260200160002054146123e0576040518060400160405280600881526020017f636f6e73756d65720000000000000000000000000000000000000000000000008152509050612419565b6040518060400160405280600781526020017f756e6b6e6f776e0000000000000000000000000000000000000000000000000081525090505b90565b60606000600160003373ffffffffffffffffffffffffffffffffffffffff1673ffffffffffffffffffffffffffffffffffffffff1681526020019081526020016000205414156124a1576040517f08c379a0000000000000000000000000000000000000000000000000000000008152600401612498906141fd565b60405180910390fd5b81600a60009054906101000a900473ffffffffffffffffffffffffffffffffffffffff1673ffffffffffffffffffffffffffffffffffffffff168173ffffffffffffffffffffffffffffffffffffffff1614612532576040517f08c379a0000000000000000000000000000000000000000000000000000000008152600401612529906147da565b60405180910390fd5b66038d7ea4c68000803373ffffffffffffffffffffffffffffffffffffffff163111612593576040517f08c379a000000000000000000000000000000000000000000000000000000000815260040161258a90614846565b60405180910390fd5b600060405180604001604052803373ffffffffffffffffffffffffffffffffffffffff168152602001878152509050600360008873ffffffffffffffffffffffffffffffffffffffff1673ffffffffffffffffffffffffffffffffffffffff16815260200190815260200160002081908060018154018082558091505060019003906000526020600020906002020160009091909190915060008201518160000160006101000a81548173ffffffffffffffffffffffffffffffffffffffff021916908373ffffffffffffffffffffffffffffffffffffffff16021790555060208201518160010155505061268787613340565b93505050509392505050565b60008162278d00846126a59190614660565b106126b357600190506126b8565b600090505b92915050565b60606000600260003373ffffffffffffffffffffffffffffffffffffffff1673ffffffffffffffffffffffffffffffffffffffff168152602001908152602001600020541415612743576040517f08c379a000000000000000000000000000000000000000000000000000000000815260040161273a90614191565b60405180910390fd5b600060405180602001604052806000815250905060005b600360003373ffffffffffffffffffffffffffffffffffffffff1673ffffffffffffffffffffffffffffffffffffffff168152602001908152602001600020805490508110156128c15781600360003373ffffffffffffffffffffffffffffffffffffffff1673ffffffffffffffffffffffffffffffffffffffff16815260200190815260200160002082815481106127f6576127f5613ec3565b5b906000526020600020906002020160000160009054906101000a900473ffffffffffffffffffffffffffffffffffffffff16600360003373ffffffffffffffffffffffffffffffffffffffff1673ffffffffffffffffffffffffffffffffffffffff168152602001908152602001600020838154811061287957612878613ec3565b5b90600052602060002090600202016001015460405160200161289d93929190614866565b604051602081830303815290604052915080806128b990614090565b91505061275a565b508091505090565b600860008373ffffffffffffffffffffffffffffffffffffffff1673ffffffffffffffffffffffffffffffffffffffff168152602001908152602001600020819080600181540180825580915050600190039060005260206000200160009091909190915090805190602001906129419291906135b9565b505050565b6060600a60009054906101000a900473ffffffffffffffffffffffffffffffffffffffff1673ffffffffffffffffffffffffffffffffffffffff163373ffffffffffffffffffffffffffffffffffffffff16146129d8576040517f08c379a00000000000000000000000000000000000000000000000000000000081526004016129cf90614125565b60405180910390fd5b600060405180602001604052806000815250905060005b600460008573ffffffffffffffffffffffffffffffffffffffff1673ffffffffffffffffffffffffffffffffffffffff1681526020019081526020016000208054905081101561306e5760006040518060e00160405280600460008873ffffffffffffffffffffffffffffffffffffffff1673ffffffffffffffffffffffffffffffffffffffff1681526020019081526020016000208481548110612a9757612a96613ec3565b5b9060005260206000209060080201600001548152602001600460008873ffffffffffffffffffffffffffffffffffffffff1673ffffffffffffffffffffffffffffffffffffffff1681526020019081526020016000208481548110612aff57612afe613ec3565b5b906000526020600020906008020160010160009054906101000a900473ffffffffffffffffffffffffffffffffffffffff1673ffffffffffffffffffffffffffffffffffffffff168152602001600460008873ffffffffffffffffffffffffffffffffffffffff1673ffffffffffffffffffffffffffffffffffffffff1681526020019081526020016000208481548110612b9d57612b9c613ec3565b5b906000526020600020906008020160020160009054906101000a900473ffffffffffffffffffffffffffffffffffffffff1673ffffffffffffffffffffffffffffffffffffffff168152602001600460008873ffffffffffffffffffffffffffffffffffffffff1673ffffffffffffffffffffffffffffffffffffffff1681526020019081526020016000208481548110612c3b57612c3a613ec3565b5b90600052602060002090600802016003018054612c5790613f21565b80601f0160208091040260200160405190810160405280929190818152602001828054612c8390613f21565b8015612cd05780601f10612ca557610100808354040283529160200191612cd0565b820191906000526020600020905b815481529060010190602001808311612cb357829003601f168201915b50505050508152602001600460008873ffffffffffffffffffffffffffffffffffffffff1673ffffffffffffffffffffffffffffffffffffffff1681526020019081526020016000208481548110612d2b57612d2a613ec3565b5b90600052602060002090600802016004016040518060400160405290816000820160009054906101000a900473ffffffffffffffffffffffffffffffffffffffff1673ffffffffffffffffffffffffffffffffffffffff1673ffffffffffffffffffffffffffffffffffffffff168152602001600182018054612dad90613f21565b80601f0160208091040260200160405190810160405280929190818152602001828054612dd990613f21565b8015612e265780601f10612dfb57610100808354040283529160200191612e26565b820191906000526020600020905b815481529060010190602001808311612e0957829003601f168201915b5050505050815250508152602001600460008873ffffffffffffffffffffffffffffffffffffffff1673ffffffffffffffffffffffffffffffffffffffff1681526020019081526020016000208481548110612e8557612e84613ec3565b5b90600052602060002090600802016006018054612ea190613f21565b80601f0160208091040260200160405190810160405280929190818152602001828054612ecd90613f21565b8015612f1a5780601f10612eef57610100808354040283529160200191612f1a565b820191906000526020600020905b815481529060010190602001808311612efd57829003601f168201915b50505050508152602001600460008873ffffffffffffffffffffffffffffffffffffffff1673ffffffffffffffffffffffffffffffffffffffff1681526020019081526020016000208481548110612f7557612f74613ec3565b5b90600052602060002090600802016007018054612f9190613f21565b80601f0160208091040260200160405190810160405280929190818152602001828054612fbd90613f21565b801561300a5780601f10612fdf5761010080835404028352916020019161300a565b820191906000526020600020905b815481529060010190602001808311612fed57829003601f168201915b505050505081525090508281600001518260200151836040015184606001518560a001518660c00151604051602001613049979695949392919061489f565b604051602081830303815290604052925050808061306690614090565b9150506129ef565b5080915050919050565b600a60009054906101000a900473ffffffffffffffffffffffffffffffffffffffff1673ffffffffffffffffffffffffffffffffffffffff163373ffffffffffffffffffffffffffffffffffffffff1614613108576040517f08c379a00000000000000000000000000000000000000000000000000000000081526004016130ff90614125565b60405180910390fd5b816000805b6005805490508110156131a4578273ffffffffffffffffffffffffffffffffffffffff166005828154811061314557613144613ec3565b5b9060005260206000200160009054906101000a900473ffffffffffffffffffffffffffffffffffffffff1673ffffffffffffffffffffffffffffffffffffffff16141561319157600191505b808061319c90614090565b91505061310d565b5060001515811515146131ec576040517f08c379a00000000000000000000000000000000000000000000000000000000081526004016131e390614972565b60405180910390fd5b600073ffffffffffffffffffffffffffffffffffffffff168473ffffffffffffffffffffffffffffffffffffffff16141561325c576040517f08c379a000000000000000000000000000000000000000000000000000000000815260040161325390614269565b60405180910390fd5b82600160008673ffffffffffffffffffffffffffffffffffffffff1673ffffffffffffffffffffffffffffffffffffffff168152602001908152602001600020819055506005849080600181540180825580915050600190039060005260206000200160009091909190916101000a81548173ffffffffffffffffffffffffffffffffffffffff021916908373ffffffffffffffffffffffffffffffffffffffff1602179055507fae28b319183e2d4a0f4721e7fc4bb1c25a05610d1e2efb85b10dfbf7bbf4761b8460405161333291906149de565b60405180910390a150505050565b60608060005b6000808573ffffffffffffffffffffffffffffffffffffffff1673ffffffffffffffffffffffffffffffffffffffff168152602001908152602001600020805490508110156134a957816000808673ffffffffffffffffffffffffffffffffffffffff1673ffffffffffffffffffffffffffffffffffffffff16815260200190815260200160002082815481106133e0576133df613ec3565b5b906000526020600020906002020160000160009054906101000a900473ffffffffffffffffffffffffffffffffffffffff166000808773ffffffffffffffffffffffffffffffffffffffff1673ffffffffffffffffffffffffffffffffffffffff168152602001908152602001600020838154811061346257613461613ec3565b5b906000526020600020906002020160010160405160200161348593929190614aec565b604051602081830303815290604052915080806134a190614090565b915050613346565b5080915050919050565b8280546134bf90613f21565b90600052602060002090601f0160209004810192826134e15760008555613528565b82601f106134fa57805160ff1916838001178555613528565b82800160010185558215613528579182015b8281111561352757825182559160200191906001019061350c565b5b509050613535919061363f565b5090565b50805461354590613f21565b6000825580601f106135575750613576565b601f016020900490600052602060002090810190613575919061363f565b5b50565b50805461358590613f21565b6000825580601f1061359757506135b6565b601f0160209004906000526020600020908101906135b5919061363f565b5b50565b8280546135c590613f21565b90600052602060002090601f0160209004810192826135e7576000855561362e565b82601f1061360057805160ff191683800117855561362e565b8280016001018555821561362e579182015b8281111561362d578251825591602001919060010190613612565b5b50905061363b919061363f565b5090565b5b80821115613658576000816000905550600101613640565b5090565b600081519050919050565b600082825260208201905092915050565b60005b8381101561369657808201518184015260208101905061367b565b838111156136a5576000848401525b50505050565b6000601f19601f8301169050919050565b60006136c78261365c565b6136d18185613667565b93506136e1818560208601613678565b6136ea816136ab565b840191505092915050565b6000602082019050818103600083015261370f81846136bc565b905092915050565b6000819050919050565b61372a81613717565b82525050565b60006020820190506137456000830184613721565b92915050565b600081519050919050565b600082825260208201905092915050565b6000819050602082019050919050565b600073ffffffffffffffffffffffffffffffffffffffff82169050919050565b60006137a282613777565b9050919050565b6137b281613797565b82525050565b60006137c483836137a9565b60208301905092915050565b6000602082019050919050565b60006137e88261374b565b6137f28185613756565b93506137fd83613767565b8060005b8381101561382e57815161381588826137b8565b9750613820836137d0565b925050600181019050613801565b5085935050505092915050565b6000602082019050818103600083015261385581846137dd565b905092915050565b6000604051905090565b600080fd5b600080fd5b61387a81613717565b811461388557600080fd5b50565b60008135905061389781613871565b92915050565b6000602082840312156138b3576138b2613867565b5b60006138c184828501613888565b91505092915050565b6138d381613797565b81146138de57600080fd5b50565b6000813590506138f0816138ca565b92915050565b600080fd5b600080fd5b7f4e487b7100000000000000000000000000000000000000000000000000000000600052604160045260246000fd5b613938826136ab565b810181811067ffffffffffffffff8211171561395757613956613900565b5b80604052505050565b600061396a61385d565b9050613976828261392f565b919050565b600067ffffffffffffffff82111561399657613995613900565b5b61399f826136ab565b9050602081019050919050565b82818337600083830152505050565b60006139ce6139c98461397b565b613960565b9050828152602081018484840111156139ea576139e96138fb565b5b6139f58482856139ac565b509392505050565b600082601f830112613a1257613a116138f6565b5b8135613a228482602086016139bb565b91505092915050565b60008060408385031215613a4257613a41613867565b5b6000613a50858286016138e1565b925050602083013567ffffffffffffffff811115613a7157613a7061386c565b5b613a7d858286016139fd565b9150509250929050565b60008060408385031215613a9e57613a9d613867565b5b6000613aac858286016138e1565b9250506020613abd85828601613888565b9150509250929050565b600067ffffffffffffffff821115613ae257613ae1613900565b5b613aeb826136ab565b9050602081019050919050565b6000613b0b613b0684613ac7565b613960565b905082815260208101848484011115613b2757613b266138fb565b5b613b328482856139ac565b509392505050565b600082601f830112613b4f57613b4e6138f6565b5b8135613b5f848260208601613af8565b91505092915050565b60008060008060808587031215613b8257613b81613867565b5b6000613b90878288016138e1565b9450506020613ba187828801613888565b935050604085013567ffffffffffffffff811115613bc257613bc161386c565b5b613bce87828801613b3a565b925050606085013567ffffffffffffffff811115613bef57613bee61386c565b5b613bfb87828801613b3a565b91505092959194509250565b600060208284031215613c1d57613c1c613867565b5b6000613c2b848285016138e1565b91505092915050565b60008115159050919050565b613c4981613c34565b8114613c5457600080fd5b50565b600081359050613c6681613c40565b92915050565b60008060008060808587031215613c8657613c85613867565b5b6000613c94878288016138e1565b9450506020613ca587828801613888565b935050604085013567ffffffffffffffff811115613cc657613cc561386c565b5b613cd287828801613b3a565b9250506060613ce387828801613c57565b91505092959194509250565b613cf881613797565b82525050565b6000602082019050613d136000830184613cef565b92915050565b600080600060608486031215613d3257613d31613867565b5b6000613d40868287016138e1565b9350506020613d51868287016138e1565b9250506040613d6286828701613888565b9150509250925092565b6000613d7782613777565b9050919050565b613d8781613d6c565b8114613d9257600080fd5b50565b600081359050613da481613d7e565b92915050565b600080600060608486031215613dc357613dc2613867565b5b6000613dd1868287016138e1565b9350506020613de286828701613888565b9250506040613df386828701613d95565b9150509250925092565b60008060408385031215613e1457613e13613867565b5b6000613e2285828601613888565b9250506020613e3385828601613888565b9150509250929050565b613e4681613c34565b82525050565b6000602082019050613e616000830184613e3d565b92915050565b60008060408385031215613e7e57613e7d613867565b5b6000613e8c858286016138e1565b925050602083013567ffffffffffffffff811115613ead57613eac61386c565b5b613eb985828601613b3a565b9150509250929050565b7f4e487b7100000000000000000000000000000000000000000000000000000000600052603260045260246000fd5b7f4e487b7100000000000000000000000000000000000000000000000000000000600052602260045260246000fd5b60006002820490506001821680613f3957607f821691505b60208210811415613f4d57613f4c613ef2565b5b50919050565b600081905092915050565b6000613f698261365c565b613f738185613f53565b9350613f83818560208601613678565b80840191505092915050565b7f5b00000000000000000000000000000000000000000000000000000000000000600082015250565b6000613fc5600183613f53565b9150613fd082613f8f565b600182019050919050565b7f5d00000000000000000000000000000000000000000000000000000000000000600082015250565b6000614011600183613f53565b915061401c82613fdb565b600182019050919050565b60006140338285613f5e565b915061403e82613fb8565b915061404a8284613f5e565b915061405582614004565b91508190509392505050565b7f4e487b7100000000000000000000000000000000000000000000000000000000600052601160045260246000fd5b600061409b82613717565b91507fffffffffffffffffffffffffffffffffffffffffffffffffffffffffffffffff8214156140ce576140cd614061565b5b600182019050919050565b7f6163636573732064656e69656420666f72206f776e6572000000000000000000600082015250565b600061410f601783613667565b915061411a826140d9565b602082019050919050565b6000602082019050818103600083015261413e81614102565b9050919050565b7f6163636573732064656e69656420666f7220636f6e73756d6572000000000000600082015250565b600061417b601a83613667565b915061418682614145565b602082019050919050565b600060208201905081810360008301526141aa8161416e565b9050919050565b7f6163636573732064656e69656420666f72207375627363726962657200000000600082015250565b60006141e7601c83613667565b91506141f2826141b1565b602082019050919050565b60006020820190508181036000830152614216816141da565b9050919050565b7f6d697373696e6720616464726573730000000000000000000000000000000000600082015250565b6000614253600f83613667565b915061425e8261421d565b602082019050919050565b6000602082019050818103600083015261428281614246565b9050919050565b7f6e6577206974656d2077617320616464656420746f20796f7572207265706f7260008201527f7400000000000000000000000000000000000000000000000000000000000000602082015250565b60006142e5602183613667565b91506142f082614289565b604082019050919050565b60006040820190506143106000830184613cef565b8181036020830152614321816142d8565b905092915050565b7f646973707574652064656c657465640000000000000000000000000000000000600082015250565b600061435f600f83613667565b915061436a82614329565b602082019050919050565b600060408201905061438a6000830184613cef565b818103602083015261439b81614352565b905092915050565b7f44697370757465204f70656e65643a0000000000000000000000000000000000600082015250565b60006143d9600f83613f53565b91506143e4826143a3565b600f82019050919050565b6000819050919050565b61440a61440582613717565b6143ef565b82525050565b60008160601b9050919050565b600061442882614410565b9050919050565b600061443a8261441d565b9050919050565b61445261444d82613797565b61442f565b82525050565b600081519050919050565b600081905092915050565b600061447982614458565b6144838185614463565b9350614493818560208601613678565b80840191505092915050565b60006144aa826143cc565b91506144b682896143f9565b6020820191506144c68288614441565b6014820191506144d68287614441565b6014820191506144e68286613f5e565b91506144f2828561446e565b91506144fe8284613f5e565b9150819050979650505050505050565b7f6e65772064697370757465206f70656e65640000000000000000000000000000600082015250565b6000614544601283613667565b915061454f8261450e565b602082019050919050565b600060408201905061456f6000830184613cef565b818103602083015261458081614537565b905092915050565b7f646973707574652066696e616c697a6564000000000000000000000000000000600082015250565b60006145be601183613667565b91506145c982614588565b602082019050919050565b60006040820190506145e96000830184613cef565b81810360208301526145fa816145b1565b905092915050565b600061460d82613717565b9150600082141561462157614620614061565b5b600182039050919050565b600061463782613717565b915061464283613717565b92508282101561465557614654614061565b5b828203905092915050565b600061466b82613717565b915061467683613717565b9250827fffffffffffffffffffffffffffffffffffffffffffffffffffffffffffffffff038211156146ab576146aa614061565b5b828201905092915050565b7f6e6f7420656c696769626c6520666f7220612066726565207265706f72740000600082015250565b60006146ec601e83613667565b91506146f7826146b6565b602082019050919050565b6000602082019050818103600083015261471b816146df565b9050919050565b7f6163636573732064656e69656420666f722073656e6465720000000000000000600082015250565b6000614758601883613667565b915061476382614722565b602082019050919050565b600060208201905081810360008301526147878161474b565b9050919050565b7f6e6f7420746865206f776e657200000000000000000000000000000000000000600082015250565b60006147c4600d83613667565b91506147cf8261478e565b602082019050919050565b600060208201905081810360008301526147f3816147b7565b9050919050565b7f696e73756666696369656e742062616c616e63652f616d6f756e740000000000600082015250565b6000614830601b83613667565b915061483b826147fa565b602082019050919050565b6000602082019050818103600083015261485f81614823565b9050919050565b60006148728286613f5e565b915061487e8285614441565b60148201915061488e82846143f9565b602082019150819050949350505050565b60006148ab828a613f5e565b91506148b682613fb8565b91506148c282896143f9565b6020820191506148d28288614441565b6014820191506148e28287614441565b6014820191506148f28286613f5e565b91506148fe8285613f5e565b915061490a8284613f5e565b915061491582614004565b915081905098975050505050505050565b7f7573657220697320616c72656164792061207375627363726962657200000000600082015250565b600061495c601c83613667565b915061496782614926565b602082019050919050565b6000602082019050818103600083015261498b8161494f565b9050919050565b7f7375627363726962657220616464656400000000000000000000000000000000600082015250565b60006149c8601083613667565b91506149d382614992565b602082019050919050565b60006040820190506149f36000830184613cef565b8181036020830152614a04816149bb565b905092915050565b7f2c00000000000000000000000000000000000000000000000000000000000000600082015250565b6000614a42600183613f53565b9150614a4d82614a0c565b600182019050919050565b60008190508160005260206000209050919050565b60008154614a7a81613f21565b614a848186614463565b94506001821660008114614a9f5760018114614ab057614ae3565b60ff19831686528186019350614ae3565b614ab985614a58565b60005b83811015614adb57815481890152600182019150602081019050614abc565b838801955050505b50505092915050565b6000614af88286613f5e565b9150614b0382613fb8565b9150614b0f8285614441565b601482019150614b1e82614a35565b9150614b2a8284614a6d565b9150614b3582614a35565b9150614b4082614004565b915081905094935050505056fea26469706673582212209faa2a26f3666d3328e35d1c9bd0ee604c3c19744715b7b91370a73a108671a764736f6c634300080a0033",
  "immutableReferences": {},
  "source": "// SPDX-License-Identifier: MIT\npragma solidity >=0.4.22 <0.9.0;\n\ncontract CreditReport {\n  bytes32 constant private ZERO_BYTES = bytes32(0);\n  address constant private ZERO_ADDRESS = address(0);\n\n  struct Item {\n    string opendate;\n    string  description;\n    uint    amount;\n    uint    balance;\n    uint    limit;\n    string  paystatus;\n  }\n\n  struct ReportItem {\n    address subscriber;\n    bytes   item;\n  }\n\n  struct Inquiry {\n    address subscriber;\n    uint256 reqdate; // epoch timestamp\n  }\n\n  struct Dispute {\n    uint index;\n    address subscriber;\n    address consumer;\n    string  disputeDate;\n    ReportItem item;\n    string reason;\n    string status;\n  }\n\n  mapping(address => ReportItem[]) private reports;\n  mapping(address => uint256) private subscribers;\n\n  mapping(address => uint256) private consumers;\n  mapping(address => Inquiry[]) private inquiries;\n  mapping(address => Dispute[]) private disputes;\n\n  address[] private _subscribers;\n  address[] private _consumers;\n\n  uint total_consumers = 0;\n\n  mapping (address => string[]) message;\n\n  mapping (bytes => address) private _owner;\n\n  address private owner;\n\n  event SubscriberAdded(address addr, string message);\n  event SubscriberNotified(address addr, string message);\n  event ConsumerNotified(address addr, string message);\n\n  constructor()\n  {\n    owner = msg.sender;\n  }\n\n  modifier onlyOwner() {\n    require(msg.sender == owner, \"access denied for owner\");\n    _;\n  }\n\n  modifier isOwner(address addr) {\n    require(addr == owner, \"not the owner\");\n    _;\n  }\n\n  modifier validSender() {\n    require(msg.sender != ZERO_ADDRESS,\"access denied for sender\");\n    _;\n  }\n\n  modifier onlySubscriber() {\n    require(subscribers[msg.sender] != 0, \"access denied for subscriber\");\n    _;\n  }\n\n  modifier onlyConsumer() {\n    require(consumers[msg.sender] != 0, \"access denied for consumer\");\n    _;\n  }\n\n  modifier alreadySubscriber(address addr) {\n    bool found = false;\n    for (uint i = 0; i < _subscribers.length; i++) {\n      if (_subscribers[i] == addr) {\n        found = true;\n      }\n    }\n    require(found == false, \"user is already a subscriber\");\n    _;\n  }\n\n  modifier alreadyConsumer(address addr) {\n    bool found = false;\n    for (uint i = 0; i < _consumers.length; i++) {\n      if (_consumers[i] == addr) {\n        found = true;\n      }\n    }\n    require(found == false, \"user is already a consumer\");\n    _;\n  }\n\n  /**\n   * A consumer is entitled\n   */\n  modifier freeReportCheck(address consumer, address subscriber, uint256 reqtime) {\n    bool found = false;\n    uint256 subscriber_lastreq = reqtime;\n    for (uint i = inquiries[consumer].length; i > 0; i--) {\n      if (!found && subscribers[inquiries[consumer][i].subscriber] != 0) {\n          subscriber_lastreq = inquiries[consumer][i].reqdate;\n          found = true;\n      }\n    }\n\n    uint consumer_total = inquiries[consumer].length - 1;\n    uint256 consumer_lastreq = inquiries[consumer][consumer_total].reqdate;\n    require(\n      consumer_lastreq == 0 || (consumer_lastreq + 52 weeks) > reqtime || (subscriber_lastreq + 90 days) < reqtime,\n     \"not eligible for a free report\");\n     _;\n  }\n\n  modifier requiresFee(uint fee) {\n    require(msg.sender.balance > fee, \"insufficient balance/amount\");\n    _;\n  }\n\n  /**\n   * retrieves the owner\n   */\n  function getOwner()\n    public\n    view\n    returns (address addr)\n  {\n    return owner;\n  }\n\n  function getUserRole()\n    public\n    view\n    validSender\n    returns (string memory)\n  {\n    if (msg.sender == owner) {\n      return string(\"owner\");\n    } else if (subscribers[msg.sender] != 0) {\n      return string(\"subscriber\");\n    } else if (consumers[msg.sender] != 0) {\n      return string(\"consumer\");\n    }\n    return string(\"unknown\");\n  }\n\n  /**\n   * adds a new subscriber\n   */\n  function addSubscriber(address addr, uint256 _type)\n  public\n  onlyOwner\n  alreadySubscriber(addr)\n  {\n    require(addr != ZERO_ADDRESS,\"missing address\");\n    subscribers[addr] = _type;\n    _subscribers.push(addr);\n    emit SubscriberAdded(addr, \"subscriber added\");\n  }\n\n  function getSubscribers()\n  public\n  view\n  onlyOwner\n  returns (address[] memory)\n  {\n    return _subscribers;\n  }\n\n  function getConsumers()\n  public\n  view\n  onlyOwner\n  returns (address[] memory)\n  {\n    return _consumers;\n  }\n\n  /**\n   * adds an item to the consumer report by an existing subscriber, must contain the minimum:\n   *    subscriber, open date, amount, description, balance, limit, payment status\n   */\n  function addConsumerItem(address consumer, bytes memory item)\n    public\n    onlySubscriber\n  {\n    require(consumer != ZERO_ADDRESS,\"missing address\");\n    if (consumers[consumer] == 0) {\n      consumers[consumer] = 1;\n      _consumers.push(consumer);\n      total_consumers++;\n    }\n    ReportItem memory ritem = ReportItem(msg.sender, item);\n    reports[consumer].push(ritem);\n    emit ConsumerNotified(consumer, \"new item was added to your report\");\n  }\n\n  /**\n   * retrieves consumer report by a subscriber, fee is paid to the owner\n   */\n  function getConsumerReport(address consumer, uint reqtime, address payable to)\n    public\n    payable\n    onlySubscriber\n    isOwner(to)\n    requiresFee(0.001 ether)\n    returns (string memory)\n  {\n    //to.transfer(0.001 ether);\n    Inquiry memory inquiry = Inquiry(msg.sender, reqtime);\n    inquiries[consumer].push(inquiry);\n    return _report(consumer);\n  }\n\n  /**\n   * When the consumer is not entitled to a free annual report\n   */\n  function getCreditReport(uint256 reqtime)\n    public\n    payable\n    onlyConsumer\n    returns (string memory)\n  {\n    Inquiry memory inquiry = Inquiry(msg.sender, reqtime);\n    inquiries[msg.sender].push(inquiry);\n    return _report(msg.sender);\n  }\n\n  /**\n   * retrieves consumer report for the consumer by the owner so the consumer does not incur gas fees.\n   * to abide by law and allow free credit report to the consumer, cannot change the state on the contract,\n   * otherwise the method must pay gas fee. By not recording consumer self requests in the contract, keeps\n   * this function free.\n   */\n  function getFreeCreditReport(address consumer, address subscriber, uint256 reqtime)\n    public\n    payable\n    onlyOwner\n    freeReportCheck(consumer, subscriber, reqtime)\n    returns (string memory)\n  {\n    Inquiry memory inquiry = Inquiry(consumer, reqtime);\n    inquiries[consumer].push(inquiry);\n    return _report(consumer);\n  }\n\n\n  function getInquiries()\n    public\n    view\n    onlyConsumer\n    returns (string memory)\n  {\n    string memory output = \"\";\n    for (uint i = 0; i < inquiries[msg.sender].length; i++) {\n      output = string(\n        abi.encodePacked(\n          output,\n          inquiries[msg.sender][i].subscriber,\n          inquiries[msg.sender][i].reqdate\n        )\n      );\n    }\n    return output;\n  }\n\n  /**\n   * because open dispute changes the state of the contract, gas fees applies,\n   * hence the consumer must start a dispute offline, and send to the owner to create a dispute and the owner pays the gas fee\n   */\n  function openDispute(address consumer, uint index, string memory disputeDate,string memory reason)\n    public\n    onlyOwner\n  {\n    ReportItem memory report = ReportItem(reports[consumer][index].subscriber,reports[consumer][index].item);\n    Dispute memory dispute = Dispute(index, report.subscriber, consumer, disputeDate, report, reason, \"\");\n    disputes[consumer].push(dispute);\n    message[report.subscriber].push(\n      string(\n        abi.encodePacked(\n          \"Dispute Opened:\",\n          index,\n          report.subscriber,\n          consumer,\n          disputeDate,\n          report.item,\n          reason\n        )\n      )\n    );\n    emit SubscriberNotified(report.subscriber, \"new dispute opened\");\n  }\n\n  function finalizeDispute(address consumer,uint index,string memory status, bool purge)\n    public\n    onlySubscriber\n  {\n    Dispute memory dispute = Dispute(\n      index,\n      disputes[consumer][index].subscriber,\n      disputes[consumer][index].consumer,\n      disputes[consumer][index].disputeDate,\n      disputes[consumer][index].item,\n      disputes[consumer][index].reason,\n      status\n    );\n\n    if (purge) {\n      delete disputes[consumer][index];\n    } else {\n      disputes[consumer][index] = dispute;\n    }\n    emit ConsumerNotified(consumer, \"dispute finalized\");\n  }\n\n  function getReportsByConsumer(address consumer)\n    public\n    view\n    onlyOwner\n    returns (string memory)\n  {\n    return _report(consumer);\n  }\n\n  function getBlocktime()\n    public\n    view\n    returns (uint256)\n  {\n    return block.timestamp;\n  }\n\n  /**\n   * The contract owner will pull a list of disputes,\n   * while iterating through each dispute,\n   * convert the disputeDate from ISO string to an epoch timestamp and get current time in epoch timestamp,\n   * check if the dispute is expired by more than 30 days from current time,\n   * if dispute is expired, delete the dispute and notifiy consumer\n   */\n  function getDisputes(address consumer)\n    public\n    view\n    onlyOwner\n    returns (string memory)\n  {\n    string memory output = \"\";\n    for (uint i = 0; i < disputes[consumer].length; i++) {\n      Dispute memory _dispute = Dispute(\n        disputes[consumer][i].index,\n        disputes[consumer][i].subscriber,\n        disputes[consumer][i].consumer,\n        disputes[consumer][i].disputeDate,\n        disputes[consumer][i].item,\n        disputes[consumer][i].reason,\n        disputes[consumer][i].status\n      );\n      output = string(\n        abi.encodePacked(\n          output,\n          \"[\",\n          _dispute.index,\n          _dispute.subscriber,\n          _dispute.consumer,\n          _dispute.disputeDate,\n          _dispute.reason,\n          _dispute.status,\n          \"]\"\n        )\n      );\n    }\n    return output;\n  }\n\n  /**\n   * The disputeDate is in ISO and must be converted to epoch timestamp before checking current time\n   * The currentTime is epoch timestamp provided by the caller\n   */\n  function checkExpiry(uint256 LastTimeStamp, uint256 currentTime)\n   public\n   pure\n   returns(bool success)\n  {\n    if (LastTimeStamp + 30 days >= currentTime) {\n      return true;\n    } else {\n      return false;\n    }\n  }\n\n  function purgeDispute(address consumer, uint index)\n    public\n    onlyOwner\n  {\n    delete disputes[consumer][index];\n    emit ConsumerNotified(consumer, \"dispute deleted\");\n  }\n\n  function sendMessage(address _recipient, string memory _message)\n    public\n  {\n    message[_recipient].push(_message);\n  }\n\n  function readMessage()\n    public\n    view\n    returns (string memory)\n  {\n    string memory output = \"\";\n    for (uint i = 0; i < message[msg.sender].length; i++) {\n      string memory _message = message[msg.sender][i];\n      output = string(abi.encodePacked(output, \"[\", _message, \"]\"));\n    }\n    return output;\n  }\n\n  /**\n   * Internal function to return credit report items by consumer\n   */\n  function _report(address consumer)\n    internal\n    view\n    returns (string memory)\n  {\n    string memory output;\n    for (uint i = 0; i < reports[consumer].length; i++) {\n      output = string(abi.encodePacked(\n        output, \"[\",\n          reports[consumer][i].subscriber, \",\",\n          reports[consumer][i].item, \",\",\n        \"]\"\n      ));\n    }\n    return output;\n  }\n}\n",
  "sourcePath": "G:\\projects\\redeecash-cra-token\\contracts\\CreditReport.sol",
  "compiler": {
    "name": "solc",
    "version": "0.8.10+commit.fc410830.Emscripten.clang"
  },
  "schemaVersion": "3.4.3",
  "updatedAt": "2021-12-16T15:46:46.026Z",
  "networkType": "ethereum",
  "devdoc": {
    "kind": "dev",
    "methods": {},
    "version": 1
  },
  "userdoc": {
    "kind": "user",
    "methods": {
      "addConsumerItem(address,bytes)": {
        "notice": "adds an item to the consumer report by an existing subscriber, must contain the minimum:    subscriber, open date, amount, description, balance, limit, payment status"
      },
      "addSubscriber(address,uint256)": {
        "notice": "adds a new subscriber"
      },
      "checkExpiry(uint256,uint256)": {
        "notice": "The disputeDate is in ISO and must be converted to epoch timestamp before checking current time The currentTime is epoch timestamp provided by the caller"
      },
      "getConsumerReport(address,uint256,address)": {
        "notice": "retrieves consumer report by a subscriber, fee is paid to the owner"
      },
      "getCreditReport(uint256)": {
        "notice": "When the consumer is not entitled to a free annual report"
      },
      "getDisputes(address)": {
        "notice": "The contract owner will pull a list of disputes, while iterating through each dispute, convert the disputeDate from ISO string to an epoch timestamp and get current time in epoch timestamp, check if the dispute is expired by more than 30 days from current time, if dispute is expired, delete the dispute and notifiy consumer"
      },
      "getFreeCreditReport(address,address,uint256)": {
        "notice": "retrieves consumer report for the consumer by the owner so the consumer does not incur gas fees. to abide by law and allow free credit report to the consumer, cannot change the state on the contract, otherwise the method must pay gas fee. By not recording consumer self requests in the contract, keeps this function free."
      },
      "getOwner()": {
        "notice": "retrieves the owner"
      },
      "openDispute(address,uint256,string,string)": {
        "notice": "because open dispute changes the state of the contract, gas fees applies, hence the consumer must start a dispute offline, and send to the owner to create a dispute and the owner pays the gas fee"
      }
    },
    "version": 1
  }
}